:020000040800F2
:10000000184D0020EDF4020825B50208656D0008C2
:1000100027B5020829B502082BB502080000000028
:100020000000000000000000000000002DB50208E4
:100030002FB5020800000000F16C0008BF1502088F
:1000400079FD02087DFD020881FD020885FD020898
:1000500089FD02088DFD02088DA6020895FD0208A3
:1000600099FD02089DFD0208A1FD0208A5FD0208F8
:10007000A9FD0208ADFD0208B1FD0208B5FD0208A8
:10008000B9FD0208BDFD0208C1FD0208C5FD020858
:10009000C9FD0208CDFD0208D1FD0208353802086D
:1000A000D9FD0208DDFD0208E1FD0208E5FD0208B8
:1000B000E9FD0208EDFD0208F1FD0208F5FD020868
:1000C000F9FD0208FDFD020801FE020805FE020816
:1000D00009FE020831B5020849B5020815FE0208FA
:1000E000A7A602081DFE020821FE0208000000006B
:1000F0000000000000000000000000000000000000
:10010000000000000000000025FE020829FE020891
:100110002DFE020831FE020835FE020839FE0208F3
:100120003DFE020841FE020845FE020849FE0208A3
:100130004DFE020869FB010855FE020859FE02083F
:100140005DFE020861FE020865FE020869FE020803
:1001500003E00B780370491C401C13005A1E002B4F
:10016000F7D1704701E00170401C13005A1E002BAC
:10017000F9D1704710B400231400621E002C06D081
:1001800003780C781B1B491C401C002BF4D0180072
:1001900010BC704700E0401C0278002A02D00278B0
:1001A0008A42F8D10078704780B5C06803F0CDF975
:1001B00002BD80B5C9B20C290BD0C9B20B2908D039
:1001C000C9B2092905D0C9B20F2902D0C06803F00D
:1001D000C7F901BDF8B504000D00266BAE4231D061
:1001E0002079002820D00123320014F134016078F6
:1001F00003F0F7F8002801D0012024E0002020714E
:10020000606A216A081886420ED2E77809E0206AFF
:1002100086190123320014F13401607803F0E1F80B
:100220007F1EFFB2022FF2DA002D0BD001232A002D
:1002300014F13401607803F0C0F8002801D00120E7
:1002400001E025630020F2BD38B504000021200044
:10025000FFF7C0FF0500EDB2002D5DD12078032827
:1002600052D1607900284FD0002020634FF40072F3
:10027000002114F13400FFF775FF552084F8320295
:10028000AA2084F83302522084F83400522084F8E3
:100290003500612084F83600412084F83700722050
:1002A00084F81802722084F81902412084F81A0296
:1002B000612084F81B02606984F81C02606980B2C6
:1002C000000A84F81D026069000C84F81E0260694F
:1002D000000E84F81F02206984F82002206980B291
:1002E000000A84F821022069000C84F822022069A7
:1002F000000E84F823020123A26914F1340160780E
:1003000003F06FF80020607100220021607803F094
:100310007CF8002800D001252800C0B232BD891E1B
:10032000C269921E914201D3002003E08278C06A24
:1003300002FB01007047F8B504000D00022D02D346
:10034000E069854201D3012016E02078012804D01D
:1003500010D3032850D034D30CE02E0016EB5606F1
:10036000606A6189B6FBF1F109182000FFF732FFDE
:10037000002802D05FF0FF30F2BD6089B6FBF0F1DB
:1003800000FB1160001990F83470761C606A618976
:10039000B6FBF1F109182000FFF71CFF0028E9D196
:1003A0006089B6FBF0F100FB1160001990F8340091
:1003B00057EA0027E80701D5380901E03805000DA4
:1003C000DAE7606A6189022291FBF2F1B5FBF1F193
:1003D00009182000FFF7FEFE0028CBD168006189D4
:1003E000B0FBF1F201FB12000019343041780078C3
:1003F00050EA012080B2BFE7606A6189042291FB64
:10040000F2F1B5FBF1F109182000FFF7E3FE002837
:10041000B0D1A8006189B0FBF1F201FB1200001914
:100420003430C1788278120452EA0161427851EA8C
:10043000022100780843000100099DE7F8B5040097
:100440000D001600022D02D3E069854201D302207F
:100450008DE02078012805D0C0F0868003285ED08A
:1004600042D381E02F0017EB5707606A6189B7FB21
:10047000F1F109182000FFF7ADFEC0B2002874D1D9
:100480006089B7FBF0F100FB1170001910F1340125
:10049000E80705D5087810F00F0050EA061000E0D4
:1004A000300008707F1C01202071606A6189B7FBF1
:1004B000F1F109182000FFF78DFEC0B2002854D1D9
:1004C0006189B7FBF1F201FB127109193431EA07B6
:1004D00001D5320906E00A7812F0F002330A13F06F
:1004E0000F031A430A7040E0606A6189022291FB9F
:1004F000F2F1B5FBF1F109182000FFF76BFEC0B275
:10050000002832D169006289B1FBF2F302FB1311BA
:10051000091934310E70B6B2320A4A7025E0606AA9
:100520006189042291FBF2F1B5FBF1F10918200079
:10053000FFF750FEC0B2002817D1A9006289B1FBB5
:10054000F2F302FB131109193431CA78120612F0C2
:10055000704216430E70320092B2120A4A70320C88
:100560008A70320ECA7000E0022001212171C0B2EF
:10057000F2BDF8B504000E00022E02D3E0698642F7
:1005800001D3022527E0002509E0606910F1010F81
:1005900004D06069401C6061012060713E00E06928
:1005A000864218D231002000FFF7C5FE0700002F59
:1005B00011D0012F01D102250DE017F1010F01D15A
:1005C000012508E0002231002000FFF737FF050079
:1005D000EDB2002DD9D02800C0B2F2BDF8B50400AC
:1005E0000E00002E07D12769002F02D0E069874254
:1005F0000DD301270BE031002000FFF79CFE0228FD
:1006000001D2012043E0E169884240D337003D0038
:100610006D1CE069854204D30225AF4201D200205F
:1006200035E029002000FFF786FE00281DD17FF06D
:10063000704229002000FFF701FFC0B2002806D158
:10064000002E04D02A0031002000FFF7F7FEC0B2D0
:10065000002814D12561606910F1010F16D060697E
:10066000401E60610120607110E010F1010F01D0A7
:10067000012800D10BE0BD42CAD1002007E0C0B282
:10068000012802D15FF0FF3500E001252800F2BD0E
:10069000426A121D03685B89B1FBF3F10068807840
:1006A000B1FBF0F001E0401A121D1168121D002983
:1006B00001D1002003E08842F5D211680818704784
:1006C00070B504000D00E580A068012803D0216802
:1006D000C969884201D302205DE0002805D1216864
:1006E0000978032901D12068806A002814D1E060CC
:1006F00020680089ADB2854201D302204BE020681A
:10070000806A21684989202291FBF2F1ADB295FB04
:10071000F1F1081820612EE021684989202291FB1F
:10072000F2F12268927802FB01F600E0AD1BADB257
:10073000B6B2B54210D301002068FFF7FCFD10F1FE
:10074000010F01D1012026E0022803D32168C969E5
:100750008842EBD302201EE0E06001002068FFF732
:10076000DEFD21684989202291FBF2F1ADB295FBB3
:10077000F1F108182061ADB220684089202190FB7A
:10078000F1F095FBF0F100FB1150216811EB4010E6
:1007900034306061002070BDF8B504000E00E088C0
:1007A000451CADB2002D02D02069002801D10420E3
:1007B00097E0ADB220684089202190FBF1F095FBD5
:1007C000F0F100FB115000287AD12069401C206113
:1007D000E068002806D120680089ADB285426FD359
:1007E00004207EE020684089202190FBF1F0ADB22A
:1007F00095FBF0F021688978491E084260D1E168D4
:100800002068FFF798FD0700022F01D2022068E060
:1008100017F1010F01D1012063E02068C069874210
:1008200048D3002E01D104205BE0E1682068FFF787
:10083000D5FE0700002F01D1072052E0012F01D182
:1008400002204EE017F1010F01D1012049E0002103
:100850002068FFF7BFFC002801D0012041E020689C
:100860004289002120683430FFF77CFC3900206881
:10087000FFF755FD21680863002605E02068006B3E
:10088000401C21680863761C20688078F6B2864296
:100890000AD201202168087100212068FFF79AFC24
:1008A0000028EBD001201CE02068006BF6B2801B12
:1008B00021680863E76039002068FFF730FD206198
:1008C000E580ADB220684089202190FBF1F095FBD6
:1008D000F0F100FB1150216811EB401034306061E1
:1008E0000020F2BD38B5040000212000FFF7E8FE2B
:1008F0000500EDB2002D02D02800C0B221E0216930
:100900002068FFF767FC0500EDB2002D17D1606984
:100910000178C9B2002901D1042510E0C17A090784
:1009200005D40B22A169FFF725FC002807D0002180
:100930002000FFF731FF0500EDB2002DDFD02800C9
:10094000C0B232BD10B504000420216900291DD0B9
:1009500021692068FFF73EFCC0B2002816D1626909
:100960001178C9B2002901D104200FE0C9B2E529EC
:1009700005D0C9B22E2902D0D17A090706D50021A7
:100980002000FFF709FFC0B20028DED0C0B2002867
:1009900001D000212161C0B210BD70B5040000215A
:1009A0002000FFF78DFE0500EDB2002D18D1216962
:1009B0002068FFF70FFC0500EDB2002D10D1606933
:1009C0000078C0B2E52802D0C0B2002800D107E00C
:1009D00001212000FFF7E0FE0500EDB2002DE6D07A
:1009E000EDB2002D15D121692068FFF7F3FB05005A
:1009F000EDB2002D0DD16669202200213000FFF7F5
:100A0000B1FB0B22A1693000FFF7A2FB0120216896
:100A100008712800C0B270BD10B50400E188200044
:100A2000FFF74EFEC0B200280CD121692068FFF705
:100A3000D1FBC0B2002805D1E52162691170012106
:100A400022681171C0B210BD2DE9F84F0C00D4F826
:100A500000A001E01AF1010A9AF800102F29F9D03C
:100A60009AF800105C29F5D086690B22202130000D
:100A7000FFF778FB5FF0000B5FFA8BFBD946C846A7
:100A8000082704E05FF008090B275FEA8B0B18F8D2
:100A90000A5018F10108EDB2212D05DBEDB22F2D22
:100AA00002D0EDB25C2D07D118EB0A002060EDB248
:100AB000212D54DA042553E0EDB22E2D01D0B94595
:100AC00006D3082F02D1EDB22E2DDBD0062067E031
:100AD000EDB2802D01DB5BF0030BEDB2812D1FDB4E
:100AE000EDB2FF2D1CD018F80A0018F10108C0B2B1
:100AF000B0F140013F2905D3C0B2802805DBC0B268
:100B0000FF2802D0791E894501D3062048E009F864
:100B1000065019F1010909F8060019F10109B6E7B3
:100B2000EDB22900DFF82006FFF734FB002801D0E2
:100B3000062035E0EDB2B5F141001A2802D25BF093
:100B4000020B07E0EDB2B5F161001A2802D25BF0AA
:100B5000010B203D09F8065019F1010997E700251E
:100B6000B9F1000F01D106201AE03078E52801D153
:100B700005203070082F01D15FEA8B0B5FFA8BFBE9
:100B80001BF00300012801D155F010055FFA8BFB23
:100B90001BF00C00042801D155F00805F572002067
:100BA000BDE8F28F10B411F109020369002B38D0AF
:100BB0004069047B002306E0E4B2052C00D1E52463
:100BC0001470521C5B1C082B03D21C5CE4B2202C5A
:100BD000F2D1037A202B0DD02E231370521C082340
:100BE00002E01470521C5B1C0B2B03D21C5CE4B2A1
:100BF000202CF6D1C37A0B72C37F847F240454EA7D
:100C00000363447F53EA0423047F23430B60437E42
:100C1000047E54EA03238B80C37D807D50EA032049
:100C2000C8800020107010BC704713B504000198F4
:100C300000782F2803D0019800785C2802D1019811
:100C4000401C01900020A06001980078202813D259
:100C500000212000FFF734FD0021616129E0417D82
:100C6000027D52EA012189B2C27E807E50EA0220D2
:100C700080B250EA0140A06001A92000FFF7E4FE25
:100C8000C0B2002815D12000FFF72CFEA169C97A57
:100C9000C0B2002806D0C0B204280AD1490700D447
:100CA000052006E0490704D46069C17AC906D6D494
:100CB0000520C0B216BD10B5040001230A0014F1CE
:100CC0003401607802F079FB002801D003202DE088
:100CD00094F8330294F8321251EA002080B24AF6B6
:100CE0005521884201D0022020E094F86C0094F84D
:100CF0006B10090251EA004094F86A100843DFF8CB
:100D00004C14884201D1002010E094F8880094F837
:100D10008710090251EA004094F886100843DFF872
:100D20002C14884201D1002000E0012010BDF8B54C
:100D3000150002681378B3F130060A2E05D25378F5
:100D40003A2B02D1921C026000E00026022E01D351
:100D50000B20B0E1DFF8F80350F826400C60002CBF
:100D600001D10C20A7E12000FFF71EFA002801D1D5
:100D70000F20A0E1207800280ED0607802F01BFB45
:100D80000700F80708D4EDB2002D03D0780701D58D
:100D90000A2090E100208EE10020207066706078CB
:100DA00002F007FB0700F80701D5032083E114F1E7
:100DB0000A020221607802F028FB002801D00120FD
:100DC00079E1EDB2002D03D0780701D50A2072E158
:100DD000002529002000FFF76EFF0600F6B2012E65
:100DE00014D114F5F970017900290FD0C17A827AF3
:100DF000120452EA0161427A51EA0221007A50EA71
:100E0000010529002000FFF756FF0600F6B2032E69
:100E100001D101204FE1F6B2002E01D00D204AE1B0
:100E200094F8400094F83F1051EA0020618980B2A4
:100E3000884201D00D203EE194F84B0094F84A100E
:100E400051EA002080B200280DD194F85B0094F89C
:100E50005A10090451EA006094F8591050EA012030
:100E600094F858100843206294F84410E170C9B215
:100E7000012904D0C9B2022901D00D201BE1C9B259
:100E8000484394F84110A170C9B2002903D04A1E0A
:100E9000C9B2114201D00D200DE194F8461094F82A
:100EA000452052EA0121218121896289202392FB78
:100EB000F3F291FBF2F302FB1311002901D00D2094
:100EC000F9E094F8481094F8472052EA012292B2CF
:100ED000002A0DD194F8571094F85620120452EAC3
:100EE000016194F8552051EA022194F854200A43F4
:100EF00094F8431094F8423053EA012189B2002952
:100F000001D10D20D7E089B243186689202796FBCE
:100F1000F7F6278997FBF6F6F3189A4201D20D20CF
:100F2000C9E0D21AA678B2FBF6F2002A01D10D2050
:100F3000C1E0012640F6F677BA4200D302264FF60A
:100F4000F677BA4200D30326921CE2615A19E26294
:100F500089B249196162F6B2032E16D120890028A0
:100F600001D00D20A7E094F8630094F86210090402
:100F700051EA006094F8611050EA012094F8601082
:100F80000843A062E069800015E02189002901D1B1
:100F90000D2090E0616A4018A062F6B2022E02D1E4
:100FA000E069400007E0E06903214843217F11F038
:100FB000010111EB50006189491E08186189B0FBDD
:100FC000F1F0216A814201D20D2074E05FF0FF3020
:100FD000606100202061F6B2032E5ED100206071B6
:100FE00094F8650094F8641051EA002080B240192A
:100FF000A0610123A26914F13401607802F0DDF9E7
:1010000000284AD194F8330294F8321251EA0020B1
:1010100080B24AF6552188423FD194F8370094F8BF
:101020003610090451EA006094F8351050EA0120A6
:1010300094F834100843474988422ED194F81B0293
:1010400094F81A12090451EA006094F8191250EA4F
:10105000012094F8181208433F4988421DD194F8A2
:10106000230294F82212090451EA006094F8211234
:1010700050EA012094F820120843206194F81F02DE
:1010800094F81E12090451EA006094F81D1250EA07
:10109000012094F81C120843606126702F480088D4
:1010A000401C2E4908802D480088E08000202063E5
:1010B000002020710020F2BD10B50400002C06D0E5
:1010C0002078002803D0E08889B2884201D0092026
:1010D0000EE02000FFF768F8002801D10F2007E09C
:1010E000607802F068F9C00701D5032000E0002015
:1010F00010BD70B504000D00E4B2022C01DB0B2022
:1011000021E01348E4B250F82460002E08D0F068C3
:1011100002F014FA002801D1022014E000203070FF
:10112000002D0BD00020287015F10C012000C0B25A
:1011300002F0C3F9002801D1022004E00448E4B21F
:1011400040F82450002070BDECEE020846415400E7
:10115000C81A00205252614172724161F84A00205F
:101160002DE9F2438AB0040015000020206015F03C
:101170001F0515F0FE0200A90AA8FFF7D8FD06001A
:1011800007A80690F6B2002E04D10A9900A8FFF72E
:101190004CFD0600059FF6B2002E02D1002F00D1B3
:1011A00006261C20054263D0F6B2002E0AD0F6B205
:1011B000042E03D100A8FFF7F0FB060055F0080548
:1011C000059F08E0F87A1121084201D0072602E0C5
:1011D000680700D50826F6B2002E57D1280755D546
:1011E00002F069F9804687F80E80404680B2000A16
:1011F000F8735FEA184038745FEA1860787400206A
:10120000F87200203877002078770020B877002027
:10121000F877787D397D51EA002080B2F97EBA7E78
:1012200052EA012189B251EA00490020B876002033
:10123000F876002038750020787501200099087133
:10124000B9F1000F22D00098D0F8308049460098BC
:10125000FFF78FF90600F6B2002E17D1B9F10100A1
:101260000099086141460098FEF7B4FF06000DE0C2
:10127000F6B2002E0AD1F87AC00601D5042605E0A0
:10128000A80703D5F87AC00700D50726F6B2002EC6
:1012900007D1280701D555F020050098006BE061C3
:1012A0002762F6B2002E23D1A571787D397D51EAEF
:1012B000002080B2F97EBA7E52EA012189B251EA59
:1012C00000402061F87FB97F090451EA0060797F0E
:1012D00050EA0120397F0843E0600020A060002030
:1012E000A06100206062009820600098C088A08003
:1012F0003100C9B20098FEF75CFF3000C0B20BB0FD
:10130000BDE8F0832DE9F047050016001F000C0032
:1013100000203860A9882868FFF7CEFE80465FFA73
:1013200088F8B8F1000F07D04146C9B22868FEF727
:1013300040FF4046C0B219E1A879000605D5022158
:101340002868FEF736FF022010E1A879C00705D40F
:1013500007212868FEF72DFF072007E1E868A96844
:10136000401AB0422AD2060028E0C5F81890A868B2
:10137000296849892A685289121AB0FBF1F001FBE9
:101380000028464500D2B046A868296849894246E7
:10139000B0FBF1F301FB1300401910F1280120000C
:1013A000FEF7D6FE18EB0404A86818EB0000A8604E
:1013B000386818EB00003860B6EB0806002E00F025
:1013C000D080A86829684989B0FBF1F201FB1200BE
:1013D0000028CCD1A86829684989B0FBF1F02968B8
:1013E0008978491E11EA00085FFA88F8B8F1000F01
:1013F0002AD1A868002801D128690BE0686A002872
:1014000004D0A9682800FFF743F903E06969286858
:10141000FEF791FF022809D2A87950F08000A87148
:1014200002212868FEF7C5FE02209FE010F1010F9F
:1014300009D1A87950F08000A87101212868FEF731
:10144000B8FE012092E0686169692868FEF767FFCD
:101450008146B9F1000F09D1A87950F08000A87138
:1014600002212868FEF7A5FE02207FE05FFA88F8D7
:1014700018EB090928684089B6FBF0FABAF1000FA9
:101480003BD0286880785FFA88F81AEB0801884218
:1014900005D2286880785FFA88F8B0EB080A5346CE
:1014A000DBB24A4621002868407801F086FF002818
:1014B00009D0A87950F08000A87101212868FEF7B2
:1014C00078FE012052E0A879400611D5A869B0EB5A
:1014D000090050450CD22868428915F12801A869F5
:1014E000B0EB09002B685B8903FB0040FEF730FE80
:1014F000286840890AFB00F854E7A86948453FF48A
:1015000034AFA879400617D50123AA6915F128013F
:101510002868407801F065FF002809D0A87950F0CC
:101520008000A87101212868FEF743FE01201DE01C
:10153000A87910F0BF00A87101234A4615F12801CF
:101540002868407801F039FF00283FF40EAFA879F1
:1015500050F08000A87101212868FEF72AFE0120C2
:1015600004E000212868FEF724FE0020BDE8F08793
:101570002DE9F047050016001F000C000020386020
:10158000A9882868FFF798FD80465FFA88F8B8F1C7
:10159000000F07D04146C9B22868FEF70AFE404650
:1015A000C0B287E0A879000605D502212868FEF7B9
:1015B00000FE02207EE0A879800705D40721286874
:1015C000FEF7F7FD072075E0E8683018E968884203
:1015D0002DD200262BE0C5F81890A8682968498903
:1015E0002A685289121AB0FBF1F001FB0028464527
:1015F00000D2B046A86829684B8942462100B0FB5A
:10160000F3FC03FB1C0040192830FEF7A1FDA8796C
:1016100050F04000A87118EB0404A86818EB000013
:10162000A860386818EB00003860B6EB0806002E9A
:1016300031D0A86829684989B0FBF1F201FB12009A
:101640000028CAD1A86829684989B0FBF1F0296847
:101650008978491E11EA00085FFA88F8B8F1000F8E
:1016600044D1A868002808D12869002811D1002198
:101670002868FEF7B3FF28610BE0686A002804D0F1
:10168000A9682800FFF704F803E069692868FEF7F5
:10169000A5FF002810D1E868A968884201D2A8688F
:1016A000E860A87950F02000A87100212868FEF7B2
:1016B00080FD0020BDE8F087012809D1A87950F00D
:1016C0008000A87102212868FEF773FD0220F1E76F
:1016D00010F1010F09D1A87950F08000A871012103
:1016E0002868FEF766FD0120E4E76861A8794006F6
:1016F00017D50123AA6915F128012868407801F05F
:1017000070FE002809D0A87950F08000A87101214E
:101710002868FEF74EFD0120CCE7A87910F0BF0045
:10172000A87169692868FEF7FAFD8146B9F1000FD2
:1017300009D1A87950F08000A87102212868FEF72D
:1017400038FD0220B6E75FFA88F818EB0909286827
:101750004089B6FBF0FABAF1000F3CD028688078D7
:101760005FFA88F81AEB0801884205D22868807869
:101770005FFA88F8B0EB080A5346DBB24A4621000C
:101780002868407801F02DFE002809D0A87950F093
:101790008000A87101212868FEF70BFD012089E770
:1017A000A869B0EB0900504510D228684289A869A1
:1017B000B0EB09002968498901FB004115F12800B7
:1017C000FEF7C6FCA87910F0BF00A8712868408910
:1017D0000AFB00F81FE7A86948453FF4FCAEA8687B
:1017E000E9688842BFF4F7AE01234A4615F12801A3
:1017F0002868407801F0E1FD00283FF4ECAEA879BC
:1018000050F08000A87101212868FEF7D2FC012069
:1018100050E738B50400A1882068FFF74DFC0500AB
:10182000EDB2002D56D1A079800653D5A07940069F
:1018300013D50123A26914F128012068407801F032
:10184000D0FD002805D001212068FEF7B2FC012060
:1018500047E0A07910F0BF00A071E1692068FEF7B1
:10186000B9FC0500EDB2002D34D1256AE87A50F0BC
:101870002000E872E0682877E06880B2000A6877A4
:10188000E068000CA877E068000EE8772069A87689
:10189000206980B2000AE8762069000C287520696A
:1018A000000C80B2000A687501F005FEA875010001
:1018B00089B2090AE975010C2976000E6876A079CB
:1018C00010F0DF00A0710120216808712068FEF788
:1018D000BBFC05002900C9B22068FEF76AFC28009D
:1018E000C0B232BD10B504002000FFF792FFC0B2B5
:1018F000002801D100212160C0B210BD2DE9F84FB0
:1019000004000F00A1882068FFF7D6FB0500EDB2A8
:10191000002D07D02900C9B22068FEF74AFC280034
:10192000C0B2AEE1A079000605D502212068FEF71D
:1019300040FC0220A5E1606A002800F0B58017F1A4
:10194000010F4AD1D4F824A0DAF800801AF1040A71
:101950005FF002092069002834D00700002619F141
:1019600002098346761C01002068FEF7E4FC022889
:1019700009D2A07950F08000A07102212068FEF702
:1019800018FC02207DE110F1010F09D1A07950F07F
:101990008000A07101212068FEF70BFC012070E19E
:1019A0001BF101018842DCD0C84507D3CAF80060AA
:1019B0001AF1040ACAF800701AF1040A2168C96908
:1019C0008842CAD3606AC0F80090C84503D300209B
:1019D000CAF800004EE111254CE1E068B84200D29F
:1019E000E768A760002F00F04581791E2000FEF710
:1019F0004FFE606161692068FEF791FC0600002ED1
:101A000009D1A07950F08000A07102212068FEF772
:101A1000D0FB022035E1781E21684989B0FBF1F046
:101A200021688978491E08408619A068216849897B
:101A3000B0FBF1F201FB1200002800F01B81A0694D
:101A4000864200F01781A079400617D50123A269CC
:101A500014F128012068407801F0C3FC002809D067
:101A6000A07950F08000A07101212068FEF7A1FB51
:101A7000012006E1A07910F0BF00A071012332001F
:101A800014F128012068407801F097FC002809D063
:101A9000A07950F08000A07101212068FEF789FB39
:101AA0000120EEE0A661E5E0E068B84203D2A0794B
:101AB000800700D4E768A0680026A660002F00F029
:101AC0009380216889782268528902FB01F80028F6
:101AD00010D0411EB1FBF8F17A1EB2FBF8F28A4237
:101AE00008D3401EB8F101018843A060A0683F1AE6
:101AF000616922E0216900291ED100212068FEF7DA
:101B00006DFD0100012909D1A07950F08000A0717C
:101B100002212068FEF74DFB0220B2E011F1010F17
:101B200009D1A07950F08000A07101212068FEF752
:101B300040FB0120A5E021616161002907D153E04C
:101B40006161A06818EB0000A060B7EB0807B8451A
:101B500009D2A079800721D52068FEF73FFD01005A
:101B600000291FD14746A0683818A0602068408926
:101B7000B7FBF0F200FB1270002835D02068FEF7AA
:101B8000CEFB0600002E2AD1A07950F08000A07173
:101B900002212068FEF70DFB022072E02068FEF7AC
:101BA000CAFB010011F1010F09D1A07950F08000AA
:101BB000A07101212068FEF7FCFA012061E00229F2
:101BC00003D32068C0698142BAD3A07950F0800065
:101BD000A07102212068FEF7ECFA022051E0206893
:101BE0004089B7FBF0F08619A06821684989B0FBED
:101BF000F1F201FB1200002832D0A06986422FD0FA
:101C0000A079400617D50123A26914F128012068A4
:101C1000407801F0E6FB002809D0A07950F0800060
:101C2000A07101212068FEF7C4FA012029E0A07903
:101C300010F0BF00A0710123320014F128012068C8
:101C4000407801F0BAFB002809D0A07950F080005C
:101C5000A07101212068FEF7ACFA012011E0A66115
:101C6000E068A168884205D2A068E060A07950F0E1
:101C70002000A0712900C9B22068FEF79AFA280056
:101C8000C0B2BDE8F28F32B584B00400002221005A
:101C900004A8FFF74CF80500EDB2002D32D100A8E2
:101CA000A06104992000FEF7C0FF0500EDB2002DF1
:101CB00024D16069002816D06069C07AC00611D5A9
:101CC0006069407D6169097D51EA002080B26169E7
:101CD000C97E6269927E52EA012189B251EA0040CE
:101CE000A06000E00525EDB2002D07D12068C08876
:101CF000A08000212000FEF7E3FC0500EDB2042DDA
:101D000000D105252900C9B22068FEF752FA280043
:101D1000C0B205B030BD70B584B004000D00A1881C
:101D20002068FFF7C9F90600F6B2002E25D1002D74
:101D300005D100212000FEF7C3FC06001DE000A82D
:101D4000A0612000FEF7FEFD0600F6B2042E02D1CF
:101D5000002020610026F6B2002E0ED129002000BE
:101D6000FEF720FF00212000FEF716FD0600F6B268
:101D7000042E02D10020206100263100C9B2206863
:101D8000FEF717FA3000C0B204B070BD70B50400A1
:101D90000D00002600212000FEF792FC002801D152
:101DA000002D02D5022010E0761CAE420CDA200095
:101DB000FEF7C8FD002805D100212000FEF7ECFC4D
:101DC0000028F1D0022000E0002070BD31B58AB0BB
:101DD0000C00002200A90AA8FEF7A9FF0500EDB239
:101DE000002D12D107A806900A9900A8FEF71DFF42
:101DF0000500EDB2002D08D10598002804D021007F
:101E000000A8FEF7CFFE00E006252900C9B2009821
:101E1000FEF7CFF92800C0B20BB030BD2DE9F14775
:101E200081B00D0014000022210001A8FEF77FFF01
:101E30000700FFB2002F72D12068C069801E2168A0
:101E40004969884203D320684069286067E02068B8
:101E500006785FF00008F6B2012E19D15FF0020992
:101E600049462068FEF767FA10F1010F01D10127FA
:101E70004AE0012801D1022746E0002801D118F1EB
:101E8000010819F101092068C0698145E8D33BE0E8
:101E90002068D0F81C902068D0F824A000210020F1
:101EA00000290DD151462068FEF794F907001AF178
:101EB000010AFFB2002F27D12068343021684989F8
:101EC000F6B2022E0BD14278037853EA022292B284
:101ED000002A01D118F10108801C891E0FE0C27888
:101EE00083781B0453EA0262437852EA03220378A0
:101EF0001A43120101D118F10108001D091FB9F19F
:101F00000109B9F1000FCBD12068C0F81480F6B2F6
:101F1000032E02D1012021684871C5F800803900E4
:101F2000C9B22068FEF745F93800C0B2BDE8F687AF
:101F300031B592B0012200A912A8FEF7F8FE040004
:101F4000E4B2002C5AD107A80690129900A8FEF717
:101F50006CFE0400E4B2002C50D10598002801D199
:101F6000062403E0C17AC90700D50724417D027D1C
:101F700052EA012189B2C27E837E53EA022292B2E2
:101F800052EA0145E4B2002C20D1C07AC0061DD52A
:101F9000022D01D2022419E01C2200A90AA8FEF792
:101FA000D7F80C9502210AA8FEF78AFB0400E4B2D8
:101FB000002C0BD10AA8FEF7C5FC0400E4B2002CEB
:101FC00000D10724E4B2042C00D10024E4B2002C98
:101FD00014D100A8FEF720FD0400E4B2002C0DD1BE
:101FE000002D04D029000098FEF7C3FA0400E4B2E3
:101FF000002C03D10098FEF727F904002100C9B294
:102000000098FEF7D6F82000C0B213B030BD2DE91D
:10201000F1438AB001F04FFA0400012200A90AA896
:10202000FEF785FE0600F6B2002E40F0D78007A826
:1020300006900A9900A8FEF7F8FD0600F6B2002EF9
:1020400000D10826F6B2042E40F0C8800021009886
:10205000FEF7C4FA05000026002D00D10726012D49
:1020600000D1022615F1010F00D10126F6B2002E93
:1020700004D100210098FEF7ADF80600F6B2002E5C
:1020800075D129000098FEF74AF90700009810F171
:1020900034080098428900214046FEF763F80B227D
:1020A00020214046FEF75EF82E2088F80000102020
:1020B00088F80B0088F81640200080B2000A88F8E3
:1020C0001700200C88F81800200E88F8190088F8EE
:1020D0001A50280080B2000A88F81B00280C88F8E3
:1020E0001400280C80B2000A88F81500202241460E
:1020F00018F12000FEF72CF82E2088F82100029815
:1021000000990978032904D10099896A884200D18D
:10211000002088F83A00010089B2090A88F83B10CB
:10212000010C88F83410000C80B2000A88F83500E1
:10213000009890F8029007E00098428900214046FC
:10214000FEF710F8B9F101095FFA89F9B9F1000F4A
:102150000DD0009807637F1C0120009908710021B1
:102160000098FEF737F80600F6B2002EE4D0F6B27B
:10217000002E03D100A8FEF710FC0600F6B2002ED8
:1021800004D029000098FEF7F4F927E0DDF8148068
:10219000102088F80B0088F81640200080B2000A52
:1021A00088F81700200C88F81800200E88F819000D
:1021B00088F81A50280080B2000A88F81B00280C02
:1021C00088F81400280C80B2000A88F81500012055
:1021D000009908710098FEF737F806003100C9B27F
:1021E0000098FDF7E6FF3000C0B20BB0BDE8F08309
:1021F00031B598B00D00012207A918A8FEF797FD88
:102200000400E4B2002C40F09180079800900EA8E2
:102210000D90189907A8FEF708FD0400E4B2002C01
:1022200040F084800C98002801D104247EE015221F
:102230000C9810F10B0111A8FDF78AFF1C2207A9C9
:1022400000A8FDF785FF290000A8FEF7EEFC0400BA
:10225000E4B2002C00D10824E4B2042C66D100A81A
:10226000FEF79BFB0400E4B2002C5FD1059D132216
:102270000DF1460115F10D00FDF76AFF9DF84400D0
:1022800050F02000E872012007990871099802991E
:1022900088423DD0E87AC0063AD5687D297D51EA6A
:1022A000002080B2E97EAA7E52EA012189B251EA79
:1022B00000410098FEF733F8002801D1022427E0FE
:1022C00001000098FDF786FF0400009810F1540506
:1022D000E4B2002C1CD168782E2819D1009800781F
:1022E000032806D102980099896A884201D100200A
:1022F00000E00298A876010089B2090AE976010C8B
:102300002975000C80B2000A6875012000990871D7
:10231000E4B2002C0AD107A8FEF77EFB0400E4B269
:10232000002C03D10798FDF78FFF04002100C9B2EC
:102330000798FDF73EFF2000C0B219B030BD2DE96F
:10234000F04F87B004000F001500E4B2022C01DB4F
:102350000B2048E3DFF8B406E4B250F82400019003
:102360000198002801D10C203DE30020019908705C
:102370002000C0B201F01DF8C10701D5032032E3EF
:10238000400701D50A202EE3019810F10A0202212C
:102390002000C0B201F039F8002801D0012022E36A
:1023A00002AA01212000C0B201F02FF8002802D1BA
:1023B0000298802801D2012015E3FFB2002F02D03D
:1023C0000020039001E03F20039002980399401AF7
:1023D0000290681E054200D00025002D1BD10198F7
:1023E00040894FF4007190FBF1F04FF4FA6191FBDA
:1023F000F0F00299B1FBF0F05FF0000A01E01AF191
:10240000010ADFF80C1631F81A108842F7D3DFF80A
:10241000040630F81A5001984089B5FBF0F5002DFC
:1024200000D10125812D00D380250298B0FBF5F85D
:10243000012640F6F670804500D302264FF6F6706E
:10244000804500D30326F6B2032E0DD101984089B2
:1024500010EB8800C01D01994989B0FBF1FB5FF0CA
:1024600020090020049020E0F6B2012E07D10320BD
:1024700000FB08F0401C400810F1030B03E05FEA8A
:10248000480010F1040B0198408910EB0B00401E2E
:1024900001994989B0FBF1FB5FF001094FF48040DD
:1024A00001994989B0FBF1F00490039819EB000001
:1024B000059005981BEB0000049911EB00080298A9
:1024C00015EB0801884201D20E208CE200AA0321FC
:1024D0002000C0B200F099FF002806D10098002823
:1024E00003D00098B0F5004F01D90120009000986A
:1024F00010EB0800401E0099491E88430090009888
:10250000B0EB08000121B0FBF1F00090F6B2032E11
:1025100007D1009810EB0909059800990818059053
:1025200002E0009810EB0B0B0298B0EB0900B0EB47
:102530000B000499401AB0FBF5F8F6B2022E03D155
:1025400040F6F670804506D3F6B2032E05D14FF65D
:10255000F670804501D20E2045E2FFB2002F03D075
:10256000F0208DF8180067E00398029911EB000A3B
:1025700001984289002101983430FDF7F3FD01985C
:1025800010F5F97780203870012078700120B8703C
:102590000020F870DFF8800482450DD23F20BAFB9E
:1025A000F0F0FF21B0FBF1FA87F807A05FEA9A008C
:1025B00050F03F00B87103E0FF20B871FF20F871C0
:1025C000FE207871F6B2032E08D00298B0F5803F55
:1025D00001D2042000E00620387101E00C2038719F
:1025E0003F203872002078720020B8720020F87204
:1025F00002983873029880B2000A78730298000C2F
:10260000B8730298000EF8735520019981F83202D0
:10261000AA20019981F8330201230022019810F1C8
:1026200034012000C0B200F0DCFE002801D00120FF
:10263000D9E1F8208DF81800019810F134070198BD
:10264000428900213800FDF78DFD0B22DFF8CC1305
:102650003800FDF77DFD0198B0F80AA087F80BA0BF
:102660001FFA8AFA5FEA1A2038737D7387F80E9092
:102670001FFA89F95FEA1920F87301203874F6B25D
:10268000032E02D15FF0000A01E04FF4007A87F8D0
:1026900011A01FFA8AFA5FEA1A20B8740298B0F5FE
:1026A000803F06D20298F874029880B2000A38750A
:1026B0000FE0029887F82000029880B2000A87F89D
:1026C00021000298000C87F822000298000E87F87B
:1026D00023009DF8180078753F2038760020787622
:1026E000FF20B8760020F87603983877039880B2F8
:1026F000000A78770398000CB8770398000EF877F3
:1027000000F0D9FE0090F6B2032E43D1009887F86E
:102710004300009880B2000A87F844000098000C3B
:1027200087F845000098000E87F8460087F824B027
:10273000584680B2000A87F825005FEA1B4087F8F8
:1027400026005FEA1B6087F82700022087F82C002C
:10275000002087F82D00002087F82E00002087F841
:102760002F00012087F83000002087F83100062074
:1027700087F83200002087F83300802087F8400077
:10278000292087F842001322A54917F14700FDF7D9
:10279000DFFC21E0009887F82700009880B2000A4B
:1027A00087F828000098000C87F829000098000E90
:1027B00087F82A0087F816B0584680B2000AF875E4
:1027C000802087F82400292087F8260013229549C5
:1027D00017F12B00FDF7BCFC552087F8FE01AA205D
:1027E00087F8FF010123039A39002000C0B200F0EE
:1027F000F8FD002801D00120F5E0F6B2032E07D144
:1028000001230398821D39002000C0B200F0E9FDC9
:10281000DDF814905FF0000A01E01AF1010ABAF144
:10282000000F6DD10198428900213800FDF79AFC14
:102830009DF818000090F6B2032E16D0F6B2012EC5
:1028400001D1794801E07FF0FF0000990843009032
:1028500000983870009880B2000A78700098000CD8
:10286000B8700098000EF8701FE0009870F0FF003C
:10287000009000983870009880B2000A7870009834
:10288000000CB8700098000EF870FF203871FF201F
:102890007871FF20B871FF20F871FF203872FF2097
:1028A0007872FF20B8720F20F87201234A4639006F
:1028B0002000C0B200F095FD19F10109C0B2002856
:1028C00001D001208FE00198428900213800FDF7F6
:1028D00049FC0120009002E00098401C0090009804
:1028E00058459AD201234A4639002000C0B200F070
:1028F00078FD19F10109C0B20028EDD0012072E085
:10290000F6B2032E01D1AA4601E0DDF810A00123A2
:102910004A4639002000C0B200F063FD19F10109F8
:10292000C0B2002801D001205DE0BAF1010ABAF17D
:10293000000FECD1F6B2032E49D15220387052204C
:1029400078706120B8704120F870722087F8E40137
:10295000722087F8E501412087F8E601612087F8B9
:10296000E7014046401E87F8E8014046401E80B21D
:10297000000A87F8E901B8F10100000C87F8EA01C4
:10298000B8F10100000E87F8EB01022087F8EC0196
:10299000002087F8ED01002087F8EE01002087F87D
:1029A000EF01552087F8FE01AA2087F8FF010123D7
:1029B0000398421C39002000C0B200F012FD012330
:1029C0000398C21D39002000C0B200F00AFD0022A9
:1029D00000212000C0B200F018FD002801D1002025
:1029E00000E00120C0B207B0BDE8F08F002100E098
:1029F000491C022906DA054A52F821208242F7D101
:102A0000080001E05FF0FF3070470000C81A0020A6
:102A10009CD40208B4D402080004FB0034F7020876
:102A20003CE0020850E0020800FFFF000021C0B2B5
:102A3000002813D0401E02281AD9C01E01280ED922
:102A4000801E0FD0401E16D0401E01280DD9801EBA
:102A500011D0C01E03D0401E10D012E013E07FF052
:102A6000010110E07FF015010DE07FF010010AE098
:102A70007FF0040107E07FF01D0104E07FF0150105
:102A800001E05FF0FF3108007047002100E0491CC1
:102A9000022907DADFF84C2A52F821208242F6D1C7
:102AA000080001E05FF0FF3070472DE9F04186B08B
:102AB00006000020FFF7E9FF040014F1010F02D126
:102AC0007FF0010065E03068DFF8181A41F8240053
:102AD00002AA1021306800F0BDFE00280AD1039838
:102AE000B0F5007F06D9DFF8000A01F06CFA7FF03C
:102AF00015004EE04FF40D7001F0D0FB0500002DE5
:102B000007D10020DFF8DC1941F824007FF00B002A
:102B10003FE029002000C0B2FEF7EBFA0700FFB249
:102B2000002F25D12300DFF8C429082100A801F0D7
:102B300026FA1C2001F0B2FB8046B8F1000F0FD13D
:102B400000212000C0B2FEF7D4FA0020DFF894196B
:102B500041F82400280001F08DFD7FF00B0018E003
:102B600000A94046FFF78FF80700FFB2002F13D0EF
:102B700000212000C0B2FEF7BCFA0020DFF8641983
:102B800041F82400280001F075FD3800C0B2FFF7BD
:102B90004DFF06B0BDE8F081F560404601F06AFDEA
:102BA0000020F6E770B582B00500EC68002C0FD16C
:102BB00000208DF80000B723DFF83429DFF834193E
:102BC000DFF8340901F0FFF99DF800000028FBD080
:102BD0002868FFF75AFF060016F1010F02D17FF0B7
:102BE000010016E000213000C0B2FEF782FAC0B248
:102BF000002803D0C0B2FFF719FF0AE00020E86008
:102C00000020DFF8E01841F82600200001F032FD36
:102C1000002076BD2DE9F04104000025002C02D1F2
:102C20007FF0150053E000262000FFF72EFF8046BE
:102C300018F1010F25D10020FFF727FF804618F17A
:102C4000010F06D1DFF8B40801F0BDF97FF01B00D9
:102C50003DE04FF40D7001F021FB0500002D02D185
:102C60007FF00B0033E00126DFF8780840F82840B9
:102C70000321200000F007FD29004046C0B2FEF706
:102C800038FA002201214046C0B2FFF758FB070086
:102C9000012E0FD1280001F0EDFC00214046C0B20A
:102CA000FEF727FA0020DFF83C1841F82800200042
:102CB00000F043FDFFB2002F08D0DFF8440801F018
:102CC00082F93800C0B2FFF7B1FE00E00020BDE895
:102CD000F08130B585B005000C00002D10D100202A
:102CE0008DF8040040F21913DFF81828DFF81818DF
:102CF000DFF8040801F067F99DF804000028FBD014
:102D0000002C10D100208DF804004FF48D73DFF8F3
:102D1000F427DFF8F817DFF8E00701F054F99DF821
:102D200004000028FBD0E868009000984378C6A211
:102D3000042103A801F023F900AA02A903A8FFF7C0
:102D40006DF8C0B2002803D0C0B2FFF76FFE10E0EC
:102D50000098C069801E0099897801FB00F10298F3
:102D6000009A92785043A06061604FF40070206038
:102D7000002005B030BDF8B50400E068C068FFF77A
:102D800035FE0600002E02D57FF0010095E04FF4DD
:102D9000807001F083FA0500002D02D17FF00B0056
:102DA0008BE0606800903300DFF864274FF4807197
:102DB000280001F0E4F82069800233D52069C005BD
:102DC0000ED52800FFF723F90600F6B2002E07D033
:102DD000280001F04FFC3000C0B2FFF727FE6CE086
:102DE0001C2001F05BFA0700002F05D1280001F03C
:102DF00041FC7FF00B0060E029003800FEF743FF44
:102E00000600280001F036FCF6B2002E07D038008C
:102E100001F030FC3000C0B2FFF708FE4DE0E76182
:102E200000204AE00126207CC00701D556F00206AA
:102E3000207C800701D556F002062069C00501D527
:102E400056F010062069C00401D556F00806206926
:102E5000800501D556F004064FF40A7001F01EFA01
:102E60000700002F05D1280001F004FC7FF00B00C3
:102E700023E03200D2B229003800FEF771F90600D3
:102E8000280001F0F7FBF6B2002E0FD1B868A06160
:102E9000F8686061E7612069800405D5F968380049
:102EA000FEF72CFDB868A061002006E0380001F0B4
:102EB000E1FB3000C0B2FFF7B9FDF2BD38B5002428
:102EC0004188022917D1C569002D10D100208DF845
:102ED000000040F2B313DFF83C26DFF83C16DFF8C1
:102EE000180601F070F89DF800000028FBD02800BB
:102EF00001F0C0FB20E0418800291DD1C569002DEB
:102F000010D100208DF800004FF4DE73DFF80426A6
:102F1000DFF80816DFF8E00501F055F89DF800002D
:102F20000028FBD02800FEF7DDFC0400E4B2002CF2
:102F300002D1280001F09EFB2000C0B2FFF776FD11
:102F400032BD7FF025007047F0B583B004000D005E
:102F500016006088022802D17FF0140023E0E769A0
:102F6000002F10D100208DF800004FF4ED73DFF832
:102F7000B025DFF8A815DFF8800501F024F89DF8EA
:102F800000000028FBD001AB320029003800FEF71A
:102F9000B9F9B968A161C0B2002801D1019802E075
:102FA000C0B2FFF743FDFEBDF0B583B004000D00D5
:102FB00016006088022802D17FF0140025E0E7693E
:102FC000002F10D100208DF8000040F2F113DFF83F
:102FD0005425DFF84815DFF8200500F0F4FF9DF8D0
:102FE00000000028FBD001AB320029003800FEF7BA
:102FF000BFFAB968A161F9686161C0B2002801D166
:10300000019802E0C0B2FFF711FDFEBD10B582B01D
:10301000C469002C10D100208DF8000040F2032379
:10302000DFF80425DFF8F414DFF8CC0400F0CBFF60
:103030009DF800000028FBD02000FEF7EAFBC0B29C
:10304000FFF7F4FC16BD000025643A0070B582B0AD
:1030500004000D000020618800291ED1E669002EC1
:1030600010D100208DF8000040F21223DFF8BC24BC
:10307000DFF8A814DFF8800400F0A5FF9DF8000039
:103080000028FBD029003000FEF738FCC0B2002831
:1030900027D1B068A061B06826E06188022920D1FC
:1030A000E669002E10D100208DF8000040F22223A6
:1030B000DFF87824DFF86014DFF83C0400F083FFC9
:1030C0009DF800000028FBD04FF48270B5FBF0F1B2
:1030D0003000FEF75BFEC0B2002802D1A561A069F6
:1030E00002E0C0B2FFF7A2FC76BD2DE9F04F87B039
:1030F00004000D001600E769002F10D100208DF8A4
:10310000000040F23923DFF82824DFF80C14DFF840
:10311000E80300F058FF9DF800000028FBD04FF4B2
:103120008270B6FBF0F04FF4827101FB00F6002EC6
:1031300002D17FF0150050E05FF000084FF482707C
:1031400000FB085901A93800FEF7E5FD82465FFA49
:103150008AFABAF1000F03D19DF80D00002800D1C2
:1031600029E00DF10D0B002089F800009DF80C00FE
:10317000C00603D5022089F8000002E0012089F88A
:103180000000584600F07FFC89F801004FF482707F
:10319000A9F80200584600F076FC421C594619F185
:1031A000040000F032FC18F101084FF4827000FBBB
:1031B00008F0B042C2D3B8F1000F04D15046C0B2FB
:1031C000FFF734FC09E0A0694FF4827101FB0800AD
:1031D000A0614FF4827000FB08F007B0BDE8F08FEB
:1031E00070B582B00C00C068FFF700FC0500002D30
:1031F00002D57FF001001CE04FF4807001F04EF822
:103200000600002E02D17FF00B0012E000942B008C
:10321000BF4A4FF48071300000F0B1FE3000FEF77D
:1032200087FE0400300001F025FA2000C0B2FFF74D
:10323000FDFB76BDF8B50C001500C068FFF7D6FBA6
:103240000700002F02D57FF001001DE04FF48070D1
:1032500001F024F80600002E02D17FF00B0013E0ED
:1032600000943B00AA4A4FF48071300000F087FEC2
:1032700029003000FEF7BCFF0400300001F0FAF92D
:103280002000C0B2FFF7D2FBF2BD2DE9F04F93B0A2
:103290000D001400C068FFF7A9FB0600002E02D540
:1032A0007FF001007CE04FF4807000F0F7FF070032
:1032B000002F02D17FF00B0072E000953300944A9A
:1032C0004FF48071380000F05AFE01A93800FEF773
:1032D0007DFD0500380001F0CDF9EDB2002D5BD188
:1032E0000020206048F2B610A0809DF80C00C006B7
:1032F00009D5A0884004400CA080A08840F48040FC
:1033000050F04900A0809DF80C00C00704D5A088AB
:103310004FF66D710840A0800198A0604FF40070D6
:103320002061BDF8080080B210F01F0680B240098D
:1033300080B210F00F0780B2000980B210F07F0059
:1033400000F2BC700090BDF80A0080B210F01F01BE
:103350005FEA410880B2400980B210F03F0980B2B4
:10336000800980B210F01F0A2C2100220DF11C0BE5
:10337000584601F071FA0098A0F26C700C90781E1B
:103380000B900A96CDF824A0CDF82090CDF81C80A3
:1033900007A801F0ABFAE0602800C0B2FFF746FBD7
:1033A00013B0BDE8F08F80B5624801F007FB002044
:1033B00002BD002070470020704738B514001D0082
:1033C000484AC0B252F82000EDB22B000A0021009A
:1033D00000F0E4F9EDB2A84201D1002000E00120A4
:1033E00032BD38B514001D003E4AC0B252F820006C
:1033F000EDB22B000A00210000F0FEF9EDB2A84268
:1034000001D1002000E0012032BD30B589B01400A8
:10341000344AC0B252F82050002D01D1012048E0BA
:10342000C9B2012910D10C22002103A800F076FABC
:1034300003AA1021280000F00DFA039820600398D9
:10344000002835D1012034E0C9B202290CD10C2268
:10345000002106A800F062FA06AA1021280000F058
:10346000F9F90798208023E0C9B203290FD10C2273
:10347000002100A800F052FA00AA1021280000F054
:10348000E9F902980199B0FBF1F0206010E0C9B2AF
:10349000002905D100221121280000F0DBF907E006
:1034A000C9B2042904D122001221280000F0D2F967
:1034B000002009B030BD002070471CB50C00C0B220
:1034C00003001D4A082100A800F059FD002100A8B2
:1034D00001F04BFE002802D02060012000E0002017
:1034E00016BD0000C80C002004A20208ACFA0208B5
:1034F0000CED02081CED02081CBD02083CB10208DC
:103500002CED02083CED02084CED02085CED0208CF
:10351000B4FA02086CED02087CED02088CED02089A
:103520009CED0208ACED0208BCED0208CCED0208EF
:10353000D4DE020848A20208BCFA020880B50028BE
:1035400001D001F04DFE012002BD80B54FF47A712B
:1035500001F084FE002801D1012000E0002002BD1E
:1035600080B501F043FF01BD70B504000D001600E9
:10357000002C02D15FF0FF3010E0280000F031F89D
:10358000002802D05FF0FF3008E02A000721200069
:1035900002F046FEE6820020A076002070BD70B5E5
:1035A000DFF82843656804E0F08A50F01000F082EC
:1035B0002D68201D854212D0B5F10C06716A0800F5
:1035C0000028F5D0B07DC006F2D43000884700282E
:1035D000EAD002003100BE4800F0F5FCE8E7002028
:1035E00070BDF8B5040002F0EDFF002801D003F033
:1035F0000BFBB64F7E6800E03668381D864210D05F
:10360000B6F10C0508222100280000F016FA002867
:10361000F2D102F0D7FF002801D003F000FB280010
:1036200006E002F0CFFF002801D003F0F8FA0020F6
:10363000F2BD38B504000025002C0CD100208DF817
:103640000000B423A34A9F499F4800F0BCFC9DF8AA
:1036500000000028FBD0606A002812D0A07DC006C0
:103660000FD42000616A88470500002D05D02A008C
:103670002100974800F0A7FC03E0E08A50F010001A
:10368000E082280032BD70B582B004000D00002633
:10369000002C0CD100208DF80000D7238E4A8949D8
:1036A000894800F090FC9DF800000028FBD0A07D28
:1036B000C00613D4606A00280CD02000616A8847D5
:1036C0000600002E06D032002100814800F07BFC6D
:1036D000300031E0E08A50F01000E082A07D000769
:1036E00005D5207E000702D57FF0060024E0A07EED
:1036F000401CA076A07E00280CD100208DF8000090
:10370000F523754A7549704800F05DFC9DF800008E
:103710000028FBD0A06A002805D0290089B220002B
:10372000A26A90470600002E02D016F1060F02D1C1
:1037300055F008002083300076BD38B50400002520
:10374000002C0DD100208DF800004FF48873644ADE
:103750005C495D4800F037FC9DF800000028FBD074
:10376000A07E002802D15FF0FF3016E0A07E401E50
:10377000A076A07E002801D000200EE0E06A00289C
:1037800003D02000E16A88470500002D02D015F122
:10379000060F01D100202083280032BDF8B50400B7
:1037A0000D0016001F00002C0DD100208DF8000028
:1037B00040F239134B4A4349434800F004FC9DF85A
:1037C00000000028FBD0A07E002805D15FF0FF306C
:1037D00000F090F800200EE0206B002806D03B009F
:1037E000320029002000246BA04704E07FF0050090
:1037F00000F080F80020F2BDF8B504000D001600BE
:103800001F00002C0DD100208DF8000040F25F1346
:10381000354A2C492C4800F0D6FB9DF800000028C2
:10382000FBD0A07E002805D15FF0FF3000F062F8E9
:1038300000200EE0606B002806D03B00320029001B
:103840002000646BA04704E07FF0050000F052F810
:103850000020F2BD70B582B004000D001600002CEF
:103860000DD100208DF8000040F27F131F4A15494A
:10387000154800F0A8FB9DF800000028FBD0A06BC5
:10388000002806D032002900C9B22000A36B984757
:1038900000E0002076BD38B504000D00002C0DD1ED
:1038A00000208DF800004FF4CC73114A05490648FA
:1038B00000F089FB9DF800000028FBD0E5610020A6
:1038C00032BD00009CEC0208DCBC02084C01002068
:1038D0003CA50208ACEC0208BCEC020884DE02083D
:1038E000CCEC0208DCEC0208ECEC020898DE0208E2
:1038F000B8C8020810B5040003F0DEF9002803D0B0
:10390000DFF86007046008E002F05CFE002803D1E5
:10391000DFF85007046000E0046310BD10B403003A
:10392000CCB2042A1DD310F00301002919D10300E1
:1039300054EA042151EA014108E019601B1D196095
:103940001B1D19601B1D19601B1D103A102AF4D293
:10395000042A03D319601B1D121FF9E701E01C7034
:103960005B1C11004A1E0029F9D110BC704730B40D
:103970000300102A27D311F0030413F003052C438E
:10398000002C20D110E00C681C60091D1B1D0C6868
:103990001C60091D1B1D0C681C60091D1B1D0C688B
:1039A0001C60091D1B1D103A102AECD2042A05D3F5
:1039B0000C681C60091D1B1D121FF7E703E00C7843
:1039C0001C70491C5B1C1400621E002CF7D130BC1B
:1039D000704710B40300994211D25418A3420ED27A
:1039E000D31851181400621E002C0CD05B1E491E07
:1039F0000C781C70F6E70C781C70491C5B1C1400DA
:103A0000621E002CF7D110BC704710B4002A12D0EF
:103A100003000C78491C1C705B1CE4B2002C07D11D
:103A2000521E002A03D0002119705B1CF8E702E047
:103A3000521E002AEDD110BC704710B4002300E0E4
:103A4000521E002A0DD090F9003091F900401B1B46
:103A5000491C5BB2002B04D10400601C2478002CAC
:103A6000EED15BB2180010BC704701E0401C491C4D
:103A70000278002A03D002780B789A42F6D00078B8
:103A80000978401A7047010000E0491C0A78002AB2
:103A9000FBD1081A704770B504002000FFF7F3FF50
:103AA000451C280000F0FAFB0600002E01D1002082
:103AB00005E02A0021003000FFF759FF300070BDFB
:103AC00080B5DFF8A40500F07EFADFF8A00500F06D
:103AD0007AFADFF89C050090012302220121DFF829
:103AE000940500F070FADFF8900500F06CFA01BD63
:103AF0000A290BD101680A22B1FBF2F302FB131170
:103B000002680A23B2FBF3F2026008E002681023A5
:103B1000B2FBF3F101FB13210268120902600800F5
:103B20007047002107E00268531C03600A231278E3
:103B300003FB0121303902681278303A0A2AF2D3A5
:103B4000080070472DE9FC4F85B004000D00109E61
:103B5000DDF848805FEA486002D5DFF8207501E0B3
:103B6000DFF81C755FEAC86001D538F001085FEA2C
:103B7000C87002D55FF0300901E05FF020095FF006
:103B8000000A5FEA887013D50598002805D55FF014
:103B90002D0A0598404205900AE05FEA487002D578
:103BA0005FF02B0A04E05FEA087001D55FF0200A9D
:103BB0005FF0000B0598002810D1302000A90BF809
:103BC00001001BF1010B0CE0069905A8FFF790FF1F
:103BD000C05D00A90BF801001BF1010B059800283E
:103BE000F2D11198584500DA5846361A18F0110FDC
:103BF00011D15FFA8AFABAF1000F08D0012E06DB64
:103C0000761E04E0A54201D320212170641C3100FE
:103C10004E1E0129F6DA5FFA8AFABAF1000F05D0D2
:103C2000A54202D384F800A0761E641C5FEAC86136
:103C300009D404E0A54201D384F80090641C31004B
:103C40004E1E0129F6DA0100481E8B450CDAA5420A
:103C500001D330212170641CF5E7A54203D300A8ED
:103C60001BF800002070641C5846B0F1010B0128BD
:103C7000F3DA3000461E012805DBA54201D32020DF
:103C80002070641CF5E7200007B0BDE8F08F2DE937
:103C9000F44F84B005001E002F004819B0F1010850
:103CA000A84518D25FF0FF38B8EB050113E0326881
:103CB000361D5FEA89705FFA89F9CDF808900194A2
:103CC000CDF800A0DBB241463800FFF73BFF07000C
:103CD0000498401C049004980078002800F0438168
:103CE00004980078252806D0B84502D304980078B7
:103CF00038707F1CECE75FF0000901E059F0100913
:103D00000498401C0490049800782D28F6D004985C
:103D100000782B2802D159F00409F1E704980078C3
:103D2000202802D159F00809EAE7049800782328EE
:103D300002D159F02009E3E704980078302802D135
:103D400059F00109DCE75FF0FF3A04980078303859
:103D50000A2804D204A8FFF7E4FE824610E0049883
:103D600000782A280CD10498401C0490D6F800A0B2
:103D7000361DBAF1000F03D5DAF1000A59F0100927
:103D80005FF0FF34049800782E2818D10498401C66
:103D900004900498007830380A2804D204A8FFF769
:103DA000C0FE040008E0049800782A2804D1049892
:103DB000401C04903468361D002C00D500240020DF
:103DC00004990978682903D0049909786C2904D1E9
:103DD000049800780499491C04910A2304990978ED
:103DE000252900F08780582900F09580632913D099
:103DF000642900F09480692900F091806F2900F017
:103E00007F8070295FD0732926D0752900F08980C2
:103E1000782900F0828085E05FEAC9600AD404E076
:103E2000B84501D3202038707F1CBAF1010ABAF1DD
:103E3000010FF5DA3068361DB84500D338707F1CA5
:103E400004E0B84501D3202038707F1CBAF1010A84
:103E5000BAF1010FF5DA3BE7D6F800B0361DBBF139
:103E6000000F01D1DFF81CB25846FFF70CFE012C01
:103E700002DB844200DA20005FEAC9610AD404E070
:103E8000B84501D3202139707F1C5146B1F1010A98
:103E90008842F5DB002108E0B84502D39BF80020FA
:103EA0003A707F1C1BF1010B491C8142F4DB514627
:103EB000B1F1010A884205DAB84501D320213970F1
:103EC0007F1CF4E704E71AF1010F03D15FF0080A41
:103ED00059F001093268361D5FFA89F9CDF808906A
:103EE0000194CDF800A0102341463800FFF72AFEC8
:103EF0000700EDE6B84501D3252038707F1CE7E6C2
:103F00000823C0B26C2821D13268361D5FEA89705F
:103F10007FF5D1AECFE659F040091023F1E759F013
:103F20000209EEE7B84501D3252038707F1C0498BC
:103F30000078002806D0B84502D30498007838707D
:103F40007F1C02E00498401E0490C1E6C0B26828BD
:103F50007FF4ADAE3268361D92B25FEA89707FF5AC
:103F6000AAAE12B2A7E6B84502D30020387002E02C
:103F7000002088F80000781B05B0BDE8F08F08B479
:103F800000B501ABFFF783FE5DF808FB3E48006813
:103F9000704738B53C490D68FFF723FB0400002C3F
:103FA0000ED039480068002803D037480068FFF772
:103FB000C4FB35480460032133480068FFF763FB06
:103FC000280032BD70470EB418B503AB02007F2144
:103FD0002E48FFF75CFE802800D37F202A4909681D
:103FE000002903D12948FFF7EDFF14E026490968AD
:103FF000CC8A25490968C98A51F04001224A1268D1
:10400000D1820300214A00211F480068FFF7F4FB1A
:104010001D480068C48211BC5DF810FB002801D166
:1040200000201CE0010604D01949C0B2405C401CCD
:1040300015E010F47F4F05D01549C0F30720405C10
:1040400009300CE010F47F0F05D01149C0F3074090
:10405000405C113003E00E49000E405C193070479F
:1040600000000000201F0020DCF70208B0B70208A3
:10407000E8F702083CBF02085CAD020844E202080F
:1040800030E20208BCFB0208241F0020281F002089
:104090004095020810B582B00400DFF844070068BC
:1040A00084420FD200208DF800008D23DFF83427E2
:1040B000DFF83417DFF83407FFF785FF9DF80000BD
:1040C0000028FBD0DFF82807006884420FD30020C7
:1040D0008DF800008E23DFF80C27DFF81817DFF8C3
:1040E0000C07FFF770FF9DF800000028FBD06088E8
:1040F00000280FD000208DF800008F23DFF8E42681
:10410000DFF8F416DFF8E406FFF75DFF9DF8000026
:104110000028FBD0DFF8C8060068616808188442F0
:104120001BD04188002918D1DFF8C41609688842DD
:1041300013D0DFF8C8160968814202D1DFF8BC1637
:104140000C6041686160DFF898160968611ADFF851
:1041500090261268406880188160DFF88406006845
:10416000A1680818A04216D04188002913D1DFF8B1
:104170008C160968A14202D1DFF8801608606168D8
:104180004160DFF85C160968401ADFF854160968C8
:1041900062685118886013BD2DE9F04182B00400B7
:1041A0000D00E01DC608F600EF08FF0002F08AFDD2
:1041B000804602F081FD002814D0DFF84416DFF8B5
:1041C0004406FFF700FF00208DF80000BE23DFF853
:1041D000302631A1DFF81406FFF7F5FE9DF8000048
:1041E0000028FBD0404602F071FD212F4CD3B7F1DF
:1041F0002000B04248D3B81B2038DFF80C16086006
:10420000DFF8DC050660DFF8D80500684FF4F551EB
:104210000180DFF8F41509681031416000218160E8
:1042200000214180DFF8B815096840684018DFF8C0
:10423000C01508604FF4F550DFF8B4150968088020
:104240000120DFF8AC1509684880DFF8BC0500687C
:104250001030DFF89C1509684860DFF8AC0500688D
:104260001030DFF88C150968886000230122DFF820
:104270009C15DFF89C0500F0CCFDDFF864050068B4
:10428000DFF87815086005E02A002100DFF88405D2
:10429000FFF799FEBDE8F3813000000038B5040057
:1042A00002F010FD050002F007FD002814D0DFF831
:1042B0006815DFF85005FFF786FE00208DF8000036
:1042C000FB23DFF85425A0A1DFF82005FFF77BFED4
:1042D0009DF800000028FBD0280002F0F7FC002C1D
:1042E00001D100202EE1E01DC008C0008442FFD1B2
:1042F000E01DC408E400DFF810050068A04201D208
:1043000000201FE1102C00D210245FF0FF31DFF8F5
:10431000000500F031FEDFF8E4040068DFF8C014A7
:104320000968401A04E0DFF8B814096840184068CA
:10433000DFF8D4140968091B884280F0FE80DFF89A
:10434000A0140968451869880029ECD16968091A20
:104350001039A142E7D36968091A103914F1200213
:10436000914232D321181031DFF8742412688A1870
:10437000002353806B6853609060696001206880FF
:104380005068DFF884341B681033984205D0DFF89A
:1043900050040068526810188160DFF880040068DB
:1043A00014F110010818DFF874140860DFF87004C5
:1043B0000068DFF868140968884223D2DFF85C04DB
:1043C0000068DFF85C1408601CE001206880DFF8FA
:1043D0004C04006869680818401BDFF80414096879
:1043E0000818DFF838140860DFF834040068DFF8D4
:1043F0002C140968884205D2DFF820040068DFF831
:10440000201408604FF4F5502880DFF8F0030068AE
:10441000854238D10AE0DFF8C8030068DFF8DC1312
:10442000096849680818DFF8D4130860DFF8CC037E
:1044300000684088002807D0DFF8C0030068DFF874
:10444000B01309688842E6D1DFF8B0030068DFF8EE
:10445000A0130968884216D0DFF8A00300684088DE
:10446000002810D000208DF800004FF4AF73DFF863
:10447000A823DFF8B013DFF87403FFF7A4FD9DF85D
:1044800000000028FBD0DFF8880300F018FEDFF8FA
:104490006003006861191031884210D200208DF845
:1044A00000004FF4B173DFF87023DFF87C13DFF8FE
:1044B0003C03FFF788FD9DF800000028FBD015F1B4
:1044C00010000821B0FBF1F202FB1102002A10D00B
:1044D00000208DF8000040F26313DFF83C23DFF882
:1044E0004C13DFF80803FFF76EFD9DF8000000286D
:1044F000FBD015F00700002810D000208DF8000038
:104500004FF4B273DFF81023DFF82413DFF8DC0276
:10451000FFF759FD9DF800000028FBD0DFF8B80236
:104520000068002806D0210015F11000DFF8A8224D
:104530001268904715F1100004E0DFF8D40200F093
:10454000BEFD002032BD000030000000F8B50400C0
:104550000D0002F0B7FB060002F0AEFB002813D0FE
:10456000DFF8D012A748FFF72EFD00208DF80000DD
:104570004FF4C473DFF8BC228DA19C48FFF723FDE4
:104580009DF800000028FBD0300002F09FFBE81DE2
:10459000C508ED009C480068A84201D2002068E0F0
:1045A000002C03D12800FFF779FE62E05FF0FF31B5
:1045B000974800F0E1FC8A480068844203D38C48A5
:1045C0000068844204D3924800F079FD200050E056
:1045D000B4F11001824800680A1A4868801AB0F1E4
:1045E0001006AE4204D18A4800F069FD200040E088
:1045F00015F11C00B04226D288480068801B28189C
:10460000864B1860A81810F1100375480068181838
:104610004FF4F5550580002545804D684560826062
:104620004B604168784A12681032914204D06C495C
:104630000968426851188B60FFF72CFD744800F040
:104640003EFD200015E0724800F039FD2800FFF71C
:1046500025FE0700002F0BD0AE4201D23500FFE748
:104660002A0021003800FFF782F9200000F002F84C
:104670003800F2BD38B5040002F024FB050002F05A
:104680001BFB002811D06C495E48FFF79CFC002002
:104690008DF800004FF4FE73674A45A15348FFF7B9
:1046A00092FC9DF800000028FBD0280002F00EFBD1
:1046B000002C7BD014F0070000280DD000208DF8CE
:1046C00000004FF400735C4A5C494848FFF77BFCEC
:1046D0009DF800000028FBD041480068844203D3C5
:1046E0004348006884420DD300208DF8000040F25A
:1046F0000223514A52493D48FFF765FC9DF80000EE
:104700000028FBD035480068002803D0200033493A
:104710000968884732480068844203D334480068F7
:10472000844200D342E0103C5FF0FF31384800F093
:1047300023FC608800280DD100208DF8000040F295
:104740001B233D4A3F492948FFF73DFC9DF80000E7
:104750000028FBD02088B0F5F55F0DD000208DF843
:1047600000004FF40773344A37492048FFF72BFC09
:104770009DF800000028FBD00020608000202080F1
:104780001E480068844201D21C4804602348006827
:104790006168401A201812490968401A1F490860C8
:1047A0002000FFF777FC1A4800F089FC31BD0000BB
:1047B0003000000080B5144801682448FFF703FC6E
:1047C000164801682248FFF7FEFB1548016821489A
:1047D000FFF7F9FB01BD0000E81F0020EC1F0020DF
:1047E000F01F002018F80208BCBF02089CBF020896
:1047F000F41F002088AD02083CF10208F81F0020D9
:10480000D0E20208D4B702081C200020D4FB020822
:10481000FC1F002010A4020824F802082020002019
:104820002420002004B20208F0A00208CC9F020855
:104830008CA9020830F80208DCFB0208BCA90208B7
:10484000449902083CF8020808CA0208E4E2020897
:10485000F8E20208DCBF020862F30F2262F31F4293
:10486000401810F0030308D0C91A1FD3DB0748BF54
:1048700000F8012D28BF20F8022D130030B4144693
:104880001546103928BF20E93C00FAD8490728BF4F
:1048900020E90C0048BF40F8042D890028BF20F80B
:1048A000022D48BF00F8012D30BC7047C91818BF51
:1048B00000F8012DCB0728BF00F8012D704710B478
:1048C00050F8041B81B102681218001D50F8043B17
:1048D000DC0744BFA9F10104E31852F8044B43F884
:1048E000044B091FF9D1EBE710BC70472DE9F041EB
:1048F00004460C21206990FBF1F202EB4201B0EB7F
:10490000810144BF0C31521E002A47D56069C2F1B3
:10491000004398424ADB60691518284602F050FAB5
:1049200040F26D1808FB0500A168E568626823681D
:10493000DFF880C0DFF87CE018274FF4B46691FB05
:10494000F7F7281892FBF6F6381893FBFCFC3018A2
:104950006044194D281807EB4705A1EBC5014FF43A
:10496000616569430EFB00104FF4B46101FB162131
:10497000C1EB011200EB820018180EFB1C05226A25
:104980002946204602F039FA206A0128A8BFA5F579
:10499000616502F0D9FA281ABDE8F081012ABADB74
:1049A0006FF000406369801A9842B4DA4FF0FF302C
:1049B000BDE8F08180510100209CFFFFF8B50400A4
:1049C0000025002602F026FBDFF85C7302E03E00C3
:1049D00030003F1DDFF8540387420FD238680028AB
:1049E00003D1002EF3D00020F3E721683868006877
:1049F00002F0B0FC0028ECD15FF0FF35002D02D1B1
:104A0000002E00D0346002F01BFB2800F2BD2DE91F
:104A1000F04104000025002602F0FCFADFF81073D4
:104A200002E03D0046461037DFF80803874221D2F6
:104A30007868002802D0B868002800D1F3E77868C9
:104A400002F0BAFC8046B04506D3424621007868A1
:104A500002F0CDFC002800D0E5E7B8F1020FE0D36A
:104A6000200002F0A9FC8045DBD218F804002F28B2
:104A7000D7D0D8E702F0E4FA2800BDE8F0812DE9AC
:104A8000F04788B00C0092461D005FF00009002737
:104A9000002805D15FF0000802F0BCFAA24E0DE03C
:104AA000FEF79FFD8046B8F1000FF5D17FF01200B0
:104AB000FEF720FF5FF0FF307CE0361D9B4886420A
:104AC00008D2002EF9D051463068006802F042FC4E
:104AD0000028F2D102F0B4FA9448864206D17FF061
:104AE0001200FEF707FF5FF0FF3063E03068002838
:104AF00003D030688068002806D17FF02500FEF7DB
:104B0000F9FE5FF0FF3055E02100002002F05DFB70
:104B10000700002F06D17FF01300FEF7EBFE5FF0D9
:104B2000FF3047E07FA1380002F014FC00281AD0C3
:104B30008149380002F00EFC002814D05FF4001206
:104B4000390000A802F068FC002809D53800FFF7FA
:104B500091FD7FF01300FEF7CDFE5FF0FF3029E0FE
:104B600000A802F0C7FC02F055FADFF8C4A103E088
:104B7000D14648461AF1100A6E4882451DD2DAF82D
:104B80000800002804D1B9F1000FF1D00020F1E7AE
:104B90002100DAF8040002F0DDFB0028EAD17FF002
:104BA0001500FEF7A7FE02F04BFA3800FFF762FD92
:104BB0005FF0FF3008B0BDE8F087B9F1000F07D112
:104BC0005C48824504D17FF01B00FEF793FEEAE7C4
:104BD000C9F804703068C9F80800C9F8008002F00C
:104BE0002FFAB8F1000F0ED00321D9F80000FEF71C
:104BF0004AFD002807D002F00DFA10220021484695
:104C0000FEF78CFECFE7109A2900484633689B6870
:104C1000984700280ED5B8F1000F03D0D9F800004E
:104C2000FEF78BFD02F0F6F9102200214846FEF750
:104C300075FEB8E70020BDE770B505000800002448
:104C4000002802D0FEF7CDFC0400002C06D17FF036
:104C50001200FEF74FFE5FF0FF302FE002F0DAF9AE
:104C6000002600E0761C042E0DDA2F4850F82600AE
:104C70000028F7D029002C4850F82600006802F0E0
:104C800069FB0028EED102F0DBF9042E10DA264889
:104C900050F826100869002806D17FF02500FEF79D
:104CA00029FE5FF0FF3009E020000969884705E030
:104CB00029002248FFF787F95FF0FF3070BD000040
:104CC00010B50C00FFF7A3FE002808D081684969E1
:104CD000002904D0210082685269904701E05FF00A
:104CE000FF3010BD80B5FFF7A7FF01BDE0B500287C
:104CF00000D1002000A9FFF7E3FF002805D01048ED
:104D0000FFF761F95FF0FF300BE00098029948432C
:104D1000800A0021009B029A01000A48FFF753F91C
:104D200000200EBD2F000000F40B0020040C00201A
:104D3000040C0020240C0020ECFA0208C4A602088F
:104D400038DF0208F8A60208406041680160704739
:104D50004268116042684A604160086070470168BB
:104D6000814201D1012000E00020C0B2704780B52F
:104D70001430FFF7E9FF002002BD70B504000D00FC
:104D80001600280001F059FDF6B2002E02D0012EC7
:104D900006D01EE015F114012000FFF7D9FF18E03E
:104DA000266800E03668A6420CD0B6F1140095F8EB
:104DB000351090F835209142F4D215F114011430D9
:104DC000FFF7C6FFA64204D115F114012000FFF73A
:104DD000BFFF002070BD80B50068143801F058FD99
:104DE000002002BD38B504000CE001F06BFF0500A7
:104DF000206814385FF0FF31016301F049FD28009D
:104E000001F064FF2000FFF7AAFF0028EDD000208A
:104E100032BDF8B504000D0016001F00002C0FD1A4
:104E200000208DF80000D823DFF8C429DFF8C4196A
:104E3000DFF8200BFFF7C7F89DF800000028FBD033
:104E40002A000121200001F0EBF92000FFF78FFF7D
:104E5000A68367720020F2BD10B582B00400002C5A
:104E60000FD100208DF80000F523DFF88C29DFF842
:104E70008419DFF8E00AFFF7A6F89DF80000002883
:104E8000FBD014F11400FFF7ADFF200001F0EBF9A7
:104E9000002016BDF8B504000D00160001F012FF49
:104EA000070001F009FF002815D0DFF85019DFF8DE
:104EB0005009FFF788F800208DF8000040F2111328
:104EC000DFF8382992A1DFF88C0AFFF77CF89DF80B
:104ED00000000028FBD0380001F0F8FE210001207E
:104EE00001F0E5F90400002C01D1200005E02000CC
:104EF000FFF73DFFA58366722000F2BD38B50400C0
:104F000001F0E0FE050001F0D7FE002815D0DFF823
:104F10005419DFF8EC08FFF756F800208DF8000070
:104F20004FF49873DFF83C2979A1DFF8280AFFF7DE
:104F30004AF89DF800000028FBD0280001F0C6FECA
:104F4000002C10D100208DF800004FF49973DFF889
:104F50001429DFF8A018DFF8FC09FFF734F89DF8F2
:104F600000000028FBD014F11400FFF73BFF2000E5
:104F700001F0E5F9002032BDF2B582B00400002C4A
:104F800010D100208DF8000040F24D13DFF82429E5
:104F9000DFF86018DFF8BC09FFF715F89DF800008E
:104FA0000028FBD0DFF810090068002804D020009A
:104FB000DFF804190968884701F084FE0500A08B1A
:104FC000002811D0A08B401EA083280001F07EFE97
:104FD000DFF884090068002804D02000DFF8781981
:104FE000096888470020FEBD0298002805D12800E6
:104FF00001F06CFE7FF00100F5E701F063FE0600B2
:1050000001F0E0FA002815D1DFF8A818DFF84C0904
:10501000FEF7D9FF00208DF8000040F26D13DFF895
:1050200094283BA1DFF82C09FEF7CDFF9DF8000086
:105030000028FBD001F046FE070001F03DFE0028ED
:1050400015D0DFF87018DFF8B807FEF7BCFF0020B6
:105050008DF8000040F26D13DFF858282CA1DFF81E
:10506000F408FEF7B0FF9DF800000028FBD03800E0
:1050700001F02CFE300001F029FE01F0A3FA060039
:1050800000203063627A310014F11400FFF775FEDE
:105090000298012809DB02AA002116F14C0002F057
:1050A000CFFE16F14C0002F001FE280001F00EFECA
:1050B00001F015FD306B00288AD0306B93E770B596
:1050C0000400DFF8640A0068002804D02000DFF83C
:1050D000581A09688847002601F0F4FD050014F10C
:1050E0001400FFF73CFE002805D114F11400FFF76F
:1050F00072FE012602E0A08B401CA083280001F074
:10510000E5FD012E01D101F0EAFC002070BD000098
:105110003000000070B582B004000E001500002CB5
:1051200010D100208DF8000040F20F23DFF8302866
:10513000DFF83018DFF8F409FEF745FF9DF80000AE
:105140000028FBD032000221200001F069F8200085
:10515000FFF70DFE0120A08300202062FF20A07732
:105160000020E0776572002076BD70B582B0050042
:105170000C0001F0A7FD060001F09EFD002815D0EF
:10518000DFF8AC19DFF87806FEF71DFF00208DF878
:10519000000040F24923DFF8982993A1DFF88C0939
:1051A000FEF711FF9DF800000028FBD0300001F051
:1051B0008DFD2900022001F07AF80500002D01D1B3
:1051C00028000CE02800FFF7D2FD0120A883002072
:1051D0002862FF20A8770020E8776C72280076BD4F
:1051E00038B5040001F06EFD050001F065FD0028F2
:1051F00015D0DFF84019DFF80806FEF7E4FE0020BE
:105200008DF8000040F26A23DFF8282976A1DFF844
:105210001C09FEF7D8FE9DF800000028FBD02800EE
:1052200001F054FD002C10D100208DF800004FF447
:105230001B73DFF80029DFF82C17DFF8F008FEF702
:10524000C2FE9DF800000028FBD014F11400FFF707
:10525000C9FD200001F073F8002032BD73B50400D1
:1052600001F030FD050001F0ADF9002815D1DFF89F
:10527000C818DFF8E806FEF7A6FE00208DF800004B
:105280004FF42273DFF8B02857A1DFF8C806FEF705
:105290009AFE9DF800000028FBD001F013FD0600E7
:1052A00001F00AFD002815D0DFF88C18DFF8500552
:1052B000FEF789FE00208DF800004FF42273DFF81E
:1052C000782849A1DFF88C06FEF77DFE9DF80000E6
:1052D0000028FBD0300001F0F9FC280001F0F6FCBA
:1052E000002C10D100208DF8000040F28A23DFF856
:1052F0004828DFF87016DFF85C06FEF764FE9DF8BC
:1053000000000028FBD001F0DDFC050001F05AF997
:105310000600DFF8A4050068002804D02000DFF8AC
:1053200098150968884700203063206AB04203D18D
:10533000E07F401CE07746E0A08B00280AD0A08BDD
:10534000401EA083266296F83500A077E07F401CBF
:10535000E07738E00198002808D17FF00100306341
:10536000280001F0B3FC7FF001003AE096F8350028
:10537000216A91F83510884205D216F135020221D2
:10538000206A01F012FA627A310014F11400FFF77A
:10539000F4FC0198012809DB01AA002116F14C0058
:1053A00002F04EFD16F14C0002F080FC280001F0E6
:1053B0008DFC01F094FB306B002801D0306B10E0C5
:1053C00001F080FC0500280001F080FCDFF8880572
:1053D0000068002804D02000DFF87C1509688847A1
:1053E000002076BD0000000030000000F8B5040089
:1053F000002501F067FC060001F0E4F8002815D153
:10540000DFF83019DFF85405FEF7DDFD00208DF8D8
:10541000000040F20D33DFF81C2952A1DFF83405FB
:10542000FEF7D1FD9DF800000028FBD001F04AFCFA
:10543000070001F041FC002815D0DFF8F818DFF86C
:10544000C003FEF7C0FD00208DF8000040F20D33D0
:10545000DFF8E02843A1DFF8FC04FEF7B4FD9DF877
:1054600000000028FBD0380001F030FC300001F0D3
:105470002DFC01F0A7F8060001F024FC0700DFF87E
:10548000A8060068002804D02000DFF89C160968F0
:105490008847206A864208D05FF0FF3030633800CA
:1054A00001F014FC5FF0FF3036E0E07F401EE07753
:1054B000E07F002828D1A07F216A91F8351088422A
:1054C00005D014F11E020221206A01F06EF914F1D8
:1054D0001400FFF744FC00280FD16069B0F11406F6
:1054E000266296F83500A077E07F401CE07714F143
:1054F0001400FFF770FC012506E0A08B401CA08380
:1055000000202062FF20A077380001F0DFFB012D92
:1055100001D101F0E4FA0020F2BD70B582B00400C0
:105520000D001600002C10D100208DF8000040F274
:105530007B33DFF8D028DFF8D018DFF8F005FEF76E
:1055400042FD9DF800000028FBD02A000321200026
:1055500000F066FE66722000FFF709FC0020E061A3
:10556000002076BD30000000F8B504000D00002CCE
:1055700010D100208DF8000040F2EF33DFF8102941
:10558000DFF88418DFF8CC03FEF71DFD9DF800005E
:105590000028FBD0002D02D15FF0FF304FE0002645
:1055A000DFF884050068002804D02000DFF87815B3
:1055B0000968884701F086FB0700E0692843E0613D
:1055C00014F11400FFF7CBFB002830D165691AE015
:1055D00090F84020920708D5C26BE3691A4204D0C4
:1055E000C16BE2691140C16300212D6800290AD115
:1055F00090F84010490703D5E169C26B9143E1611E
:1056000001F046F9012614F1140085420FD0B5F1DE
:1056100014005FF0FF3190F84020D207D8D5C26B5C
:10562000E3691A40C36B9A42DFD10021DDE73800FD
:1056300001F04CFB012E01D101F051FA0020F2BD26
:105640002DE9FC4704000D00160001F03BFB0700AC
:1056500000F0B8FF002813D1DFF85419BF48FEF757
:10566000B2FC00208DF8000040F24F43DFF84029E3
:105670008FA1B848FEF7A7FC9DF800000028FBD0DA
:1056800001F020FB804601F017FB002813D0DFF863
:1056900020195B48FEF797FC00208DF8000040F2CF
:1056A0004F43DFF80C2982A1AA48FEF78CFC9DF835
:1056B00000000028FBD0404601F008FB380001F054
:1056C00005FB002C0FD100208DF8000040F2524362
:1056D000DFF8DC28DFF830179E48FEF774FC9DF8F1
:1056E00000000028FBD0002D02D15FF0FF307DE0EC
:1056F0005FF0FF3700F066FF80460020C8F83000FA
:105700006D480068002803D020006B49096888476D
:1057100001F0D8FA8146F00705D5E0692840A84293
:1057200017D1002715E0B00704D5E069284210D052
:1057300000270EE000208DF800004FF48E63DFF8A4
:1057400070285BA18348FEF73EFC9DF8000000280E
:10575000FBD0DDF828A0002F09D1E0692840CAF865
:105760000000700735D5E069A843E06131E0019899
:10577000002804D17FF00100C8F8300029E0C8F803
:105780003C5088F84060627A414614F11400FFF7FB
:10579000F4FA0198012809DB01AA002118F14C0054
:1057A00002F04EFB18F14C0002F080FA484601F07E
:1057B0008DFA01F094F9D8F83000002802D0D8F81A
:1057C000300013E001F07EFA8146D8F83C00CAF8B8
:1057D0000000484601F07AFA5F480068002803D0CC
:1057E00020005D4909688847D8F83000BDE8F68791
:1057F00088F70208FCEF02080CF002081CF002080F
:105800008CB70208F8B504000D0016001F00002C2C
:1058100010D100208DF8000040F2EB43DFF898270C
:10582000DFF89817DFF89809FEF7CDFB9DF8000028
:105830000028FBD02A000421200000F0F1FC06988B
:1058400060722000FFF793FAE661278400206084ED
:105850000020A0840020E08414F12800FFF774FAEF
:105860000020F2BD2CF0020810B582B00400002C1C
:1058700010D100208DF8000040F20E53DFF83429DB
:10588000DFF83817DFF83809FEF79DFB9DF80000B8
:105890000028FBD014F11400FFF7A4FA14F128003B
:1058A000FFF7A0FA200000F0DEFC002016BD00008B
:1058B0003000000094F7020898200020F8B504009A
:1058C0000D00160001F0FEF9070001F0F5F90028BF
:1058D00015D0DFF8E418DFF8E408FEF774FB0020C9
:1058E0008DF8000040F22A53DFF8CC288DA1DFF8B4
:1058F000D008FEF768FB9DF800000028FBD03800B8
:1059000001F0E4F92100042000F0D1FC0400002C97
:1059100001D120001CE066722000FFF728FA2584E0
:10592000208C8000FEF7BAFCE061E069002804D119
:10593000200000F004FD00200AE000206084002028
:10594000A0840020E08414F12800FFF7FDF9200076
:10595000F2BD00001CBF02089C200020ACA502087C
:105960003CF00208E0E102082DE9F64704000D00D2
:10597000002C10D100208DF8000040F28553DFF894
:105980004828DFF83816DFF83808FEF71CFB9DF8CA
:1059900000000028FBD05FF0000800F013FE0600B6
:1059A00061480068002803D020005F4909688847E3
:1059B00001F088F90700608C218C88421BD1019886
:1059C000002818D1380001F081F97FF00200A7E02B
:1059D00001F078F90700019801280CDB02F0CBFAFE
:1059E000B0EB08080198B0EB08000190019800287E
:1059F00001D500200190608C218C88426BD1002061
:105A000030630198002805D1380001F05FF97FF07C
:105A1000020085E001F056F9814600F0D3FD002830
:105A200015D1DFF8A417DFF8A407FEF7CCFA0020A1
:105A30008DF800004FF4B563DFF88C2739A1DFF84B
:105A40008007FEF7C0FA9DF800000028FBD001F0A7
:105A500039F9824601F030F9002815D0DFF86817CF
:105A6000DFF85807FEF7AFFA00208DF800004FF47A
:105A7000B563DFF854272BA1DFF84407FEF7A3FA3C
:105A80009DF800000028FBD0504601F01FF9484661
:105A900001F01CF9627A310014F12800FFF76DF96A
:105AA000019801280CDB02F066FA804601AA002169
:105AB00016F14C0002F0C4F916F14C0002F0F6F8B1
:105AC000380001F003F901F00AF8306B00283FF4C8
:105AD0007FAF306B24E0E069A18C40F82150A08CAE
