:020000040800F2
:10000000184D00200DD80208A59D0208856600083D
:10001000A79D0208A99D0208AB9D020800000000F0
:10002000000000000000000000000000AD9D02087C
:10003000AF9D0208000000001166000887FE01085D
:10004000A1E00208A5E00208A9E00208ADE002086C
:10005000B1E00208B5E00208B58E0208BDE0020872
:10006000C1E00208C5E00208C9E00208CDE00208CC
:10007000D1E00208D5E00208D9E00208DDE002087C
:10008000E1E00208E5E00208E9E00208EDE002082C
:10009000F1E00208F5E00208F9E00208A1200208F8
:1000A00001E1020805E1020809E102080DE1020888
:1000B00011E1020815E1020819E102081DE1020838
:1000C00021E1020825E1020829E102082DE10208E8
:1000D00031E10208B19D0208C99D02083DE1020814
:1000E000CF8E020845E1020849E102080000000045
:1000F0000000000000000000000000000000000000
:1001000000000000000000004DE1020851E102087B
:1001100055E1020859E102085DE1020861E10208C7
:1001200065E1020869E102086DE1020871E1020877
:1001300075E10208A9E401087DE1020881E10208F5
:1001400085E1020889E102088DE1020891E10208D7
:1001500003E00B780370491C401C13005A1E002B4F
:10016000F7D1704701E00170401C13005A1E002BAC
:10017000F9D1704710B400231400621E002C06D081
:1001800003780C781B1B491C401C002BF4D0180072
:1001900010BC704700E0401C0278002A02D00278B0
:1001A0008A42F8D10078704780B5C06803F05DF9E5
:1001B00002BD80B5C9B20C290BD0C9B20B2908D039
:1001C000C9B2092905D0C9B20F2902D0C06803F00D
:1001D00057F901BDF8B504000D00266BAE4231D0D1
:1001E0002079002820D00123320014F134016078F6
:1001F00003F08AF8002801D0012024E000202071BB
:10020000606A216A081886420ED2E77809E0206AFF
:1002100086190123320014F13401607803F074F878
:100220007F1EFFB2022FF2DA002D0BD001232A002D
:1002300014F13401607803F053F8002801D0012054
:1002400001E025630020F2BD38B504000021200044
:10025000FFF7C0FF0500EDB2002D5DD12078032827
:1002600052D1607900284FD0002020634FF40072F3
:10027000002114F13400FFF775FF552084F8320295
:10028000AA2084F83302522084F83400522084F8E3
:100290003500612084F83600412084F83700722050
:1002A00084F81802722084F81902412084F81A0296
:1002B000612084F81B02606984F81C02606980B2C6
:1002C000000A84F81D026069000C84F81E0260694F
:1002D000000E84F81F02206984F82002206980B291
:1002E000000A84F821022069000C84F822022069A7
:1002F000000E84F823020123A26914F1340160780E
:1003000003F002F80020607100220021607803F001
:100310000FF8002800D001252800C0B232BD891E88
:10032000C269921E914201D3002003E08278C06A24
:1003300002FB01007047F8B504000D00022D02D346
:10034000E069854201D3012016E02078012804D01D
:1003500010D3032850D034D30CE02E0016EB5606F1
:10036000606A6189B6FBF1F109182000FFF732FFDE
:10037000002802D05FF0FF30F2BD6089B6FBF0F1DB
:1003800000FB1160001990F83470761C606A618976
:10039000B6FBF1F109182000FFF71CFF0028E9D196
:1003A0006089B6FBF0F100FB1160001990F8340091
:1003B00057EA0027E80701D5380901E03805000DA4
:1003C000DAE7606A6189022291FBF2F1B5FBF1F193
:1003D00009182000FFF7FEFE0028CBD168006189D4
:1003E000B0FBF1F201FB12000019343041780078C3
:1003F00050EA012080B2BFE7606A6189042291FB64
:10040000F2F1B5FBF1F109182000FFF7E3FE002837
:10041000B0D1A8006189B0FBF1F201FB1200001914
:100420003430C1788278120452EA0161427851EA8C
:10043000022100780843000100099DE7F8B5040097
:100440000D001600022D02D3E069854201D302207F
:100450008DE02078012805D0C0F0868003285ED08A
:1004600042D381E02F0017EB5707606A6189B7FB21
:10047000F1F109182000FFF7ADFEC0B2002874D1D9
:100480006089B7FBF0F100FB1170001910F1340125
:10049000E80705D5087810F00F0050EA061000E0D4
:1004A000300008707F1C01202071606A6189B7FBF1
:1004B000F1F109182000FFF78DFEC0B2002854D1D9
:1004C0006189B7FBF1F201FB127109193431EA07B6
:1004D00001D5320906E00A7812F0F002330A13F06F
:1004E0000F031A430A7040E0606A6189022291FB9F
:1004F000F2F1B5FBF1F109182000FFF76BFEC0B275
:10050000002832D169006289B1FBF2F302FB1311BA
:10051000091934310E70B6B2320A4A7025E0606AA9
:100520006189042291FBF2F1B5FBF1F10918200079
:10053000FFF750FEC0B2002817D1A9006289B1FBB5
:10054000F2F302FB131109193431CA78120612F0C2
:10055000704216430E70320092B2120A4A70320C88
:100560008A70320ECA7000E0022001212171C0B2EF
:10057000F2BDF8B504000E00022E02D3E0698642F7
:1005800001D3022527E0002509E0606910F1010F81
:1005900004D06069401C6061012060713E00E06928
:1005A000864218D231002000FFF7C5FE0700002F59
:1005B00011D0012F01D102250DE017F1010F01D15A
:1005C000012508E0002231002000FFF737FF050079
:1005D000EDB2002DD9D02800C0B2F2BDF8B50400AC
:1005E0000E00002E07D12769002F02D0E069874254
:1005F0000DD301270BE031002000FFF79CFE0228FD
:1006000001D2012043E0E169884240D337003D0038
:100610006D1CE069854204D30225AF4201D200205F
:1006200035E029002000FFF786FE00281DD17FF06D
:10063000704229002000FFF701FFC0B2002806D158
:10064000002E04D02A0031002000FFF7F7FEC0B2D0
:10065000002814D12561606910F1010F16D060697E
:10066000401E60610120607110E010F1010F01D0A7
:10067000012800D10BE0BD42CAD1002007E0C0B282
:10068000012802D15FF0FF3500E001252800F2BD0E
:10069000426A121D03685B89B1FBF3F10068807840
:1006A000B1FBF0F001E0401A121D1168121D002983
:1006B00001D1002003E08842F5D211680818704784
:1006C00070B504000D00E580A068012803D0216802
:1006D000C969884201D302205DE0002805D1216864
:1006E0000978032901D12068806A002814D1E060CC
:1006F00020680089ADB2854201D302204BE020681A
:10070000806A21684989202291FBF2F1ADB295FB04
:10071000F1F1081820612EE021684989202291FB1F
:10072000F2F12268927802FB01F600E0AD1BADB257
:10073000B6B2B54210D301002068FFF7FCFD10F1FE
:10074000010F01D1012026E0022803D32168C969E5
:100750008842EBD302201EE0E06001002068FFF732
:10076000DEFD21684989202291FBF2F1ADB295FBB3
:10077000F1F108182061ADB220684089202190FB7A
:10078000F1F095FBF0F100FB1150216811EB4010E6
:1007900034306061002070BDF8B504000E00E088C0
:1007A000451CADB2002D02D02069002801D10420E3
:1007B00097E0ADB220684089202190FBF1F095FBD5
:1007C000F0F100FB115000287AD12069401C206113
:1007D000E068002806D120680089ADB285426FD359
:1007E00004207EE020684089202190FBF1F0ADB22A
:1007F00095FBF0F021688978491E084260D1E168D4
:100800002068FFF798FD0700022F01D2022068E060
:1008100017F1010F01D1012063E02068C069874210
:1008200048D3002E01D104205BE0E1682068FFF787
:10083000D5FE0700002F01D1072052E0012F01D182
:1008400002204EE017F1010F01D1012049E0002103
:100850002068FFF7BFFC002801D0012041E020689C
:100860004289002120683430FFF77CFC3900206881
:10087000FFF755FD21680863002605E02068006B3E
:10088000401C21680863761C20688078F6B2864296
:100890000AD201202168087100212068FFF79AFC24
:1008A0000028EBD001201CE02068006BF6B2801B12
:1008B00021680863E76039002068FFF730FD206198
:1008C000E580ADB220684089202190FBF1F095FBD6
:1008D000F0F100FB1150216811EB401034306061E1
:1008E0000020F2BD38B5040000212000FFF7E8FE2B
:1008F0000500EDB2002D02D02800C0B221E0216930
:100900002068FFF767FC0500EDB2002D17D1606984
:100910000178C9B2002901D1042510E0C17A090784
:1009200005D40B22A169FFF725FC002807D0002180
:100930002000FFF731FF0500EDB2002DDFD02800C9
:10094000C0B232BD10B504000420216900291DD0B9
:1009500021692068FFF73EFCC0B2002816D1626909
:100960001178C9B2002901D104200FE0C9B2E529EC
:1009700005D0C9B22E2902D0D17A090706D50021A7
:100980002000FFF709FFC0B20028DED0C0B2002867
:1009900001D000212161C0B210BD70B5040000215A
:1009A0002000FFF78DFE0500EDB2002D18D1216962
:1009B0002068FFF70FFC0500EDB2002D10D1606933
:1009C0000078C0B2E52802D0C0B2002800D107E00C
:1009D00001212000FFF7E0FE0500EDB2002DE6D07A
:1009E000EDB2002D15D121692068FFF7F3FB05005A
:1009F000EDB2002D0DD16669202200213000FFF7F5
:100A0000B1FB0B22A1693000FFF7A2FB0120216896
:100A100008712800C0B270BD10B50400E188200044
:100A2000FFF74EFEC0B200280CD121692068FFF705
:100A3000D1FBC0B2002805D1E52162691170012106
:100A400022681171C0B210BD2DE9F84F0C00D4F826
:100A500000A001E01AF1010A9AF800102F29F9D03C
:100A60009AF800105C29F5D086690B22202130000D
:100A7000FFF778FB5FF0000B5FFA8BFBD946C846A7
:100A8000082704E05FF008090B275FEA8B0B18F8D2
:100A90000A5018F10108EDB2212D05DBEDB22F2D22
:100AA00002D0EDB25C2D07D118EB0A002060EDB248
:100AB000212D54DA042553E0EDB22E2D01D0B94595
:100AC00006D3082F02D1EDB22E2DDBD0062067E031
:100AD000EDB2802D01DB5BF0030BEDB2812D1FDB4E
:100AE000EDB2FF2D1CD018F80A0018F10108C0B2B1
:100AF000B0F140013F2905D3C0B2802805DBC0B268
:100B0000FF2802D0791E894501D3062048E009F864
:100B1000065019F1010909F8060019F10109B6E7B3
:100B2000EDB22900DFF82006FFF734FB002801D0E2
:100B3000062035E0EDB2B5F141001A2802D25BF093
:100B4000020B07E0EDB2B5F161001A2802D25BF0AA
:100B5000010B203D09F8065019F1010997E700251E
:100B6000B9F1000F01D106201AE03078E52801D153
:100B700005203070082F01D15FEA8B0B5FFA8BFBE9
:100B80001BF00300012801D155F010055FFA8BFB23
:100B90001BF00C00042801D155F00805F572002067
:100BA000BDE8F28F10B411F109020369002B38D0AF
:100BB0004069047B002306E0E4B2052C00D1E52463
:100BC0001470521C5B1C082B03D21C5CE4B2202C5A
:100BD000F2D1037A202B0DD02E231370521C082340
:100BE00002E01470521C5B1C0B2B03D21C5CE4B2A1
:100BF000202CF6D1C37A0B72C37F847F240454EA7D
:100C00000363447F53EA0423047F23430B60437E42
:100C1000047E54EA03238B80C37D807D50EA032049
:100C2000C8800020107010BC704713B504000198F4
:100C300000782F2803D0019800785C2802D1019811
:100C4000401C01900020A06001980078202813D259
:100C500000212000FFF734FD0021616129E0417D82
:100C6000027D52EA012189B2C27E807E50EA0220D2
:100C700080B250EA0140A06001A92000FFF7E4FE25
:100C8000C0B2002815D12000FFF72CFEA169C97A57
:100C9000C0B2002806D0C0B204280AD1490700D447
:100CA000052006E0490704D46069C17AC906D6D494
:100CB0000520C0B216BD10B5040001230A0014F1CE
:100CC0003401607802F00CFB002801D003202DE0F5
:100CD00094F8330294F8321251EA002080B24AF6B6
:100CE0005521884201D0022020E094F86C0094F84D
:100CF0006B10090251EA004094F86A100843DFF8CB
:100D00004C14884201D1002010E094F8880094F837
:100D10008710090251EA004094F886100843DFF872
:100D20002C14884201D1002000E0012010BDF8B54C
:100D3000150002681378B3F130060A2E05D25378F5
:100D40003A2B02D1921C026000E00026022E01D351
:100D50000B20B0E1DFF8F80350F826400C60002CBF
:100D600001D10C20A7E12000FFF71EFA002801D1D5
:100D70000F20A0E1207800280ED0607802F0AEFAB3
:100D80000700F80708D4EDB2002D03D0780701D58D
:100D90000A2090E100208EE10020207066706078CB
:100DA00002F09AFA0700F80701D5032083E114F155
:100DB0000A020221607802F0BBFA002801D001206B
:100DC00079E1EDB2002D03D0780701D50A2072E158
:100DD000002529002000FFF76EFF0600F6B2012E65
:100DE00014D114F5F970017900290FD0C17A827AF3
:100DF000120452EA0161427A51EA0221007A50EA71
:100E0000010529002000FFF756FF0600F6B2032E69
:100E100001D101204FE1F6B2002E01D00D204AE1B0
:100E200094F8400094F83F1051EA0020618980B2A4
:100E3000884201D00D203EE194F84B0094F84A100E
:100E400051EA002080B200280DD194F85B0094F89C
:100E50005A10090451EA006094F8591050EA012030
:100E600094F858100843206294F84410E170C9B215
:100E7000012904D0C9B2022901D00D201BE1C9B259
:100E8000484394F84110A170C9B2002903D04A1E0A
:100E9000C9B2114201D00D200DE194F8461094F82A
:100EA000452052EA0121218121896289202392FB78
:100EB000F3F291FBF2F302FB1311002901D00D2094
:100EC000F9E094F8481094F8472052EA012292B2CF
:100ED000002A0DD194F8571094F85620120452EAC3
:100EE000016194F8552051EA022194F854200A43F4
:100EF00094F8431094F8423053EA012189B2002952
:100F000001D10D20D7E089B243186689202796FBCE
:100F1000F7F6278997FBF6F6F3189A4201D20D20CF
:100F2000C9E0D21AA678B2FBF6F2002A01D10D2050
:100F3000C1E0012640F6F677BA4200D302264FF60A
:100F4000F677BA4200D30326921CE2615A19E26294
:100F500089B249196162F6B2032E16D120890028A0
:100F600001D00D20A7E094F8630094F86210090402
:100F700051EA006094F8611050EA012094F8601082
:100F80000843A062E069800015E02189002901D1B1
:100F90000D2090E0616A4018A062F6B2022E02D1E4
:100FA000E069400007E0E06903214843217F11F038
:100FB000010111EB50006189491E08186189B0FBDD
:100FC000F1F0216A814201D20D2074E05FF0FF3020
:100FD000606100202061F6B2032E5ED100206071B6
:100FE00094F8650094F8641051EA002080B240192A
:100FF000A0610123A26914F13401607802F070F954
:1010000000284AD194F8330294F8321251EA0020B1
:1010100080B24AF6552188423FD194F8370094F8BF
:101020003610090451EA006094F8351050EA0120A6
:1010300094F834100843474988422ED194F81B0293
:1010400094F81A12090451EA006094F8191250EA4F
:10105000012094F8181208433F4988421DD194F8A2
:10106000230294F82212090451EA006094F8211234
:1010700050EA012094F820120843206194F81F02DE
:1010800094F81E12090451EA006094F81D1250EA07
:10109000012094F81C120843606126702F480088D4
:1010A000401C2E4908802D480088E08000202063E5
:1010B000002020710020F2BD10B50400002C06D0E5
:1010C0002078002803D0E08889B2884201D0092026
:1010D0000EE02000FFF768F8002801D10F2007E09C
:1010E000607802F0FBF8C00701D5032000E0002083
:1010F00010BD70B504000D00E4B2022C01DB0B2022
:1011000021E01348E4B250F82460002E08D0F068C3
:1011100002F0A4F9002801D1022014E00020307070
:10112000002D0BD00020287015F10C012000C0B25A
:1011300002F056F9002801D1022004E00448E4B28C
:1011400040F82450002070BDACD102084641540044
:10115000C81A00205252614172724161FC4A00205B
:101160002DE9F2438AB0040015000020206015F03C
:101170001F0515F0FE0200A90AA8FFF7D8FD06001A
:1011800007A80690F6B2002E04D10A9900A8FFF72E
:101190004CFD0600059FF6B2002E02D1002F00D1B3
:1011A00006261C20054263D0F6B2002E0AD0F6B205
:1011B000042E03D100A8FFF7F0FB060055F0080548
:1011C000059F08E0F87A1121084201D0072602E0C5
:1011D000680700D50826F6B2002E57D1280755D546
:1011E00002F0FCF8804687F80E80404680B2000A84
:1011F000F8735FEA184038745FEA1860787400206A
:10120000F87200203877002078770020B877002027
:10121000F877787D397D51EA002080B2F97EBA7E78
:1012200052EA012189B251EA00490020B876002033
:10123000F876002038750020787501200099087133
:10124000B9F1000F22D00098D0F8308049460098BC
:10125000FFF78FF90600F6B2002E17D1B9F10100A1
:101260000099086141460098FEF7B4FF06000DE0C2
:10127000F6B2002E0AD1F87AC00601D5042605E0A0
:10128000A80703D5F87AC00700D50726F6B2002EC6
:1012900007D1280701D555F020050098006BE061C3
:1012A0002762F6B2002E23D1A571787D397D51EAEF
:1012B000002080B2F97EBA7E52EA012189B251EA59
:1012C00000402061F87FB97F090451EA0060797F0E
:1012D00050EA0120397F0843E0600020A060002030
:1012E000A06100206062009820600098C088A08003
:1012F0003100C9B20098FEF75CFF3000C0B20BB0FD
:10130000BDE8F0832DE9F047050016001F000C0032
:1013100000203860A9882868FFF7CEFE80465FFA73
:1013200088F8B8F1000F07D04146C9B22868FEF727
:1013300040FF4046C0B219E1A879000605D5022158
:101340002868FEF736FF022010E1A879C00705D40F
:1013500007212868FEF72DFF072007E1E868A96844
:10136000401AB0422AD2060028E0C5F81890A868B2
:10137000296849892A685289121AB0FBF1F001FBE9
:101380000028464500D2B046A868296849894246E7
:10139000B0FBF1F301FB1300401910F1280120000C
:1013A000FEF7D6FE18EB0404A86818EB0000A8604E
:1013B000386818EB00003860B6EB0806002E00F025
:1013C000D080A86829684989B0FBF1F201FB1200BE
:1013D0000028CCD1A86829684989B0FBF1F02968B8
:1013E0008978491E11EA00085FFA88F8B8F1000F01
:1013F0002AD1A868002801D128690BE0686A002872
:1014000004D0A9682800FFF743F903E06969286858
:10141000FEF791FF022809D2A87950F08000A87148
:1014200002212868FEF7C5FE02209FE010F1010F9F
:1014300009D1A87950F08000A87101212868FEF731
:10144000B8FE012092E0686169692868FEF767FFCD
:101450008146B9F1000F09D1A87950F08000A87138
:1014600002212868FEF7A5FE02207FE05FFA88F8D7
:1014700018EB090928684089B6FBF0FABAF1000FA9
:101480003BD0286880785FFA88F81AEB0801884218
:1014900005D2286880785FFA88F8B0EB080A5346CE
:1014A000DBB24A4621002868407801F019FF002885
:1014B00009D0A87950F08000A87101212868FEF7B2
:1014C00078FE012052E0A879400611D5A869B0EB5A
:1014D000090050450CD22868428915F12801A869F5
:1014E000B0EB09002B685B8903FB0040FEF730FE80
:1014F000286840890AFB00F854E7A86948453FF48A
:1015000034AFA879400617D50123AA6915F128013F
:101510002868407801F0F8FE002809D0A87950F03A
:101520008000A87101212868FEF743FE01201DE01C
:10153000A87910F0BF00A87101234A4615F12801CF
:101540002868407801F0CCFE00283FF40EAFA8795F
:1015500050F08000A87101212868FEF72AFE0120C2
:1015600004E000212868FEF724FE0020BDE8F08793
:101570002DE9F047050016001F000C000020386020
:10158000A9882868FFF798FD80465FFA88F8B8F1C7
:10159000000F07D04146C9B22868FEF70AFE404650
:1015A000C0B287E0A879000605D502212868FEF7B9
:1015B00000FE02207EE0A879800705D40721286874
:1015C000FEF7F7FD072075E0E8683018E968884203
:1015D0002DD200262BE0C5F81890A8682968498903
:1015E0002A685289121AB0FBF1F001FB0028464527
:1015F00000D2B046A86829684B8942462100B0FB5A
:10160000F3FC03FB1C0040192830FEF7A1FDA8796C
:1016100050F04000A87118EB0404A86818EB000013
:10162000A860386818EB00003860B6EB0806002E9A
:1016300031D0A86829684989B0FBF1F201FB12009A
:101640000028CAD1A86829684989B0FBF1F0296847
:101650008978491E11EA00085FFA88F8B8F1000F8E
:1016600044D1A868002808D12869002811D1002198
:101670002868FEF7B3FF28610BE0686A002804D0F1
:10168000A9682800FFF704F803E069692868FEF7F5
:10169000A5FF002810D1E868A968884201D2A8688F
:1016A000E860A87950F02000A87100212868FEF7B2
:1016B00080FD0020BDE8F087012809D1A87950F00D
:1016C0008000A87102212868FEF773FD0220F1E76F
:1016D00010F1010F09D1A87950F08000A871012103
:1016E0002868FEF766FD0120E4E76861A8794006F6
:1016F00017D50123AA6915F128012868407801F05F
:1017000003FE002809D0A87950F08000A8710121BB
:101710002868FEF74EFD0120CCE7A87910F0BF0045
:10172000A87169692868FEF7FAFD8146B9F1000FD2
:1017300009D1A87950F08000A87102212868FEF72D
:1017400038FD0220B6E75FFA88F818EB0909286827
:101750004089B6FBF0FABAF1000F3CD028688078D7
:101760005FFA88F81AEB0801884205D22868807869
:101770005FFA88F8B0EB080A5346DBB24A4621000C
:101780002868407801F0C0FD002809D0A87950F001
:101790008000A87101212868FEF70BFD012089E770
:1017A000A869B0EB0900504510D228684289A869A1
:1017B000B0EB09002968498901FB004115F12800B7
:1017C000FEF7C6FCA87910F0BF00A8712868408910
:1017D0000AFB00F81FE7A86948453FF4FCAEA8687B
:1017E000E9688842BFF4F7AE01234A4615F12801A3
:1017F0002868407801F074FD00283FF4ECAEA87929
:1018000050F08000A87101212868FEF7D2FC012069
:1018100050E738B50400A1882068FFF74DFC0500AB
:10182000EDB2002D56D1A079800653D5A07940069F
:1018300013D50123A26914F128012068407801F032
:1018400063FD002805D001212068FEF7B2FC0120CD
:1018500047E0A07910F0BF00A071E1692068FEF7B1
:10186000B9FC0500EDB2002D34D1256AE87A50F0BC
:101870002000E872E0682877E06880B2000A6877A4
:10188000E068000CA877E068000EE8772069A87689
:10189000206980B2000AE8762069000C287520696A
:1018A000000C80B2000A687501F098FDA87501006F
:1018B00089B2090AE975010C2976000E6876A079CB
:1018C00010F0DF00A0710120216808712068FEF788
:1018D000BBFC05002900C9B22068FEF76AFC28009D
:1018E000C0B232BD10B504002000FFF792FFC0B2B5
:1018F000002801D100212160C0B210BD2DE9F84FB0
:1019000004000F00A1882068FFF7D6FB0500EDB2A8
:10191000002D07D02900C9B22068FEF74AFC280034
:10192000C0B2AEE1A079000605D502212068FEF71D
:1019300040FC0220A5E1606A002800F0B58017F1A4
:10194000010F4AD1D4F824A0DAF800801AF1040A71
:101950005FF002092069002834D00700002619F141
:1019600002098346761C01002068FEF7E4FC022889
:1019700009D2A07950F08000A07102212068FEF702
:1019800018FC02207DE110F1010F09D1A07950F07F
:101990008000A07101212068FEF70BFC012070E19E
:1019A0001BF101018842DCD0C84507D3CAF80060AA
:1019B0001AF1040ACAF800701AF1040A2168C96908
:1019C0008842CAD3606AC0F80090C84503D300209B
:1019D000CAF800004EE111254CE1E068B84200D29F
:1019E000E768A760002F00F04581791E2000FEF710
:1019F0004FFE606161692068FEF791FC0600002ED1
:101A000009D1A07950F08000A07102212068FEF772
:101A1000D0FB022035E1781E21684989B0FBF1F046
:101A200021688978491E08408619A068216849897B
:101A3000B0FBF1F201FB1200002800F01B81A0694D
:101A4000864200F01781A079400617D50123A269CC
:101A500014F128012068407801F056FC002809D0D4
:101A6000A07950F08000A07101212068FEF7A1FB51
:101A7000012006E1A07910F0BF00A071012332001F
:101A800014F128012068407801F02AFC002809D0D0
:101A9000A07950F08000A07101212068FEF789FB39
:101AA0000120EEE0A661E5E0E068B84203D2A0794B
:101AB000800700D4E768A0680026A660002F00F029
:101AC0009380216889782268528902FB01F80028F6
:101AD00010D0411EB1FBF8F17A1EB2FBF8F28A4237
:101AE00008D3401EB8F101018843A060A0683F1AE6
:101AF000616922E0216900291ED100212068FEF7DA
:101B00006DFD0100012909D1A07950F08000A0717C
:101B100002212068FEF74DFB0220B2E011F1010F17
:101B200009D1A07950F08000A07101212068FEF752
:101B300040FB0120A5E021616161002907D153E04C
:101B40006161A06818EB0000A060B7EB0807B8451A
:101B500009D2A079800721D52068FEF73FFD01005A
:101B600000291FD14746A0683818A0602068408926
:101B7000B7FBF0F200FB1270002835D02068FEF7AA
:101B8000CEFB0600002E2AD1A07950F08000A07173
:101B900002212068FEF70DFB022072E02068FEF7AC
:101BA000CAFB010011F1010F09D1A07950F08000AA
:101BB000A07101212068FEF7FCFA012061E00229F2
:101BC00003D32068C0698142BAD3A07950F0800065
:101BD000A07102212068FEF7ECFA022051E0206893
:101BE0004089B7FBF0F08619A06821684989B0FBED
:101BF000F1F201FB1200002832D0A06986422FD0FA
:101C0000A079400617D50123A26914F128012068A4
:101C1000407801F079FB002809D0A07950F08000CD
:101C2000A07101212068FEF7C4FA012029E0A07903
:101C300010F0BF00A0710123320014F128012068C8
:101C4000407801F04DFB002809D0A07950F08000C9
:101C5000A07101212068FEF7ACFA012011E0A66115
:101C6000E068A168884205D2A068E060A07950F0E1
:101C70002000A0712900C9B22068FEF79AFA280056
:101C8000C0B2BDE8F28F32B584B00400002221005A
:101C900004A8FFF74CF80500EDB2002D32D100A8E2
:101CA000A06104992000FEF7C0FF0500EDB2002DF1
:101CB00024D16069002816D06069C07AC00611D5A9
:101CC0006069407D6169097D51EA002080B26169E7
:101CD000C97E6269927E52EA012189B251EA0040CE
:101CE000A06000E00525EDB2002D07D12068C08876
:101CF000A08000212000FEF7E3FC0500EDB2042DDA
:101D000000D105252900C9B22068FEF752FA280043
:101D1000C0B205B030BD70B584B004000D00A1881C
:101D20002068FFF7C9F90600F6B2002E25D1002D74
:101D300005D100212000FEF7C3FC06001DE000A82D
:101D4000A0612000FEF7FEFD0600F6B2042E02D1CF
:101D5000002020610026F6B2002E0ED129002000BE
:101D6000FEF720FF00212000FEF716FD0600F6B268
:101D7000042E02D10020206100263100C9B2206863
:101D8000FEF717FA3000C0B204B070BD70B50400A1
:101D90000D00002600212000FEF792FC002801D152
:101DA000002D02D5022010E0761CAE420CDA200095
:101DB000FEF7C8FD002805D100212000FEF7ECFC4D
:101DC0000028F1D0022000E0002070BD31B58AB0BB
:101DD0000C00002200A90AA8FEF7A9FF0500EDB239
:101DE000002D12D107A806900A9900A8FEF71DFF42
:101DF0000500EDB2002D08D10598002804D021007F
:101E000000A8FEF7CFFE00E006252900C9B2009821
:101E1000FEF7CFF92800C0B20BB030BD2DE9F14775
:101E200081B00D0014000022210001A8FEF77FFF01
:101E30000700FFB2002F72D12068C069801E2168A0
:101E40004969884203D320684069286067E02068B8
:101E500006785FF00008F6B2012E19D15FF0020992
:101E600049462068FEF767FA10F1010F01D10127FA
:101E70004AE0012801D1022746E0002801D118F1EB
:101E8000010819F101092068C0698145E8D33BE0E8
:101E90002068D0F81C902068D0F824A000210020F1
:101EA00000290DD151462068FEF794F907001AF178
:101EB000010AFFB2002F27D12068343021684989F8
:101EC000F6B2022E0BD14278037853EA022292B284
:101ED000002A01D118F10108801C891E0FE0C27888
:101EE00083781B0453EA0262437852EA03220378A0
:101EF0001A43120101D118F10108001D091FB9F19F
:101F00000109B9F1000FCBD12068C0F81480F6B2F6
:101F1000032E02D1012021684871C5F800803900E4
:101F2000C9B22068FEF745F93800C0B2BDE8F687AF
:101F300031B592B0012200A912A8FEF7F8FE040004
:101F4000E4B2002C5AD107A80690129900A8FEF717
:101F50006CFE0400E4B2002C50D10598002801D199
:101F6000062403E0C17AC90700D50724417D027D1C
:101F700052EA012189B2C27E837E53EA022292B2E2
:101F800052EA0145E4B2002C20D1C07AC0061DD52A
:101F9000022D01D2022419E01C2200A90AA8FEF792
:101FA000D7F80C9502210AA8FEF78AFB0400E4B2D8
:101FB000002C0BD10AA8FEF7C5FC0400E4B2002CEB
:101FC00000D10724E4B2042C00D10024E4B2002C98
:101FD00014D100A8FEF720FD0400E4B2002C0DD1BE
:101FE000002D04D029000098FEF7C3FA0400E4B2E3
:101FF000002C03D10098FEF727F904002100C9B294
:102000000098FEF7D6F82000C0B213B030BD2DE91D
:10201000F1438AB001F0E2F90400012200A90AA804
:10202000FEF785FE0600F6B2002E40F0D78007A826
:1020300006900A9900A8FEF7F8FD0600F6B2002EF9
:1020400000D10826F6B2042E40F0C8800021009886
:10205000FEF7C4FA05000026002D00D10726012D49
:1020600000D1022615F1010F00D10126F6B2002E93
:1020700004D100210098FEF7ADF80600F6B2002E5C
:1020800075D129000098FEF74AF90700009810F171
:1020900034080098428900214046FEF763F80B227D
:1020A00020214046FEF75EF82E2088F80000102020
:1020B00088F80B0088F81640200080B2000A88F8E3
:1020C0001700200C88F81800200E88F8190088F8EE
:1020D0001A50280080B2000A88F81B00280C88F8E3
:1020E0001400280C80B2000A88F81500202241460E
:1020F00018F12000FEF72CF82E2088F82100029815
:1021000000990978032904D10099896A884200D18D
:10211000002088F83A00010089B2090A88F83B10CB
:10212000010C88F83410000C80B2000A88F83500E1
:10213000009890F8029007E00098428900214046FC
:10214000FEF710F8B9F101095FFA89F9B9F1000F4A
:102150000DD0009807637F1C0120009908710021B1
:102160000098FEF737F80600F6B2002EE4D0F6B27B
:10217000002E03D100A8FEF710FC0600F6B2002ED8
:1021800004D029000098FEF7F4F927E0DDF8148068
:10219000102088F80B0088F81640200080B2000A52
:1021A00088F81700200C88F81800200E88F819000D
:1021B00088F81A50280080B2000A88F81B00280C02
:1021C00088F81400280C80B2000A88F81500012055
:1021D000009908710098FEF737F806003100C9B27F
:1021E0000098FDF7E6FF3000C0B20BB0BDE8F08309
:1021F00031B598B00D00012207A918A8FEF797FD88
:102200000400E4B2002C40F09180079800900EA8E2
:102210000D90189907A8FEF708FD0400E4B2002C01
:1022200040F084800C98002801D104247EE015221F
:102230000C9810F10B0111A8FDF78AFF1C2207A9C9
:1022400000A8FDF785FF290000A8FEF7EEFC0400BA
:10225000E4B2002C00D10824E4B2042C66D100A81A
:10226000FEF79BFB0400E4B2002C5FD1059D132216
:102270000DF1460115F10D00FDF76AFF9DF84400D0
:1022800050F02000E872012007990871099802991E
:1022900088423DD0E87AC0063AD5687D297D51EA6A
:1022A000002080B2E97EAA7E52EA012189B251EA79
:1022B00000410098FEF733F8002801D1022427E0FE
:1022C00001000098FDF786FF0400009810F1540506
:1022D000E4B2002C1CD168782E2819D1009800781F
:1022E000032806D102980099896A884201D100200A
:1022F00000E00298A876010089B2090AE976010C8B
:102300002975000C80B2000A6875012000990871D7
:10231000E4B2002C0AD107A8FEF77EFB0400E4B269
:10232000002C03D10798FDF78FFF04002100C9B2EC
:102330000798FDF73EFF2000C0B219B030BD2DE96F
:10234000F04F87B004000F001500E4B2022C01DB4F
:102350000B2048E3DFF8B406E4B250F82400019003
:102360000198002801D10C203DE30020019908705C
:102370002000C0B200F0B0FFC10701D5032032E356
:10238000400701D50A202EE3019810F10A0202212C
:102390002000C0B200F0CCFF002801D0012022E3D1
:1023A00002AA01212000C0B200F0C2FF002802D121
:1023B0000298802801D2012015E3FFB2002F02D03D
:1023C0000020039001E03F20039002980399401AF7
:1023D0000290681E054200D00025002D1BD10198F7
:1023E00040894FF4007190FBF1F04FF4FA6191FBDA
:1023F000F0F00299B1FBF0F05FF0000A01E01AF191
:10240000010ADFF80C1631F81A108842F7D3DFF80A
:10241000040630F81A5001984089B5FBF0F5002DFC
:1024200000D10125812D00D380250298B0FBF5F85D
:10243000012640F6F670804500D302264FF6F6706E
:10244000804500D30326F6B2032E0DD101984089B2
:1024500010EB8800C01D01994989B0FBF1FB5FF0CA
:1024600020090020049020E0F6B2012E07D10320BD
:1024700000FB08F0401C400810F1030B03E05FEA8A
:10248000480010F1040B0198408910EB0B00401E2E
:1024900001994989B0FBF1FB5FF001094FF48040DD
:1024A00001994989B0FBF1F00490039819EB000001
:1024B000059005981BEB0000049911EB00080298A9
:1024C00015EB0801884201D20E208CE200AA0321FC
:1024D0002000C0B200F02CFF002806D10098002890
:1024E00003D00098B0F5004F01D90120009000986A
:1024F00010EB0800401E0099491E88430090009888
:10250000B0EB08000121B0FBF1F00090F6B2032E11
:1025100007D1009810EB0909059800990818059053
:1025200002E0009810EB0B0B0298B0EB0900B0EB47
:102530000B000499401AB0FBF5F8F6B2022E03D155
:1025400040F6F670804506D3F6B2032E05D14FF65D
:10255000F670804501D20E2045E2FFB2002F03D075
:10256000F0208DF8180067E00398029911EB000A3B
:1025700001984289002101983430FDF7F3FD01985C
:1025800010F5F97780203870012078700120B8703C
:102590000020F870DFF8800482450DD23F20BAFB9E
:1025A000F0F0FF21B0FBF1FA87F807A05FEA9A008C
:1025B00050F03F00B87103E0FF20B871FF20F871C0
:1025C000FE207871F6B2032E08D00298B0F5803F55
:1025D00001D2042000E00620387101E00C2038719F
:1025E0003F203872002078720020B8720020F87204
:1025F00002983873029880B2000A78730298000C2F
:10260000B8730298000EF8735520019981F83202D0
:10261000AA20019981F8330201230022019810F1C8
:1026200034012000C0B200F06FFE002801D001206C
:10263000D9E1F8208DF81800019810F134070198BD
:10264000428900213800FDF78DFD0B22DFF8CC1305
:102650003800FDF77DFD0198B0F80AA087F80BA0BF
:102660001FFA8AFA5FEA1A2038737D7387F80E9092
:102670001FFA89F95FEA1920F87301203874F6B25D
:10268000032E02D15FF0000A01E04FF4007A87F8D0
:1026900011A01FFA8AFA5FEA1A20B8740298B0F5FE
:1026A000803F06D20298F874029880B2000A38750A
:1026B0000FE0029887F82000029880B2000A87F89D
:1026C00021000298000C87F822000298000E87F87B
:1026D00023009DF8180078753F2038760020787622
:1026E000FF20B8760020F87603983877039880B2F8
:1026F000000A78770398000CB8770398000EF877F3
:1027000000F06CFE0090F6B2032E43D1009887F8DB
:102710004300009880B2000A87F844000098000C3B
:1027200087F845000098000E87F8460087F824B027
:10273000584680B2000A87F825005FEA1B4087F8F8
:1027400026005FEA1B6087F82700022087F82C002C
:10275000002087F82D00002087F82E00002087F841
:102760002F00012087F83000002087F83100062074
:1027700087F83200002087F83300802087F8400077
:10278000292087F842001322A54917F14700FDF7D9
:10279000DFFC21E0009887F82700009880B2000A4B
:1027A00087F828000098000C87F829000098000E90
:1027B00087F82A0087F816B0584680B2000AF875E4
:1027C000802087F82400292087F8260013229549C5
:1027D00017F12B00FDF7BCFC552087F8FE01AA205D
:1027E00087F8FF010123039A39002000C0B200F0EE
:1027F0008BFD002801D00120F5E0F6B2032E07D1B1
:1028000001230398821D39002000C0B200F07CFD36
:10281000DDF814905FF0000A01E01AF1010ABAF144
:10282000000F6DD10198428900213800FDF79AFC14
:102830009DF818000090F6B2032E16D0F6B2012EC5
:1028400001D1794801E07FF0FF0000990843009032
:1028500000983870009880B2000A78700098000CD8
:10286000B8700098000EF8701FE0009870F0FF003C
:10287000009000983870009880B2000A7870009834
:10288000000CB8700098000EF870FF203871FF201F
:102890007871FF20B871FF20F871FF203872FF2097
:1028A0007872FF20B8720F20F87201234A4639006F
:1028B0002000C0B200F028FD19F10109C0B20028C3
:1028C00001D001208FE00198428900213800FDF7F6
:1028D00049FC0120009002E00098401C0090009804
:1028E00058459AD201234A4639002000C0B200F070
:1028F0000BFD19F10109C0B20028EDD0012072E0F2
:10290000F6B2032E01D1AA4601E0DDF810A00123A2
:102910004A4639002000C0B200F0F6FC19F1010966
:10292000C0B2002801D001205DE0BAF1010ABAF17D
:10293000000FECD1F6B2032E49D15220387052204C
:1029400078706120B8704120F870722087F8E40137
:10295000722087F8E501412087F8E601612087F8B9
:10296000E7014046401E87F8E8014046401E80B21D
:10297000000A87F8E901B8F10100000C87F8EA01C4
:10298000B8F10100000E87F8EB01022087F8EC0196
:10299000002087F8ED01002087F8EE01002087F87D
:1029A000EF01552087F8FE01AA2087F8FF010123D7
:1029B0000398421C39002000C0B200F0A5FC01239E
:1029C0000398C21D39002000C0B200F09DFC002217
:1029D00000212000C0B200F0ABFC002801D1002093
:1029E00000E00120C0B207B0BDE8F08F002100E098
:1029F000491C022906DA054A52F821208242F7D101
:102A0000080001E05FF0FF3070470000C81A0020A6
:102A100030B7020848B702080004FB00D0D902080A
:102A200034C3020848C3020800FFFF000021C0B2FF
:102A3000002813D0401E02281AD9C01E01280ED922
:102A4000801E0FD0401E16D0401E01280DD9801EBA
:102A500011D0C01E03D0401E10D012E013E07FF052
:102A6000010110E07FF015010DE07FF010010AE098
:102A70007FF0040107E07FF01D0104E07FF0150105
:102A800001E05FF0FF3108007047002100E0491CC1
:102A9000022907DADFF8702952F821208242F6D1A4
:102AA000080001E05FF0FF3070472DE9F04186B08B
:102AB00006000020FFF7E9FF040014F1010F02D126
:102AC0007FF0010065E03068DFF83C1941F8240030
:102AD00002AA1021306800F0FBFD00280AD10398FB
:102AE000B0F5007F06D9DFF8240901F095F97FF0F1
:102AF00015004EE04FF40D7001F0ECFA0500002DCA
:102B000007D10020DFF8001941F824007FF00B0006
:102B10003FE029002000C0B2FEF7EBFA0700FFB249
:102B2000002F25D12300DFF8E828082100A801F0B4
:102B300050F91C2001F0CEFA8046B8F1000F0FD1F9
:102B400000212000C0B2FEF7D4FA0020DFF8B81848
:102B500041F82400280001F06DFC7FF00B0018E024
:102B600000A94046FFF78FF80700FFB2002F13D0EF
:102B700000212000C0B2FEF7BCFA0020DFF8881860
:102B800041F82400280001F055FC3800C0B2FFF7DE
:102B90004DFF06B0BDE8F081F560404601F04AFC0B
:102BA0000020F6E770B50400E568002D06D1B722D5
:102BB000DFF86018DFF8600801F07BF92068FFF7A4
:102BC00064FF060016F1010F02D17FF0010016E04C
:102BD00000213000C0B2FEF78CFAC0B2002803D04A
:102BE000C0B2FFF723FF0AE00020E0600020DFF81A
:102BF000181841F82600280001F01CFC002070BDC8
:102C00002DE9F04104000025002C02D17FF01500D1
:102C100053E000262000FFF738FF804618F1010F2F
:102C200025D10020FFF731FF804618F1010F06D1B2
:102C3000DFF8E80701F0F0F87FF01B003DE04FF40B
:102C40000D7001F047FA0500002D02D17FF00B0056
:102C500033E00126DFF8B00740F8284003212000C8
:102C600000F079FC29004046C0B2FEF742FA00228B
:102C700001214046C0B2FFF762FB0700012E0FD1D1
:102C8000280001F0D7FB00214046C0B2FEF731FA20
:102C90000020DFF8741741F82800200000F0A4FCA1
:102CA000FFB2002F08D0DFF8780701F0B5F8380040
:102CB000C0B2FFF7BBFE00E00020BDE8F0813EB5EA
:102CC00005000C00002D07D140F21912DFF854174F
:102CD000DFF8540701F0EDF8002C07D14FF48D72A6
:102CE000DFF84017DFF8440701F0E3F8E8680090E8
:102CF00000984378CBA2042102A801F06AF800AA48
:102D000001A902A8FFF78AF8C0B2002803D0C0B218
:102D1000FFF78CFE10E00098C069801E009989784A
:102D200001FB00F10198009A92785043A060616025
:102D30004FF40070206000203EBDF8B50400E0684C
:102D4000C068FFF753FE0600002E02D57FF0010099
:102D500095E04FF4807001F0BDF90500002D02D11F
:102D60007FF00B008BE0606800903300DFF8C02636
:102D70004FF48071280001F02CF82069800233D5CF
:102D80002069C0050ED52800FFF741F90600F6B20C
:102D9000002E07D0280001F04DFB3000C0B2FFF735
:102DA00045FE6CE01C2001F095F90700002F05D1CD
:102DB000280001F03FFB7FF00B0060E029003800A5
:102DC000FEF761FF0600280001F034FBF6B2002E8A
:102DD00007D0380001F02EFB3000C0B2FFF726FE0E
:102DE0004DE0E76100204AE00126207CC00701D5C4
:102DF00056F00206207C800701D556F002062069B5
:102E0000C00501D556F010062069C00401D556F062
:102E100008062069800501D556F004064FF40A70B3
:102E200001F058F90700002F05D1280001F002FB3E
:102E30007FF00B0023E03200D2B229003800FEF709
:102E40008FF90600280001F0F5FAF6B2002E0FD136
:102E5000B868A061F8686061E7612069800405D501
:102E6000F9683800FEF74AFDB868A061002006E066
:102E7000380001F0DFFA3000C0B2FFF7D7FDF2BD35
:102E800038B50024418802290ED1C569002D07D12B
:102E900040F2B312DFF89C15DFF89C0501F009F849
:102EA000280001F0C7FA17E04188002914D1C5694C
:102EB000002D07D14FF4DE72DFF87815DFF87C05BE
:102EC00000F0F7FF2800FEF70DFD0400E4B2002C2F
:102ED00002D1280001F0AEFA2000C0B2FFF7A6FD33
:102EE00032BD7FF025007047F8B504000D001600D4
:102EF0006088022802D17FF014001AE0E769002FF1
:102F000007D14FF4ED72DFF83815DFF8300500F027
:102F1000D0FF00AB320029003800FEF7F3F9B968A2
:102F2000A161C0B2002801D1009802E0C0B2FFF751
:102F30007DFDF2BDF8B504000D0016006088022882
:102F400002D17FF014001CE0E769002F07D140F2A6
:102F5000F112DFF8F014DFF8E40400F0AAFF00AB90
:102F6000320029003800FEF703FBB968A161F96857
:102F70006161C0B2002801D1009802E0C0B2FFF741
:102F800055FDF2BD10B5C469002C07D140F20322F3
:102F9000DFF8B414DFF8A40400F08BFF2000FEF784
:102FA00038FCC0B2FFF742FD10BD70B504000D0043
:102FB00000206188002915D1E669002E07D140F272
:102FC0001222DFF88814DFF8740400F072FF290081
:102FD0003000FEF793FCC0B200281ED1B068A0619B
:102FE000B0681DE06188022917D1E669002E07D17B
:102FF00040F22222DFF85414DFF83C0400F059FFBD
:103000004FF48270B5FBF0F13000FEF7BFFEC0B2A6
:10301000002802D1A561A06902E0C0B2FFF706FD59
:1030200070BD000025643A002DE9F04F87B0040020
:103030000D001700E669002E07D140F23922DFF8B3
:103040001014DFF8F40300F034FF4FF48270B7FB84
:10305000F0F04FF4827101FB00F7002F02D17FF0F6
:10306000150050E05FF000084FF4827000FB085933
:1030700000A93000FEF74FFE82465FFA8AFABAF1E5
:10308000000F03D19DF80900002800D129E00DF1BF
:10309000090B002089F800009DF80800C00603D540
:1030A000022089F8000002E0012089F8000058465B
:1030B00000F013FC89F801004FF48270A9F80200B7
:1030C000584600F00AFC421C594619F1040000F071
:1030D000C6FB18F101084FF4827000FB08F0B842FB
:1030E000C2D3B8F1000F04D15046C0B2FFF79EFC26
:1030F00009E0A0694FF4827101FB0800A0614FF460
:10310000827000FB08F007B0BDE8F08F70B582B0A8
:103110000C00C068FFF76AFC0500002D02D57FF0A7
:1031200001001CE04FF4807000F0D4FF0600002E78
:1031300002D17FF00B0012E000942B00BC4A4FF448
:103140008071300000F045FE3000FEF7F1FE040013
:10315000300001F06FF92000C0B2FFF767FC76BDC8
:10316000F8B50C001500C068FFF740FC0700002F01
:1031700002D57FF001001DE04FF4807000F0AAFF3F
:103180000600002E02D17FF00B0013E000943B00FC
:10319000A74A4FF48071300000F01BFE2900300078
:1031A000FFF726F80400300001F044F92000C0B217
:1031B000FFF73CFCF2BD2DE9F04F93B00D00140079
:1031C000C068FFF713FC0600002E02D57FF0010057
:1031D00079E04FF4807000F07DFF0700002F02D1EE
:1031E0007FF00B006FE000953300914A4FF480713F
:1031F000380000F0EEFD01A93800FEF7E7FD0500FC
:10320000380001F017F9EDB2002D58D100202060F0
:1032100048F2B610A0809DF80C00C00609D5A08821
:103220004004400CA080A08840F4804050F0490049
:10323000A0809DF80C00C00704D5A0884FF66D71E2
:103240000840A0800198A060BDF8080080B210F08E
:103250001F0680B2400980B210F00F0780B200094B
:1032600080B210F07F0000F2BC700090BDF80A0040
:1032700080B210F01F015FEA410880B2400980B2BD
:1032800010F03F0980B2800980B210F01F0A2C2193
:1032900000220DF11C0B584601F094F90098A0F2A1
:1032A0006C700C90781E0B900A96CDF824A0CDF887
:1032B0002090CDF81C8007A801F0CEF9E06028002E
:1032C000C0B2FFF7B3FB13B0BDE8F08F80B5614823
:1032D00001F02AFA002002BD00207047002070474C
:1032E00038B514001D00484AC0B252F82000EDB2B3
:1032F0002B000A00210000F09FF9EDB2A84201D195
:10330000002000E0012032BD38B514001D003E4A07
:10331000C0B252F82000EDB22B000A00210000F0EC
:10332000B1F9EDB2A84201D1002000E0012032BD88
:1033300030B589B01400344AC0B252F82050002D84
:1033400001D1012048E0C9B2012910D10C2200218D
:1033500003A800F00DFA03AA1021280000F0B8F924
:10336000039820600398002835D1012034E0C9B2C9
:1033700002290CD10C22002106A800F0F9F906AAB6
:103380001021280000F0A4F90798208023E0C9B29A
:1033900003290FD10C22002100A800F0E9F900AAAE
:1033A0001021280000F094F902980199B0FBF1F087
:1033B000206010E0C9B2002905D1002211212800A7
:1033C00000F086F907E0C9B2042904D122001221D5
:1033D000280000F07DF9002009B030BD00207047C2
:1033E0001CB50C00C0B203001B4A082100A800F065
:1033F000F0FC002100A801F025FD002802D020608B
:10340000012000E0002016BDC80C0020F48902084D
:10341000ACDD0208DCCF0208ECCF0208BC99020840
:10342000FCCF02080CD002081CD002082CD00208E5
:10343000B4DD02083CD002084CD002085CD002087F
:103440006CD002087CD002088CD002089CD0020804
:10345000F4C10208388A0208BCDD020880B50028E1
:1034600001D001F023FD012002BD80B54FF47A7137
:1034700001F048FD002801D1012000E0002002BD3C
:1034800080B501F0E8FD01BD70B504000D00160027
:10349000002C02D15FF0FF3010E0280000F011F89E
:1034A000002802D05FF0FF3008E02A00072120004A
:1034B00002F0F6FBE6820020A076002070BD00201E
:1034C0007047F8B5040002F078FD002801D003F041
:1034D0002EF8934F7E6800E03668381D864210D083
:1034E000B6F10C0508222100280000F0D0F90028D0
:1034F000F2D102F062FD002801D003F023F8280089
:1035000006E002F05AFD002801D003F01BF800206D
:10351000F2BD38B504000025002C04D19322814966
:103520007E4800F0C6FC606A002812D0A07DC0066C
:103530000FD42000616A88470500002D05D02A00BD
:103540002100794800F068FC03E0E08A50F01000A8
:10355000E082280032BD70B504000D000026002C6A
:1035600004D1B62271496D4800F0A3FCA07DC006CD
:1035700013D4606A00280CD02000616A88470600D6
:10358000002E06D032002100674800F045FC3000D4
:1035900029E0E08A50F01000E082A07D000705D508
:1035A000207E000702D57FF006001CE0A06A0028FC
:1035B00005D0290089B22000A26A90470600002E9B
:1035C00002D016F1060F0DD155F008002083A07E21
:1035D000401CA076A07E002804D1DF225349544825
:1035E00000F067FC300070BD38B504000025002CE9
:1035F00004D1F1224F49494800F05BFCA07E00282D
:1036000002D15FF0FF3016E0A07E401EA076A07EC3
:10361000002801D000200EE0E06A002803D020003E
:10362000E16A88470500002D02D015F1060F01D18F
:1036300000202083280032BDF8B504000D001600DC
:103640001F00002C05D14FF48D723B49334800F028
:1036500030FCA07E002805D15FF0FF3000F074F848
:1036600000200EE0206B002806D03B00320029002D
:103670002000246BA04704E07FF0050000F064F810
:103680000020F2BDF8B504000D0016001F00002C4C
:1036900005D14FF4A0722949204800F00AFCA07E11
:1036A000002805D15FF0FF3000F04EF800200EE05A
:1036B000606B002806D03B00320029002000646BBC
:1036C000A04704E07FF0050000F03EF80020F2BDC6
:1036D00070B504000D001600002C05D14FF4B07237
:1036E00017490E4800F0E5FBA06B002806D0320019
:1036F0002900C9B22000A36B984700E0002070BDEC
:1037000038B504000D00002C05D140F279120D49A6
:10371000024800F0CEFBE561002032BD6CCF02080C
:103720004C0100207CCF02082C8D02088CCF0208AF
:10373000A4C102089CCF0208ACCF0208BCCF02088B
:10374000B8C1020830AB020810B5040002F044FF13
:10375000002803D0DFF88807046008E002F02DFCA1
:10376000002803D1DFF87807046000E0046310BD8F
:1037700010B40300CCB2042A1DD310F003010029B9
:1037800019D1030054EA042151EA014108E019600B
:103790001B1D19601B1D19601B1D19601B1D103A94
:1037A000102AF4D2042A03D319601B1D121FF9E753
:1037B00001E01C705B1C11004A1E0029F9D110BCED
:1037C000704730B40300102A27D311F0030413F01C
:1037D00003052C43002C20D110E00C681C60091D4F
:1037E0001B1D0C681C60091D1B1D0C681C60091D3D
:1037F0001B1D0C681C60091D1B1D103A102AECD201
:10380000042A05D30C681C60091D1B1D121FF7E755
:1038100003E00C781C70491C5B1C1400621E002C19
:10382000F7D130BC704710B40300994211D254183C
:10383000A3420ED2D31851181400621E002C0CD0D3
:103840005B1E491E0C781C70F6E70C781C70491C36
:103850005B1C1400621E002CF7D110BC704710B422
:10386000002A12D003000C78491C1C705B1CE4B2C7
:10387000002C07D1521E002A03D0002119705B1CB6
:10388000F8E702E0521E002AEDD110BC704710B4D8
:10389000002300E0521E002A0DD090F9003091F96B
:1038A00000401B1B491C5BB2002B04D10400601CB0
:1038B0002478002CEED15BB2180010BC704701E0F8
:1038C000401C491C0278002A03D002780B789A42E7
:1038D000F6D000780978401A7047010000E0491CD2
:1038E0000A78002AFBD1081A704770B5040020003E
:1038F000FFF7F3FF451C280000F0ECFB0600002E4C
:1039000001D1002005E02A0021003000FFF759FF17
:10391000300070BD80B5DFF8CC0500F07DFADFF82F
:10392000C80500F079FADFF8C405009000230122F1
:103930000221DFF8BC0500F06FFADFF8B80500F0EF
:103940006BFA01BD0A290BD101680A22B1FBF2F31F
:1039500002FB131102680A23B2FBF3F2026008E0D3
:1039600002681023B2FBF3F101FB13210268120974
:10397000026008007047002107E00268531C0360E2
:103980000A23127803FB0121303902681278303A99
:103990000A2AF2D3080070472DE9FC4F85B00400D5
:1039A0000D00109EDDF848805FEA486002D5DFF820
:1039B000487501E0DFF844755FEAC86001D538F06A
:1039C00001085FEAC87002D55FF0300901E05FF0DE
:1039D00020095FF0000A5FEA887013D50598002877
:1039E00005D55FF02D0A0598404205900AE05FEA90
:1039F000487002D55FF02B0A04E05FEA087001D539
:103A00005FF0200A5FF0000B0598002810D13020ED
:103A100000A90BF801001BF1010B0CE0069905A8A9
:103A2000FFF790FFC05D00A90BF801001BF1010B2F
:103A300005980028F2D11198584500DA5846361AF0
:103A400018F0110F11D15FFA8AFABAF1000F08D0FD
:103A5000012E06DB761E04E0A54201D32021217051
:103A6000641C31004E1E0129F6DA5FFA8AFABAF1B7
:103A7000000F05D0A54202D384F800A0761E641C76
:103A80005FEAC86109D404E0A54201D384F800903C
:103A9000641C31004E1E0129F6DA0100481E8B45D8
:103AA0000CDAA54201D330212170641CF5E7A54250
:103AB00003D300A81BF800002070641C5846B0F126
:103AC000010B0128F3DA3000461E012805DBA54270
:103AD00001D320202070641CF5E7200007B0BDE86A
:103AE000F08F2DE9F44F84B005001E002F00481917
:103AF000B0F10108A84518D25FF0FF38B8EB050116
:103B000013E03268361D5FEA89705FFA89F9CDF8F3
:103B100008900194CDF800A0DBB241463800FFF7D1
:103B20003BFF07000498401C04900498007800288C
:103B300000F0438104980078252806D0B84502D3C8
:103B40000498007838707F1CECE75FF0000901E012
:103B500059F010090498401C0490049800782D280E
:103B6000F6D0049800782B2802D159F00409F1E727
:103B700004980078202802D159F00809EAE704984F
:103B80000078232802D159F02009E3E7049800784F
:103B9000302802D159F00109DCE75FF0FF3A0498C0
:103BA000007830380A2804D204A8FFF7E4FE8246E1
:103BB00010E0049800782A280CD10498401C049046
:103BC000D6F800A0361DBAF1000F03D5DAF1000ACD
:103BD00059F010095FF0FF34049800782E2818D1AE
:103BE0000498401C04900498007830380A2804D2C5
:103BF00004A8FFF7C0FE040008E0049800782A2813
:103C000004D10498401C04903468361D002C00D563
:103C10000024002004990978682903D004990978C0
:103C20006C2904D1049800780499491C04910A2352
:103C300004990978252900F08780582900F095809B
:103C4000632913D0642900F09480692900F09180E1
:103C50006F2900F07F8070295FD0732926D07529E5
:103C600000F08980782900F0828085E05FEAC960F1
:103C70000AD404E0B84501D3202038707F1CBAF183
:103C8000010ABAF1010FF5DA3068361DB84500D3E4
:103C900038707F1C04E0B84501D3202038707F1CA9
:103CA000BAF1010ABAF1010FF5DA3BE7D6F800B034
:103CB000361DBBF1000F01D1DFF844B25846FFF7C3
:103CC0000CFE012C02DB844200DA20005FEAC961AD
:103CD0000AD404E0B84501D3202139707F1C514635
:103CE000B1F1010A8842F5DB002108E0B84502D3B2
:103CF0009BF800203A707F1C1BF1010B491C81428C
:103D0000F4DB5146B1F1010A884205DAB84501D326
:103D1000202139707F1CF4E704E71AF1010F03D169
:103D20005FF0080A59F001093268361D5FFA89F917
:103D3000CDF808900194CDF800A01023414638003A
:103D4000FFF72AFE0700EDE6B84501D325203870BD
:103D50007F1CE7E60823C0B26C2821D13268361DEB
:103D60005FEA89707FF5D1AECFE659F040091023A4
:103D7000F1E759F00209EEE7B84501D32520387084
:103D80007F1C04980078002806D0B84502D3049818
:103D9000007838707F1C02E00498401E0490C1E651
:103DA000C0B268287FF4ADAE3268361D92B25FEAC9
:103DB00089707FF5AAAE12B2A7E6B84502D30020FB
:103DC000387002E0002088F80000781B05B0BDE8DC
:103DD000F08F08B400B501ABFFF783FE5DF808FB78
:103DE00048480068704738B546490D68FFF769FBD9
:103DF0000400002C0DD043480068002803D041483F
:103E00000068FFF7F1FB43212000FFF7A4FB3D48CA
:103E10000460280032BD70470EB418B503AB020031
:103E20007F213948FFF75DFE802800D37F20354988
:103E30000968002903D13448FFF7EDFF14E0314948
:103E400009680C8B2F490968098B51F040012D4AF4
:103E50001268118303002C4A00212A480068FFF7EA
:103E600011FC28480068048311BC5DF810FB002891
:103E700001D100201CE0010604D02449C0B2405CFE
:103E8000401C15E010F47F4F05D02049C0F30720F7
:103E9000405C09300CE010F47F0F05D01B49C0F3E3
:103EA0000740405C113003E01849000E405C1930B7
:103EB000704780B500238DF80030154B1B68002B30
:103EC0000AD113000A0001001248FFF7A5FF9DF870
:103ED0000000002803D1FAE70D4B1B68984701BD8D
:103EE000201F002078DA02080CA0020884DA0208F9
:103EF00020A50208DC9502083CC5020828C5020876
:103F000094DE0208241F0020281F0020787D02086C
:103F1000A81F0020D48D020810B50400DFF8300679
:103F20000068844206D28D22DFF82816DFF82806C2
:103F3000FFF7BFFFDFF824060068844206D38E2215
:103F4000DFF81016DFF81806FFF7B3FF60880028C7
:103F500006D08F22DFF8FC15DFF80806FFF7A9FF6F
:103F6000DFF8EC0500686168081884421BD04188BE
:103F7000002918D1DFF8E4150968884213D0DFF86A
:103F8000E8150968814202D1DFF8DC150C60416850
:103F90006160DFF8BC150968611ADFF8B4251268A2
:103FA000406880188160DFF8A8050068A1680818DB
:103FB000A04216D04188002913D1DFF8AC1509685A
:103FC000A14202D1DFF8A015086061684160DFF806
:103FD00080150968401ADFF8781509686268511879
:103FE000886010BD2DE9F04105000E00E81DC408F1
:103FF000E400F708FF0002F0F5FA804602F0ECFA60
:1040000000280BD0DFF86415DFF86405FFF704FF24
:10401000BE22DFF858152EA0FFF74BFF404602F0F6
:10402000E5FA212F4CD3B7F12000A04248D3381B2A
:104030002038DFF840150860DFF814050460DFF869
:10404000100500684FF4F5510180DFF82815096864
:10405000103141600021816000214180DFF8F014BF
:10406000096840684018DFF8F41408604FF4F55010
:10407000DFF8E814096808800120DFF8E014096817
:104080004880DFF8F00400681030DFF8D0140968C9
:104090004860DFF8E00400681030DFF8C0140968F9
:1040A000886000230122DFF8D014DFF8D00400F08C
:1040B00074FDDFF89C040068DFF8AC14086005E0CC
:1040C00032002900DFF8B804FFF7A6FEBDE8F08152
:1040D0003000000038B5040002F084FA050002F058
:1040E0007BFA00280BD0DFF89C14DFF88404FFF77C
:1040F00093FEFB22DFF88C1488A0FFF7DAFE28007D
:1041000002F074FA002C01D1002005E1E01DC00886
:10411000C0008442FFD1E01DC408E400DFF854046D
:104120000068A04201D20020F6E0102C00D210243A
:104130005FF0FF31DFF8440400F0B4FDDFF828043D
:104140000068DFF80C140968401A04E0DFF8001476
:10415000096840184068DFF81C140968091B884288
:1041600080F0D680DFF8E8130968451869880029CF
:10417000ECD16968091A1039A142E7D36968091AB4
:10418000103914F12002914235D321181031DFF893
:10419000C02312688A184FF4F5531380002353800C
:1041A0006B68536090606960012068805068DFF838
:1041B000C4331B681033984205D0DFF894030068BD
:1041C000526810188160DFF8C003006814F1100114
:1041D0000818DFF8B4130860DFF8B0030068DFF8F0
:1041E000A8130968884223D2DFF89C030068DFF82F
:1041F0009C1308601CE001206880DFF88C030068D5
:1042000069680818401BDFF8481309680818DFF8C8
:1042100078130860DFF874030068DFF86C1309682E
:10422000884205D2DFF860030068DFF86013086099
:104230004FF4F5502880DFF83003006885422FD115
:104240000AE0DFF80C030068DFF81C13096849680E
:104250000818DFF814130860DFF80C0300684088C2
:10426000002807D0DFF800030068DFF8F0120968C3
:104270008842E6D1DFF8F0020068DFF8E012096852
:1042800088420DD0DFF8E00200684088002807D09F
:1042900040F25F12DFF8EC12DFF8F402FFF709FEDC
:1042A000DFF8D80200F085FDAC48006861191031D4
:1042B000884207D240F26312DFF8C812DFF8D40256
:1042C000FFF7F7FD15F110000821B0FBF1F202FB3A
:1042D0001102002A05D04FF4B272AA49AE48FFF786
:1042E000E8FD15F00700002805D040F26512A54949
:1042F000AA48FFF7DEFD94480068002805D0210099
:1043000015F11000904A1268904715F1100003E073
:104310009A4800F04EFD002032BD00003000000041
:10432000F8B504000D0002F05DF9060002F054F942
:10433000002809D09A498E48FFF76EFD40F2891295
:10434000974977A0FFF7B5FD300002F04FF9E81D5F
:10435000C508ED0087480068A84201D2002068E047
:10436000002C03D12800FFF7B5FE62E05FF0FF31BB
:10437000824800F097FC76480068844203D377486F
:104380000068844204D37D4800F013FD200050E013
:10439000B4F110016E4800680A1A4868801AB0F13A
:1043A0001006AE4204D1754800F003FD200040E045
:1043B00015F11C00B04226D273480068801B2818F3
:1043C000714B1860A81810F11003614800681818A4
:1043D0004FF4F5550580002545804D6845608260A5
:1043E0004B604168634A12681032914204D05849C8
:1043F0000968426851188B60FFF78EFD5F4800F036
:10440000D8FC200015E05D4800F0D3FC2800FFF741
:1044100061FE0700002F0BD0AE4201D23500FFE74E
:104420002A0021003800FFF7CCF9200000F002F844
:104430003800F2BD38B5040002F0D4F8050002F0EF
:10444000CBF8002809D057494948FFF7E5FC40F26E
:10445000FD12544932A0FFF72CFD280002F0C6F8E7
:10446000002C5CD014F00700002805D040F2012297
:104470004C494D48FFF71DFD35480068844203D381
:1044800036480068844205D340F203224549474834
:10449000FFF70FFD2D480068002803D020002B49AE
:1044A000096888472A480068844203D32B4800687B
:1044B000844200D333E0103C5FF0FF312F4800F01E
:1044C000F1FB6088002805D14FF407723549384860
:1044D000FFF7EFFC2088B0F5F55F05D040F21D2214
:1044E00030493448FFF7E5FC002060804FF4F55078
:1044F00020801D480068844201D21B480460224885
:1045000000686168401A201811490968401A1E495C
:1045100008602000FFF700FD184800F04AFC31BD9C
:104520003000000080B5134801682348FFF774FC91
:10453000154801682148FFF76FFC144801682048BE
:10454000FFF76AFC01BD0000EC1F0020F01F0020F7
:10455000F41F0020A8DA020840A50208F81F002076
:1045600008960208ECD30208FC1F0020B4C502081C
:1045700030A0020820200020A4DE02080020002035
:10458000008C0208B4DA0208242000202820002031
:10459000849A0208E0880208A8850208B4910208FB
:1045A000C0DA0208ACDE0208E49102087C8102084D
:1045B000CCDA020880AC0208C8C50208DCC50208D3
:1045C00060A5020862F30F2262F31F42401810F048
:1045D000030308D0C91A1FD3DB0748BF00F8012D19
:1045E00028BF20F8022D130030B4144615461039A8
:1045F00028BF20E93C00FAD8490728BF20E90C0071
:1046000048BF40F8042D890028BF20F8022D48BF7C
:1046100000F8012D30BC7047C91818BF00F8012DF3
:10462000CB0728BF00F8012D704710B450F8041BC9
:1046300081B102681218001D50F8043BDC0744BF2A
:10464000A9F10104E31852F8044B43F8044B091F85
:10465000F9D1EBE710BC70472DE9F04104460C217D
:10466000206990FBF1F202EB4201B0EB810144BF03
:104670000C31521E002A47D56069C2F100439842AE
:104680004ADB60691518284602F02AF840F26D18D6
:1046900008FB0500A168E56862682368DFF880C050
:1046A000DFF87CE018274FF4B46691FBF7F7281881
:1046B00092FBF6F6381893FBFCFC30186044194D59
:1046C000281807EB4705A1EBC5014FF46165694365
:1046D0000EFB00104FF4B46101FB1621C1EB011277
:1046E00000EB820018180EFB1C05226A29462046A2
:1046F00002F013F8206A0128A8BFA5F5616502F051
:10470000B3F8281ABDE8F081012ABADB6FF0004047
:104710006369801A9842B4DA4FF0FF30BDE8F08147
:1047200080510100209CFFFFF8B504000025002601
:1047300002F0FFF8DFF8707302E03E0030003F1D2A
:10474000DFF8680387420FD23868002803D1002EB3
:10475000F3D00020F3E721683868006802F06EFAB1
:104760000028ECD15FF0FF35002D02D1002E00D0E3
:10477000346002F0ECF82800F2BD2DE9F0410400AD
:1047800000250026002C06D15822DFF82413DFF87C
:104790002403FFF78EFB02F0CCF8DFF81C7302E075
:1047A0003D0046461037DFF81403874221D278686F
:1047B000002802D0B868002800D1F3E7786802F03A
:1047C0006FFA8046B04506D342462100786802F071
:1047D00082FA002800D0E5E7B8F1020FE0D320000C
:1047E00002F05EFA8045DBD218F804002F28D7D0FB
:1047F000D8E702F0ACF82800BDE8F0812DE9F047D9
:1048000088B00C0092461D005FF0000900270028C8
:1048100005D15FF0000802F08CF8A34E0DE0FEF722
:1048200050FE8046B8F1000FF5D17FF01200FEF780
:104830008BFF5FF0FF307CE0361D9C48864208D23B
:10484000002EF9D051463068006802F0F7F90028D0
:10485000F2D102F07CF89548864206D17FF0120032
:10486000FEF772FF5FF0FF3063E03068002803D08E
:1048700030688068002806D17FF02500FEF764FFCD
:104880005FF0FF3055E02100002002F019F9070029
:10489000002F06D17FF01300FEF756FF5FF0FF30C8
:1048A00047E080A1380002F0C9F900281AD08449F5
:1048B000380002F0C3F9002814D05FF40012390068
:1048C00000A802F01DFA002809D53800FFF7B2FD54
:1048D0007FF01300FEF738FF5FF0FF3029E000A8FB
:1048E00002F076FA02F025F8DFF8CCA103E0D14619
:1048F00048461AF1100A714882451DD2DAF80800BC
:10490000002804D1B9F1000FF1D00020F1E7210017
:10491000DAF8040002F092F90028EAD17FF01500DD
:10492000FEF712FF02F013F83800FFF783FD5FF087
:10493000FF3008B0BDE8F087B9F1000F07D15F483C
:10494000824504D17FF01B00FEF7FEFEEAE7C9F8BE
:1049500004703068C9F80800C9F8008001F0F7FF5A
:10496000B8F1000F0ED00321D9F80000FEF7F3FDD7
:10497000002807D001F0DDFF102200214846FEF795
:10498000F7FECFE7109A2900484633689B6898479E
:1049900000280ED5B8F1000F03D0D9F80000FEF7BB
:1049A00023FE01F0C6FF102200214846FEF7E0FE7C
:1049B000B8E70020BDE770B5050008000024002816
:1049C00002D0FEF77EFD0400002C06D17FF012001D
:1049D000FEF7BAFE5FF0FF302FE001F0AAFF0026DD
:1049E00000E0761C042E0DDA2F4850F8260000282F
:1049F000F7D029002C4850F82600006802F01EF974
:104A00000028EED101F0A3FF042E10DA264850F85A
:104A100026100869002806D17FF02500FEF794FED5
:104A20005FF0FF3009E020000969884705E02900B0
:104A30002448FFF7F1F95FF0FF3070BD000010B5BA
:104A40000C00FFF79AFE002808D081684969002908
:104A500004D0210082685269904701E05FF0FF3086
:104A600010BD80B5FFF7A7FF01BDE0B5002800D15C
:104A7000002000A9FFF7E3FF002805D01248FFF748
:104A8000CBF95FF0FF300BE0009802994843800AB1
:104A90000021009B029A01000C48FFF7BDF900209D
:104AA0000EBD00002F000000F40B0020040C0020BD
:104AB00070B60208E4DD0208040C0020240C00207B
:104AC000ECDD0208EC8E020844C20208208F0208C6
:104AD00040604168016070474268116042684A6006
:104AE0004160086070470168814201D1012000E007
:104AF0000020C0B2704780B51430FFF7E9FF0020F6
:104B000002BD70B504000D001600280001F063FB23
:104B1000F6B2002E02D0012E06D01EE015F11401CF
:104B20002000FFF7D9FF18E0266800E03668A642AB
:104B30000CD0B6F1140095F8351090F8352091425C
:104B4000F4D215F114011430FFF7C6FFA64204D1C8
:104B500015F114012000FFF7BFFF002070BD80B5E4
:104B60000068143801F05AFB002002BD38B504007B
:104B70000CE001F037FD0500206814385FF0FF31CC
:104B8000016301F04BFB280001F030FD2000FFF72E
:104B9000AAFF0028EDD0002032BDF8B504000D00BA
:104BA00016001F00002C06D1D822DFF83819DFF8D4
:104BB000D00AFFF77EF92A000121200001F070F8E9
:104BC0002000FFF798FFA68367720020F2BD10B5A2
:104BD0000400002C06D1F522DFF80C19DFF8A00A3A
:104BE000FFF767F914F11400FFF7C0FF200001F090
:104BF0007AF8002010BDF8B504000D00160001F091
:104C0000F1FC070001F0E8FC00280CD0DFF8DC180C
:104C1000DFF8DC08FFF700F940F21112DFF8CC18DA
:104C2000A1A0FFF746F9380001F0E0FC21000120C7
:104C300001F075F80400002C01D1200005E02000EF
:104C4000FFF759FFA58366722000F2BD38B5040056
:104C500001F0C8FC050001F0BFFC00280CD0DFF813
:104C60009418DFF88C08FFF7D7F84FF49872DFF844
:104C700084188DA0FFF71DF9280001F0B7FC002C67
:104C800007D14FF49972DFF86C18DFF8F409FFF7D9
:104C900010F914F11400FFF769FF200001F07FF80C
:104CA000002032BDF2B50400002C07D140F24D12B5
:104CB000DFF8D019DFF8C809FFF7FBF8DFF8C809FB
:104CC0000068002804D02000DFF8BC190968884774
:104CD00001F088FC0500A08B002811D0A08B401E9D
:104CE000A083280001F082FCDFF8A00900680028FA
:104CF00004D02000DFF89419096888470020F2BD2D
:104D00000098002805D1280001F070FC7FF0010018
:104D1000F5E701F067FC060001F04FF900280CD11F
:104D2000DFF86019DFF86809FFF776F840F26D12D6
:104D3000DFF850195CA0FFF7BCF801F053FC070046
:104D400001F04AFC00280CD0DFF83819DFF8A00782
:104D5000FFF762F840F26D12DFF8281952A0FFF752
:104D6000A8F8380001F042FC300001F03FFC01F0EF
:104D700024F9060000203063627A310014F1140037
:104D8000FFF7BFFE0098012809DB00AA002116F1F9
:104D90004C0002F0A7FC16F14C0002F0ECFB2800DE
:104DA00001F024FC01F03EFB306B00289CD0306BFE
:104DB000A5E770B50400DFF8A80A0068002804D051
:104DC0002000DFF89C1A09688847002601F00AFCD9
:104DD000050014F11400FFF786FE002805D114F138
:104DE0001400FFF7BCFE012602E0A08B401CA0834C
:104DF000280001F0FBFB012E01D101F013FB002084
:104E000070BD70B504000D001600002C07D140F2F3
:104E10000F22DFF8401ADFF8040BFFF74AF82A00E8
:104E20000221200000F03CFF2000FFF764FE01207B
:104E3000A08300202062FF20A0770020E077667228
:104E4000002070BD70B504000D0001F0CBFB060022
:104E500001F0C2FB00280CD0DFF8FC19DFF8900647
:104E6000FEF7DAFF40F24922DFF8EC19CAA0FFF79B
:104E700020F8300001F0BAFB2100022000F04FFFC3
:104E80000400002C01D120000CE02000FFF733FECD
:104E90000120A08300202062FF20A0770020E0777F
:104EA0006572200070BD00003000000038B50400BD
:104EB00001F098FB050001F08FFB00280CD0DFF813
:104EC000A419DFF82C06FEF7A7FF40F26A22DFF8EC
:104ED0009419B1A0FEF7EDFF280001F087FB002C2C
:104EE00007D14FF41B72DFF87C19DFF8300AFEF7A8
:104EF000E0FF14F11400FFF739FE200000F04FFF2F
:104F0000002032BD73B5040001F06CFB050001F018
:104F100054F800280CD1DFF85019DFF87407FEF7B9
:104F20007BFF4FF42272DFF840199BA0FEF7C1FF10
:104F300001F058FB060001F04FFB00280CD0DFF811
:104F40002819DFF8AC05FEF767FF4FF42272DFF88F
:104F5000181991A0FEF7ADFF300001F047FB2800C3
:104F600001F044FB002C07D140F28A22DFF8F81848
:104F7000DFF8A809FEF79DFF01F034FB050001F002
:104F80001CF80600DFF800070068002804D02000A5
:104F9000DFF8F4160968884700203063206AB042C1
:104FA00003D1E07F401CE07746E0A08B00280AD0C8
:104FB000A08B401EA083266296F83500A077E07F84
:104FC000401CE07738E00198002808D17FF001000C
:104FD0003063280001F00AFB7FF001003AE096F808
:104FE0003500216A91F83510884205D216F1350254
:104FF0000221206A01F0B0F8627A310014F1140045
:10500000FFF77FFD0198012809DB01AA002116F1B5
:105010004C0002F067FB16F14C0002F0ACFA2800DD
:1050200001F0E4FA01F0FEF9306B002801D0306B9A
:1050300010E001F0D7FA0500280001F0D7FADFF8F8
:105040004C060068002804D02000DFF840160968EC
:105050008847002076BDF8B50400002501F0C2FAAB
:10506000060000F0AAFF00280CD1DFF81419DFF8C1
:105070002006FEF7D1FE40F20D32DFF8041946A0FB
:10508000FEF717FF01F0AEFA070001F0A5FA0028BD
:105090000CD0DFF8EC18DFF85804FEF7BDFE40F244
:1050A0000D32DFF8DC183CA0FEF703FF380001F0FA
:1050B0009DFA300001F09AFA00F07FFF060001F03F
:1050C00091FA0700DFF898070068002804D0200054
:1050D000DFF88C1709688847206A864208D05FF09D
:1050E000FF303063380001F081FA5FF0FF3036E0C6
:1050F000E07F401EE077E07F002828D1A07F216A72
:1051000091F83510884205D014F11E020221206A60
:1051100001F022F814F11400FFF7E5FC00280FD18C
:105120006069B0F11406266296F83500A077E07F3A
:10513000401CE07714F11400FFF711FD012506E093
:10514000A08B401CA08300202062FF20A0773800A5
:1051500001F04CFA012D01D101F064F90020F2BDFB
:1051600070B504000D001600002C07D140F27B3210
:10517000DFF8F818DFF8F808FEF79BFE2A00032195
:10518000200000F08DFD66722000FFF7B4FC0020C7
:10519000E061002070BD000030000000F8B50400A0
:1051A0000E00002C07D140F2EF32DFF8C818DFF80C
:1051B000C008FEF77EFE002E02D15FF0FF304FE008
:1051C0000025DFF86C0A0068002804D02000DFF812
:1051D000601A0968884701F005FA0700E069304362
:1051E000E06114F11400FFF77EFC002830D16669FD
:1051F0001AE090F84020920708D5C26BE3691A4282
:1052000004D0C16BE2691140C163002136680029F6
:105210000AD190F84010490703D5E169C26B914368
:10522000E16100F0FBFF012514F1140086420FD06C
:10523000B6F114005FF0FF3190F84020D207D8D5C6
:10524000C26BE3691A40C36B9A42DFD10021DDE7EC
:10525000380001F0CBF9012D01D101F0E3F8002075
:10526000F2BD2DE9FC4704000D00160001F0BAF96B
:10527000070000F0A2FE00280CD1DFF8B019DFF81B
:105280001004FEF7C9FD40F24F42DFF8A01952A00A
:10529000FEF70FFE01F0A6F9804601F09DF9002807
:1052A0000BD0DFF888199248FEF7B6FD40F24F4266
:1052B000DFF8781948A0FEF7FCFD404601F096F9AA
:1052C000380001F093F9002C07D140F25242DFF888
:1052D0005C19DFF89C07FEF7ECFD002D02D15FF0B2
:1052E000FF3077E05FF0FF3700F067FE8046002078
:1052F000C8F83000DFF890030068002804D02000D0
:10530000DFF884130968884701F06CF98146F007DB
:1053100005D5E0692840A8420FD100270DE0B0076D
:1053200004D5E069284208D0002706E04FF48E62D9
:10533000DFF8F81828A0FEF7BCFDDDF828A0002F44
:1053400009D1E0692840CAF80000700735D5E06946
:10535000A843E06131E00198002804D17FF001000A
:10536000C8F8300029E0C8F83C5088F84060627AFC
:10537000414614F11400FFF7C4FB0198012809DB32
:1053800001AA002118F14C0002F0ACF918F14C0010
:1053900002F0F1F8484601F029F901F043F8D8F895
:1053A0003000002802D0D8F8300013E001F01AF9DC
:1053B0008146D8F83C00CAF80000484601F016F9CA
:1053C000B2480068002803D02000B0490968884727
:1053D000D8F83000BDE8F68730000000F8B50400CA
:1053E0000D0016001F00002C07D140F2EB42DFF841
:1053F0004818DFF84808FEF75CFD2A000421200069
:1054000000F04EFC069860722000FFF774FBE66126
:105410002784002060840020A0840020E08414F110
:105420002800FFF755FB0020F2BD10B50400002C4A
:1054300007D140F20E52DFF80818DFF80008FEF737
:1054400038FD14F11400FFF791FB14F12800FFF769
:105450008DFB200000F047FC002010BDF8B50400D3
:105460000D00160001F0BEF8070001F0B5F80028A5
:105470000BD0DFF8D0171E48FEF7CEFC40F22A52C0
:10548000DFF8C01716A0FEF714FD380001F0AEF8E3
:105490002100042000F043FC0400002C01D1200076
:1054A0001CE066722000FFF726FB2584208C80001C
:1054B000FEF710FEE061E069002804D1200000F052
:1054C0006EFC00200AE0002060840020A084002000
:1054D000E08414F12800FFF7FBFA2000F2BD000081
:1054E0003000000024DA0208CCD20208DCD2020824
:1054F000E89F0208ECD202082DE9F64704000D00EF
:10550000002C07D140F28552DFF83C17DFF82C075A
:10551000FEF7CFFC5FF0000800F04FFD0600DFF85B
:1055200040030068002804D02000DFF83413096825
:10553000884701F057F80700608C218C88421BD106
:105540000198002818D1380001F050F87FF00200CF
:1055500093E001F047F80700019801280CDB02F006
:1055600050F9B0EB08080198B0EB080001900198E1
:10557000002801D500200190608C218C884257D1F1
:10558000002030630198002805D1380001F02EF882
:105590007FF0020071E001F025F8814600F00DFD7A
:1055A00000280BD1DFF8A0163948FEF735FC4FF480
:1055B000B562DFF89416A9A0FEF77BFC01F012F8A3
:1055C000824601F009F800280CD0DFF87C16DFF8DD
:1055D0007C06FEF721FC4FF4B562DFF86C169FA045
:1055E000FEF767FC504601F001F8484600F0FEFF68
:1055F000627A310014F12800FFF783FA019801283C
:105600000CDB02F0FEF8804601AA002116F14C00E6
:1056100002F068F816F14C0001F0ADFF380000F020
:10562000E5FF00F0FFFE306B002892D0306B24E0E5
:10563000E069A18C40F82150A08C401CA084A08C73
:10564000218C884201D30020A084608C401C60849F
:1056500014F11400FFF747FA00280AD114F11400DE
:10566000FFF77DFA380000F0C1FF00F0DBFE0020FC
:1056700003E0380000F0BAFF0020BDE8F687000024
:10568000BCD2020830DA02089C200020A0200020B2
:105690009C8D020880B50022FFF72EFF02BD2DE988
:1056A000F64704000D00002C07D140F21662DFF827
:1056B000A015DFF88805FEF7FCFB5FF0000800F09E
:1056C0007CFC0600DFF88C050068002804D0200070
:1056D000DFF880150968884700F084FF0700608CB8
:1056E00000281BD10198002818D1380000F07EFF57
:1056F0007FF00100ABE000F075FF07000198012882
:105700000CDB02F07EF8B0EB08080198B0EB080063
:1057100001900198002801D500200190608C00289C
:105720005BD1002030630198002808D1380000F0D8
:105730005DFF7FF0010030637FF0010087E000F043
:1057400051FF814600F039FC00280CD1DFF800152C
:10575000DFF80405FEF760FB40F23B62DFF8F0146F
:105760003EA0FEF7A6FB00F03DFF824600F034FFAE
:1057700000280CD0DFF8D814DFF8D004FEF74CFB7B
:1057800040F23B62DFF8C81434A0FEF792FB5046AB
:1057900000F02CFF484600F029FF627A310014F136
:1057A0001400FFF7AEF9019801280CDB02F029F88C
:1057B000804601AA002116F14C0001F093FF16F17A
:1057C0004C0001F0D8FE380000F010FF00F02AFE77
:1057D000306B00288FD0306B39E0E069E18C50F8F5
:1057E00021002860E08C401CE084E08C218C884201
:1057F00001D30020E084608C401E608414F12800F6
:10580000FFF771F9002814D114F12800FFF7A7F968
:10581000380000F0EBFEDFF844040068002804D0F4
:105820002000DFF838140968884700F0FBFD0020ED
:105830000DE0380000F0DAFEDFF8200400680028F0
:1058400004D02000DFF81414096888470020BDE860
:10585000F6870000FCD202080CD3020830000000DA
:10586000A42000201CD302082CD302082DE9F0410B
:1058700005000E0014001F0000F0B4FE804600F08A
:10588000ABFE00280CD0DFF8DC13DFF8C003FEF716
:10589000C3FA40F22672DFF8CC133AA0FEF709FBF8
:1058A000404600F0A3FE2900052000F038FA05006C
:1058B000002D01D128002FE06F722800FFF71BF99F
:1058C000F01D4FF6F871084028846C84288C001D68
:1058D000698C4843FEF7FEFBE861E869002804D1C3
:1058E000280000F01DF8002016E00020A86200202B
:1058F000E86200202863002108E0E8692A8C121D74
:1059000002FB01002A6B02602863491C688C8142FB
:10591000F3DB0020A8842800BDE8F081D8C4020889
:1059200038B5040000F05EFE050000F055FE0028CA
:105930000CD0DFF83413DFF81403FEF76DFA4FF4E0
:10594000EC62DFF824130FA0FEF7B3FA280000F092
:105950004DFE002C07D140F26372DFF80C13DFF824
:105960000003FEF7A6FA14F11400FFF7FFF8E06950
:10597000FEF760FD200000F012FA002032BD0000AA
:10598000ECC40208300000002DE9F04104000D00D5
:105990001600002C07D140F28972DFF8D012DFF830
:1059A000C002FEF786FA002D07D140F28A72DFF8B6
:1059B000BC12DFF8BC02FEF77CFA002E07D140F2E1
:1059C0008B72DFF8A812DFF8AC02FEF772FA208CB7
:1059D000B04202D25FF0FF3046E0DFF854020068C8
:1059E000002804D02000DFF848120968884700F03A
:1059F000F9FD8046276B002F05D1404600F0F6FDEB
:105A00007FF0020030E038682063404600F0EEFD91
:105A10000020386032002900381DFDF7D2FE00F06A
:105A2000E1FD8046E06A002801D0E06A0760E76295
:105A3000A06A002800D1A762A08C401CA08414F1A9
:105A40001400FFF750F800280AD114F11400FFF7F2
:105A500086F8404600F0CAFD00F0E4FC002003E0B8
:105A6000404600F0C3FD0020BDE8F0813CD30208B1
:105A700000C502084CD302082DE9F84F05000E00BE
:105A80001400002D05D140F639027B497448FEF719
:105A900010FA002E05D140F63A0277497448FEF715
:105AA00008FA002C05D140F63B0273497148FEF715
:105AB00000FA5FF0000900F080FA8046654800684F
:105AC000002803D0280063490968884700F08AFD50
:105AD0000700A88C00281BD10098002818D1380096
