:020000040800F2
:10000000104D002031EE020869AE0208E56C0008D0
:100010006BAE02086DAE02086FAE02080000000071
:1000200000000000000000000000000071AE0208A7
:1000300073AE020800000000716C0008631502082E
:10004000BDF60208C1F60208C5F60208C9F60208A4
:10005000CDF60208D1F60208D5F60208D9F6020854
:10006000DDF60208E1F60208E5F60208E9F6020804
:10007000EDF60208F1F60208F5F60208F9F60208B4
:10008000FDF6020801F7020805F7020809F7020861
:100090000DF7020811F7020815F702088D3702085C
:1000A0001DF7020821F7020825F7020829F70208C0
:1000B0002DF7020831F7020835F7020839F7020870
:1000C0003DF7020841F7020845F7020849F7020820
:1000D0004DF7020875AE02088DAE020859F7020806
:1000E0005DF7020861F7020865F7020800000000EA
:1000F0000000000000000000000000000000000000
:10010000000000000000000069F702086DF7020817
:1001100071F7020875F7020879F702087DF70208FF
:1001200081F7020885F7020889F702088DF70208AF
:1001300091F7020811FB010899F702089DF70208E0
:10014000A1F70208A5F70208A9F70208ADF702080F
:1001500003E00B780370491C401C13005A1E002B4F
:10016000F7D1704701E00170401C13005A1E002BAC
:10017000F9D1704710B400231400621E002C06D081
:1001800003780C781B1B491C401C002BF4D0180072
:1001900010BC704700E0401C0278002A02D00278B0
:1001A0008A42F8D10078704780B5C06803F0D9F969
:1001B00002BD80B5C9B20C290BD0C9B20B2908D039
:1001C000C9B2092905D0C9B20F2902D0C06803F00D
:1001D000D3F901BDF8B504000D00266BAE4231D055
:1001E0002079002820D00123320014F134016078F6
:1001F00003F004F9002801D0012024E00020207140
:10020000606A216A081886420ED2E77809E0206AFF
:1002100086190123320014F13401607803F0EEF8FE
:100220007F1EFFB2022FF2DA002D0BD001232A002D
:1002300014F13401607803F0CDF8002801D00120DA
:1002400001E025630020F2BD38B504000021200044
:10025000FFF7C0FF0500EDB2002D5DD12078032827
:1002600052D1607900284FD0002020634FF40072F3
:10027000002114F13400FFF775FF552084F8320295
:10028000AA2084F83302522084F83400522084F8E3
:100290003500612084F83600412084F83700722050
:1002A00084F81802722084F81902412084F81A0296
:1002B000612084F81B02606984F81C02606980B2C6
:1002C000000A84F81D026069000C84F81E0260694F
:1002D000000E84F81F02206984F82002206980B291
:1002E000000A84F821022069000C84F822022069A7
:1002F000000E84F823020123A26914F1340160780E
:1003000003F07CF80020607100220021607803F087
:1003100089F8002800D001252800C0B232BD891E0E
:10032000C269921E914201D3002003E08278C06A24
:1003300002FB01007047F8B504000D00022D02D346
:10034000E069854201D3012016E02078012804D01D
:1003500010D3032850D034D30CE02E0016EB5606F1
:10036000606A6189B6FBF1F109182000FFF732FFDE
:10037000002802D05FF0FF30F2BD6089B6FBF0F1DB
:1003800000FB1160001990F83470761C606A618976
:10039000B6FBF1F109182000FFF71CFF0028E9D196
:1003A0006089B6FBF0F100FB1160001990F8340091
:1003B00057EA0027E80701D5380901E03805000DA4
:1003C000DAE7606A6189022291FBF2F1B5FBF1F193
:1003D00009182000FFF7FEFE0028CBD168006189D4
:1003E000B0FBF1F201FB12000019343041780078C3
:1003F00050EA012080B2BFE7606A6189042291FB64
:10040000F2F1B5FBF1F109182000FFF7E3FE002837
:10041000B0D1A8006189B0FBF1F201FB1200001914
:100420003430C1788278120452EA0161427851EA8C
:10043000022100780843000100099DE7F8B5040097
:100440000D001600022D02D3E069854201D302207F
:100450008DE02078012805D0C0F0868003285ED08A
:1004600042D381E02F0017EB5707606A6189B7FB21
:10047000F1F109182000FFF7ADFEC0B2002874D1D9
:100480006089B7FBF0F100FB1170001910F1340125
:10049000E80705D5087810F00F0050EA061000E0D4
:1004A000300008707F1C01202071606A6189B7FBF1
:1004B000F1F109182000FFF78DFEC0B2002854D1D9
:1004C0006189B7FBF1F201FB127109193431EA07B6
:1004D00001D5320906E00A7812F0F002330A13F06F
:1004E0000F031A430A7040E0606A6189022291FB9F
:1004F000F2F1B5FBF1F109182000FFF76BFEC0B275
:10050000002832D169006289B1FBF2F302FB1311BA
:10051000091934310E70B6B2320A4A7025E0606AA9
:100520006189042291FBF2F1B5FBF1F10918200079
:10053000FFF750FEC0B2002817D1A9006289B1FBB5
:10054000F2F302FB131109193431CA78120612F0C2
:10055000704216430E70320092B2120A4A70320C88
:100560008A70320ECA7000E0022001212171C0B2EF
:10057000F2BDF8B504000E00022E02D3E0698642F7
:1005800001D3022527E0002509E0606910F1010F81
:1005900004D06069401C6061012060713E00E06928
:1005A000864218D231002000FFF7C5FE0700002F59
:1005B00011D0012F01D102250DE017F1010F01D15A
:1005C000012508E0002231002000FFF737FF050079
:1005D000EDB2002DD9D02800C0B2F2BDF8B50400AC
:1005E0000E00002E07D12769002F02D0E069874254
:1005F0000DD301270BE031002000FFF79CFE0228FD
:1006000001D2012043E0E169884240D337003D0038
:100610006D1CE069854204D30225AF4201D200205F
:1006200035E029002000FFF786FE00281DD17FF06D
:10063000704229002000FFF701FFC0B2002806D158
:10064000002E04D02A0031002000FFF7F7FEC0B2D0
:10065000002814D12561606910F1010F16D060697E
:10066000401E60610120607110E010F1010F01D0A7
:10067000012800D10BE0BD42CAD1002007E0C0B282
:10068000012802D15FF0FF3500E001252800F2BD0E
:10069000426A121D03685B89B1FBF3F10068807840
:1006A000B1FBF0F001E0401A121D1168121D002983
:1006B00001D1002003E08842F5D211680818704784
:1006C00070B504000D00E580A068012803D0216802
:1006D000C969884201D302205DE0002805D1216864
:1006E0000978032901D12068806A002814D1E060CC
:1006F00020680089ADB2854201D302204BE020681A
:10070000806A21684989202291FBF2F1ADB295FB04
:10071000F1F1081820612EE021684989202291FB1F
:10072000F2F12268927802FB01F600E0AD1BADB257
:10073000B6B2B54210D301002068FFF7FCFD10F1FE
:10074000010F01D1012026E0022803D32168C969E5
:100750008842EBD302201EE0E06001002068FFF732
:10076000DEFD21684989202291FBF2F1ADB295FBB3
:10077000F1F108182061ADB220684089202190FB7A
:10078000F1F095FBF0F100FB1150216811EB4010E6
:1007900034306061002070BDF8B504000E00E088C0
:1007A000451CADB2002D02D02069002801D10420E3
:1007B00097E0ADB220684089202190FBF1F095FBD5
:1007C000F0F100FB115000287AD12069401C206113
:1007D000E068002806D120680089ADB285426FD359
:1007E00004207EE020684089202190FBF1F0ADB22A
:1007F00095FBF0F021688978491E084260D1E168D4
:100800002068FFF798FD0700022F01D2022068E060
:1008100017F1010F01D1012063E02068C069874210
:1008200048D3002E01D104205BE0E1682068FFF787
:10083000D5FE0700002F01D1072052E0012F01D182
:1008400002204EE017F1010F01D1012049E0002103
:100850002068FFF7BFFC002801D0012041E020689C
:100860004289002120683430FFF77CFC3900206881
:10087000FFF755FD21680863002605E02068006B3E
:10088000401C21680863761C20688078F6B2864296
:100890000AD220680121017100212068FFF79AFC2B
:1008A0000028EBD001201CE02068006BF6B2801B12
:1008B00021680863E76039002068FFF730FD206198
:1008C000E580ADB220684089202190FBF1F095FBD6
:1008D000F0F100FB1150216811EB401034306061E1
:1008E0000020F2BD38B5040000212000FFF7E8FE2B
:1008F0000500EDB2002D02D02800C0B221E0216930
:100900002068FFF767FC0500EDB2002D17D1606984
:100910000178C9B2002901D1042510E0C17A090784
:1009200005D40B22A169FFF725FC002807D0002180
:100930002000FFF731FF0500EDB2002DDFD02800C9
:10094000C0B232BD10B504000420216900291DD0B9
:1009500021692068FFF73EFCC0B2002816D1626909
:100960001178C9B2002901D104200FE0C9B2E529EC
:1009700005D0C9B22E2902D0D17A090706D50021A7
:100980002000FFF709FFC0B20028DED0C0B2002867
:1009900001D000212161C0B210BD70B5040000215A
:1009A0002000FFF78DFE0500EDB2002D18D1216962
:1009B0002068FFF70FFC0500EDB2002D10D1606933
:1009C0000078C0B2E52802D0C0B2002800D107E00C
:1009D00001212000FFF7E0FE0500EDB2002DE6D07A
:1009E000EDB2002D15D121692068FFF7F3FB05005A
:1009F000EDB2002D0DD16669202200213000FFF7F5
:100A0000B1FB0B22A1693000FFF7A2FB2068012196
:100A100001712800C0B270BD10B50400E18820004B
:100A2000FFF74EFEC0B200280CD121692068FFF705
:100A3000D1FBC0B2002805D16169E5220A702168A6
:100A400001220A71C0B210BD2DE9F84F0E00D6F890
:100A5000009001E019F1010999F800102F29F9D04F
:100A600099F800105C29F5D087690B222021380005
:100A7000FFF778FB5FF0000A55465FFA8AFA5446A2
:100A80005FF0080803E008245FF00B08AD001AF8D7
:100A900009B01AF1010A5FFA8BFBBBF1210F09DBE8
:100AA0005FFA8BFBBBF12F0F04D05FFA8BFBBBF11E
:100AB0005C0F0AD11AEB090030605FFA8BFBBBF1C7
:100AC000210F61DA5FF0040B60E05FFA8BFBBBF192
:100AD0002E0F01D0444509D3B8F1080F04D15FFAB5
:100AE0008BFBBBF12E0FCED006206DE05FFA8BFBA7
:100AF000BBF1800F01DB55F003055FFA8BFBBBF107
:100B0000810F1FDB5FFA8BFBBBF1FF0F1AD01AF8C6
:100B100009001AF1010AC0B2B0F140013F2905D322
:100B2000C0B2802806DBC0B2FF2803D0B8F10101B3
:100B30008C4201D3062047E004F807B0641CE0555E
:100B4000641CA4E75FFA8BFB5946DFF82006FFF729
:100B500021FB002801D0062036E05FFA8BFBBBF1B9
:100B600041001A2802D255F0020509E05FFA8BFB1A
:100B7000BBF161001A2803D255F00105BBF1200B2F
:100B800004F807B0641C82E75FF0000B002C01D171
:100B9000062019E03878E52801D105203870B8F131
:100BA000080F00D1AD00EDB215F00300012801D10E
:100BB0005BF0100BEDB215F00C00042801D15BF0D6
:100BC000080B87F80BB00020BDE8F28F10B401F2DB
:100BD00009020369002B38D04069047B002306E03A
:100BE000E4B2052C00D1E5241470521C5B1C082BC8
:100BF00003D21C5CE4B2202CF2D1037A202B0DD05E
:100C00002E231370521C082302E01470521C5B1C2C
:100C10000B2B03D21C5CE4B2202CF6D1C37A0B72EE
:100C2000C37F847F240454EA0363447F53EA04238C
:100C3000047F23430B60437E047E54EA03238B80AE
:100C4000C37D807D50EA0320C8800020107010BC56
:100C5000704713B50400019800782F2803D001983D
:100C600000785C2802D10198401C01900020A0600F
:100C700001980078202813D200212000FFF720FDE2
:100C80000021616129E0417D027D52EA012189B2A2
:100C9000C27E807E50EA022080B250EA0140A0600D
:100CA00001A92000FFF7D0FEC0B2002815D1200016
:100CB000FFF718FEA169C97AC0B2002806D0C0B2F9
:100CC00004280AD1490700D4052006E0490704D4C6
:100CD0006069C17AC906D6D40520C0B216BD10B568
:100CE000040001230A0014F13401607802F072FB61
:100CF000002801D003202DE094F8330294F832123A
:100D000051EA002080B24AF65521884201D00220E3
:100D100020E094F86C0094F86B10090251EA00404E
:100D200094F86A100843DFF84814884201D1002083
:100D300010E094F8880094F88710090251EA004006
:100D400094F886100843DFF82814884201D1002067
:100D500000E0012010BDF8B5150002681378B3F16A
:100D600030060A2E05D253783A2B02D1921C02602B
:100D700000E00026022E01D30B20AEE1DFF8F403E1
:100D800050F826400C60002C01D10C20A5E1200079
:100D9000FFF70AFA002801D10F209EE120780028F1
:100DA0000ED0607802F014FB0700F80708D4EDB20B
:100DB000002D03D0780701D50A208EE100208CE1B8
:100DC000002020706670607802F000FB0700F807D2
:100DD00001D5032081E114F10A020221607802F0BA
:100DE00021FB002801D0012077E1EDB2002D03D0D6
:100DF000780701D50A2070E1002529002000FFF7BF
:100E00006EFF0600F6B2012E14D104F2F210017941
:100E100000290FD0C17A827A120452EA0161427A23
:100E200051EA0221007A50EA010529002000FFF76B
:100E300056FF0600F6B2032E01D101204DE1F6B2B5
:100E4000002E01D00D2048E194F8400094F83F10A6
:100E500051EA0020618980B2884201D00D203CE136
:100E600094F84B0094F84A1051EA002080B2002810
:100E70000DD194F85B0094F85A10090451EA00600F
:100E800094F8591050EA012094F858100843206251
:100E900094F84410E170C9B2012904D0C9B2022902
:100EA00001D00D2019E1C9B2484394F84110A17056
:100EB000C9B2002903D04A1EC9B2114201D00D2087
:100EC0000BE194F8461094F8452052EA0121218163
:100ED00021896289202392FBF3F291FBF2F302FB5A
:100EE0001311002901D00D20F7E094F8481094F870
:100EF000472052EA012292B2002A0DD194F85710ED
:100F000094F85620120452EA016194F8552051EAEF
:100F1000022194F854200A4394F8431094F8423084
:100F200053EA012189B2002901D10D20D5E089B20F
:100F300043186689202796FBF7F6278997FBF6F674
:100F4000F3189A4201D20D20C7E0D21AA678B2FB5C
:100F5000F6F2002A01D10D20BFE0012640F6F67717
:100F6000BA4200D302264FF6F677BA4200D30326E0
:100F7000921CE2615A19E26289B249196162F6B2C1
:100F8000032E16D12089002801D00D20A5E094F869
:100F9000630094F86210090451EA006094F861104B
:100FA00050EA012094F860100843A062E0698000D4
:100FB00015E02189002901D10D208EE0616A4018D9
:100FC000A062F6B2022E02D1E069400007E0E069BB
:100FD00003214843217F11F0010111EB5000618989
:100FE000491E08186189B0FBF1F0216A814201D2E3
:100FF0000D2072E05FF0FF30606100202061F6B2EA
:10100000032E5ED10020607194F8650094F864109E
:1010100051EA002080B24019A0610123A26914F1B5
:101020003401607802F0D6F900284AD194F83302EE
:1010300094F8321251EA002080B24AF655218842D3
:101040003FD194F8370094F83610090451EA006053
:1010500094F8351050EA012094F8341008434649BA
:1010600088422ED194F81B0294F81A12090451EA0E
:10107000006094F8191250EA012094F818120843FD
:101080003E4988421DD194F8230294F822120904A3
:1010900051EA006094F8211250EA012094F82012DD
:1010A0000843206194F81F0294F81E12090451EAC3
:1010B000006094F81D1250EA012094F81C120843B5
:1010C000606126702E480088401C2D490880E08011
:1010D00000202063002020710020F2BD10B5040024
:1010E000002C06D02078002803D0E08889B28842FE
:1010F00001D009200EE02000FFF756F8002801D1AA
:101100000F2007E0607802F063F9C00701D50320E3
:1011100000E0002010BD70B504000D00E4B2022C08
:1011200001DB0B2021E0E4B2124850F82460002ECD
:1011300008D0F06802F00EFA002801D1022014E075
:1011400000203070002D0BD00020287015F10C010C
:101150002000C0B202F0BEF9002801D1022004E054
:10116000E4B2044840F82450002070BD30E8020882
:1011700046415400C81A00205252614172724161C6
:10118000F84A00202DE9F2438AB00400150000203F
:10119000206015F01F0515F0FE0200A90AA8FFF750
:1011A000DAFD060007A80690F6B2002E04D10A99CF
:1011B00000A8FFF74EFD0600059FF6B2002E02D1F3
:1011C000002F00D106261C20054263D0F6B2002E67
:1011D0000AD0F6B2042E03D100A8FFF7DEFB06000A
:1011E00055F00805059F08E0F87A1121084201D062
:1011F000072602E0680700D50826F6B2002E57D170
:10120000280755D502F064F9804687F80E804046DD
:1012100080B2000AF8735FEA184038745FEA186019
:1012200078740020F872002038770020787700204A
:10123000B8770020F877787D397D51EA002080B2B8
:10124000F97EBA7E52EA012189B251EA00490020B2
:10125000B8760020F8760020387500207875009860
:1012600001210171B9F1000F22D00098D0F830802F
:1012700049460098FFF77DF90600F6B2002E17D117
:101280000098B9F10101016141460098FEF7A2FF03
:1012900006000DE0F6B2002E0AD1F87AC00601D59C
:1012A000042605E0A80703D5F87AC00700D507266D
:1012B000F6B2002E07D1280701D555F02005009879
:1012C000006BE0612762F6B2002E23D1A571787D14
:1012D000397D51EA002080B2F97EBA7E52EA0121BE
:1012E00089B251EA00402061F87FB97F090451EAD0
:1012F0000060797F50EA0120397F0843E0600020D8
:10130000A0600020A061002060620098206000982A
:10131000C088A0803100C9B20098FEF74AFF3000B3
:10132000C0B20BB0BDE8F0832DE9F0470500160010
:101330001F000C0000203860A9882868FFF7CEFE47
:1013400080465FFA88F8B8F1000F07D04146C9B26D
:101350002868FEF72EFF4046C0B219E1A8790006C2
:1013600005D502212868FEF724FF022010E1A879A4
:10137000C00705D407212868FEF71BFF072007E1F7
:10138000E868A968401AB0422AD2060028E0C5F8E9
:101390001890A868296849892A685289121AB0FBEE
:1013A000F1F001FB0028464500D2B046A868296844
:1013B00049894246B0FBF1F301FB1300401910F1DB
:1013C00028012000FEF7C4FE18EB0404A86818EBFF
:1013D0000000A860386818EB00003860B6EB08061B
:1013E000002E00F0D080A86829684989B0FBF1F28E
:1013F00001FB12000028CCD1A86829684989B0FBFC
:10140000F1F029688978491E11EA00085FFA88F826
:10141000B8F1000F2AD1A868002801D128690BE093
:10142000686A002804D0A9682800FFF731F903E0B2
:1014300069692868FEF77FFF022809D2A87950F071
:101440008000A87102212868FEF7B3FE02209FE009
:1014500010F1010F09D1A87950F08000A871012185
:101460002868FEF7A6FE012092E068616969286895
:10147000FEF755FF8146B9F1000F09D1A87950F068
:101480008000A87102212868FEF793FE02207FE009
:101490005FFA88F818EB090928684089B6FBF0FA6A
:1014A000BAF1000F3BD0286880785FFA88F81AEB11
:1014B0000801884205D2286880785FFA88F8B0EB86
:1014C000080A5346DBB24A4621002868407801F0FA
:1014D00081FF002809D0A87950F08000A87101216F
:1014E0002868FEF766FE012052E0A879400611D573
:1014F000A869B0EB090050450CD22868428915F163
:101500002801A869B0EB09002B685B8903FB004048
:10151000FEF71EFE286840890AFB00F854E7A86918
:1015200048453FF434AFA879400617D50123AA698E
:1015300015F128012868407801F060FF002809D0E3
:10154000A87950F08000A87101212868FEF731FECB
:1015500001201DE0A87910F0BF00A87101234A46C0
:1015600015F128012868407801F034FF00283FF485
:101570000EAFA87950F08000A87101212868FEF70D
:1015800018FE012004E000212868FEF712FE00206A
:10159000BDE8F0872DE9F047050016001F000C009C
:1015A00000203860A9882868FFF798FD80465FFA18
:1015B00088F8B8F1000F07D04146C9B22868FEF795
:1015C000F8FD4046C0B287E0A879000605D50221A3
:1015D0002868FEF7EEFD02207EE0A879800705D49A
:1015E00007212868FEF7E5FD072075E0E868301858
:1015F000E96888422DD200262BE0C5F81890A8682B
:10160000296849892A685289121AB0FBF1F001FB56
:101610000028464500D2B046A86829684B89424652
:101620002100B0FBF3FC03FB1C0040192830FEF73F
:101630008FFDA87950F04000A87118EB0404A86849
:1016400018EB0000A860386818EB00003860B6EBB3
:101650000806002E31D0A86829684989B0FBF1F24C
:1016600001FB12000028CAD1A86829684989B0FB8B
:10167000F1F029688978491E11EA00085FFA88F8B4
:10168000B8F1000F44D1A868002808D128690028C3
:1016900011D100212868FEF7A1FF28610BE0686ADC
:1016A000002804D0A9682800FEF7F2FF03E069696A
:1016B0002868FEF793FF002810D1E868A9688842DF
:1016C00001D2A868E860A87950F02000A871002134
:1016D0002868FEF76EFD0020BDE8F087012809D1DB
:1016E000A87950F08000A87102212868FEF761FDFA
:1016F0000220F1E710F1010F09D1A87950F0800024
:10170000A87101212868FEF754FD0120E4E7686113
:10171000A879400617D50123AA6915F12801286880
:10172000407801F06BFE002809D0A87950F08000C5
:10173000A87101212868FEF73CFD0120CCE7A879BB
:1017400010F0BF00A87169692868FEF7E8FD8146BE
:10175000B9F1000F09D1A87950F08000A8710221D9
:101760002868FEF726FD0220B6E75FFA88F818EB36
:10177000090928684089B6FBF0FABAF1000F3CD09D
:10178000286880785FFA88F81AEB0801884205D249
:10179000286880785FFA88F8B0EB080A5346DBB215
:1017A0004A4621002868407801F028FE002809D028
:1017B000A87950F08000A87101212868FEF7F9FC93
:1017C000012089E7A869B0EB0900504510D22868CC
:1017D0004289A869B0EB09002968498901FB0041E9
:1017E00015F12800FEF7B4FCA87910F0BF00A8712D
:1017F000286840890AFB00F81FE7A86948453FF4BC
:10180000FCAEA868E9688842BFF4F7AE01234A46F7
:1018100015F128012868407801F0DCFD00283FF42C
:10182000ECAEA87950F08000A87101212868FEF77D
:10183000C0FC012050E738B50400A1882068FFF7FC
:101840004DFC0500EDB2002D56D1A079800653D590
:10185000A079400613D50123A26914F1280120685C
:10186000407801F0CBFD002805D001212068FEF76B
:10187000A0FC012047E0A07910F0BF00A071E16951
:101880002068FEF7A7FC0500EDB2002D34D1256AD3
:10189000E87A50F02000E872E0682877E06880B2CB
:1018A000000A6877E068000CA877E068000EE87727
:1018B0002069A876206980B2000AE8762069000CC9
:1018C00028752069000C80B2000A687501F000FEDE
:1018D000A875010089B2090AE975010C2976000E84
:1018E0006876A07910F0DF00A071206801210171F5
:1018F0002068FEF7A9FC05002900C9B22068FEF7A0
:1019000058FC2800C0B232BD10B504002000FFF71B
:1019100092FFC0B2002801D100212160C0B210BDE9
:101920002DE9F84F04000F00A1882068FFF7D6FBCF
:101930000500EDB2002D07D02900C9B22068FEF7DE
:1019400038FC2800C0B2AEE1A079000605D502211E
:101950002068FEF72EFC0220A5E1606A002800F056
:10196000B58017F1010F4AD1D4F824A0DAF800802D
:101970001AF1040A5FF002092069002834D0070038
:10198000002619F102098346761C01002068FEF743
:10199000D2FC022809D2A07950F08000A071022167
:1019A0002068FEF706FC02207DE110F1010F09D14D
:1019B000A07950F08000A07101212068FEF7F9FBAA
:1019C000012070E11BF101018842DCD0C84507D33A
:1019D000CAF800601AF1040ACAF800701AF1040A81
:1019E0002168C9698842CAD3606AC0F80090C845B6
:1019F00003D30020CAF800004EE111254CE1E06855
:101A0000B84200D2E768A760002F00F04581791E38
:101A10002000FEF73DFE606161692068FEF77FFCF3
:101A20000600002E09D1A07950F08000A07102219B
:101A30002068FEF7BEFB022035E1781E2168498947
:101A4000B0FBF1F021688978491E08408619A0682A
:101A500021684989B0FBF1F201FB1200002800F077
:101A60001B81A069864200F01781A079400617D536
:101A70000123A26914F128012068407801F0BEFC1E
:101A8000002809D0A07950F08000A07101212068C1
:101A9000FEF78FFB012006E1A07910F0BF00A071D6
:101AA0000123320014F128012068407801F092FCF3
:101AB000002809D0A07950F08000A0710121206891
:101AC000FEF777FB0120EEE0A661E5E0E068B842B2
:101AD00003D2A079800700D4E768A0680026A6603A
:101AE000002F00F09380216889782268528902FBD8
:101AF00001F8002810D0411EB1FBF8F17A1EB2FBAC
:101B0000F8F28A4208D3401EB8F101018843A06070
:101B1000A0683F1A616922E0216900291ED10021D5
:101B20002068FEF75BFD0100012909D1A07950F082
:101B30008000A07102212068FEF73BFB0220B2E08A
:101B400011F1010F09D1A07950F08000A07101219D
:101B50002068FEF72EFB0120A5E0216161610029CC
:101B600007D153E06161A06818EB0000A060B7EBFB
:101B70000807B84509D2A079800721D52068FEF76B
:101B80002DFD010000291FD14746A0683818A0602C
:101B900020684089B7FBF0F200FB1270002835D0B6
:101BA0002068FEF7BCFB0600002E2AD1A07950F079
:101BB0008000A07102212068FEF7FBFA022072E08B
:101BC0002068FEF7B8FB010011F1010F09D1A079DF
:101BD00050F08000A07101212068FEF7EAFA012090
:101BE00061E0022903D32068C0698142BAD3A07999
:101BF00050F08000A07102212068FEF7DAFA02207E
:101C000051E020684089B7FBF0F08619A068216890
:101C10004989B0FBF1F201FB1200002832D0A06923
:101C200086422FD0A079400617D50123A26914F16E
:101C300028012068407801F0E1FB002809D0A07954
:101C400050F08000A07101212068FEF7B2FA012057
:101C500029E0A07910F0BF00A0710123320014F137
:101C600028012068407801F0B5FB002809D0A07950
:101C700050F08000A07101212068FEF79AFA01203F
:101C800011E0A661E068A168884205D2A068E06022
:101C9000A07950F02000A0712900C9B22068FEF799
:101CA00088FA2800C0B2BDE8F28F32B584B00400D3
:101CB0000022210004A8FFF74EF80500EDB2002D28
:101CC00032D100A8A06104992000FEF7C2FF0500F0
:101CD000EDB2002D24D16069002816D06069C07A69
:101CE000C00611D56069407D6169097D51EA002017
:101CF00080B26169C97E6269927E52EA012189B22D
:101D000051EA0040A06000E00525EDB2002D07D1AA
:101D10002068C088A08000212000FEF7D1FC0500CB
:101D2000EDB2042D00D105252900C9B22068FEF7C7
:101D300040FA2800C0B205B030BD70B584B00400D0
:101D40000D00A1882068FFF7C9F90600F6B2002E41
:101D500025D1002D05D100212000FEF7B1FC0600A1
:101D60001DE000A8A0612000FEF7ECFD0600F6B221
:101D7000042E02D1002020610026F6B2002E0ED1E2
:101D800029002000FEF722FF00212000FEF704FDBD
:101D90000600F6B2042E02D1002020610026310098
:101DA000C9B22068FEF705FA3000C0B204B070BDB9
:101DB00070B504000D00002600212000FEF780FC15
:101DC000002801D1002D02D5022010E0761CAE4281
:101DD0000CDA2000FEF7B6FD002805D10021200016
:101DE000FEF7DAFC0028F1D0022000E0002070BDF0
:101DF00031B58AB00C00002200A90AA8FEF7ABFF9B
:101E00000500EDB2002D12D107A806900A9900A88E
:101E1000FEF71FFF0500EDB2002D08D10598002840
:101E200004D0210000A8FEF7D1FE00E0062529001D
:101E3000C9B20098FEF7BDF92800C0B20BB030BDA2
:101E40002DE9F14781B00E0015000022290001A8FC
:101E5000FEF781FF80465FFA88F8B8F1000F71D174
:101E60002868C069801E29684969884203D32868A8
:101E70004069306066E0286807785FF00009FFB2CB
:101E8000012F19D1022421002868FEF754FA10F11D
:101E9000010F02D15FF0010849E0012802D15FF093
:101EA000020844E0002801D119F10109641C2868E6
:101EB000C0698442E7D33AE02868C4692868D0F84A
:101EC00024A00021002000290FD151462868FEF7E8
:101ED00081F980461AF1010A5FFA88F8B8F1000F1B
:101EE00025D12868343029684989FFB2022F0BD1E7
:101EF0004278037853EA022292B2002A01D119F102
:101F00000109801C891E0FE0C27883781B0453EA04
:101F10000262437852EA032203781A43120101D184
:101F200019F10109001D091F641E002CCBD128687E
:101F3000C0F81490FFB2032F02D12868012141712B
:101F4000C6F800904146C9B22868FEF732F940460B
:101F5000C0B2BDE8F68731B592B0012200A912A83F
:101F6000FEF7F9FE0400E4B2002C5AD107A806904F
:101F7000129900A8FEF76DFE0400E4B2002C50D1C7
:101F80000598002801D1062403E0C17AC90700D5CD
:101F90000724417D027D52EA012189B2C27E837EFF
:101FA00053EA022292B252EA0145E4B2002C20D157
:101FB000C07AC0061DD5022D01D2022419E01C22D0
:101FC00000A90AA8FEF7C4F80C9502210AA8FEF79A
:101FD00077FB0400E4B2002C0BD10AA8FEF7B2FC98
:101FE0000400E4B2002C00D10724E4B2042C00D198
:101FF0000024E4B2002C14D100A8FEF70DFD04006B
:10200000E4B2002C0DD1002D04D029000098FEF779
:10201000B0FA0400E4B2002C03D10098FEF714F9E2
:1020200004002100C9B20098FEF7C3F82000C0B236
:1020300013B030BD2DE9F1438AB001F049FA040034
:10204000012200A90AA8FEF786FE0600F6B2002EBD
:1020500040F0D78007A806900A9900A8FEF7F9FD7E
:102060000600F6B2002E00D10826F6B2042E40F08B
:10207000C88000210098FEF7B1FA05000026002D67
:1020800000D10726012D00D1022615F1010F00D144
:102090000126F6B2002E04D100210098FEF79AF82E
:1020A0000600F6B2002E75D129000098FEF737F928
:1020B0000700009810F1340800984289002140463A
:1020C000FEF750F80B2220214046FEF74BF82E2059
:1020D00088F80000102088F80B0088F816402000CF
:1020E00080B2000A88F81700200C88F81800200E2B
:1020F00088F8190088F81A50280080B2000A88F879
:102100001B00280C88F81400280C80B2000A88F8FC
:1021100015002022414618F12000FEF719F82E2064
:1021200088F82100029800990978032904D10099C0
:10213000896A884200D1002088F83A00010089B2FB
:10214000090A88F83B10010C88F83410000C80B2A2
:10215000000A88F83500009890F8029007E000988F
:10216000428900214046FDF7FDFFB9F101095FFA00
:1021700089F9B9F1000F0DD0009807637F1C009812
:102180000121017100210098FEF724F80600F6B243
:10219000002EE4D0F6B2002E03D100A8FEF7FDFB1E
:1021A0000600F6B2002E04D029000098FEF7E1F9EF
:1021B00027E0DDF81480102088F80B0088F816401E
:1021C000200080B2000A88F81700200C88F8180058
:1021D000200E88F8190088F81A50280080B2000AEA
:1021E00088F81B00280C88F81400280C80B2000A1C
:1021F00088F815000098012101710098FEF724F875
:1022000006003100C9B20098FDF7D3FF3000C0B21C
:102210000BB0BDE8F08331B598B00D00012207A9DD
:1022200018A8FEF798FD0400E4B2002C40F091805D
:10223000079800900EA80D90189907A8FEF709FDC1
:102240000400E4B2002C40F084800C98002801D1F6
:1022500004247EE015220C9810F10B0111A8FDF763
:1022600077FF1C2207A900A8FDF772FF290000A82C
:10227000FEF7EFFC0400E4B2002C00D10824E4B225
:10228000042C66D100A8FEF788FB0400E4B2002C01
:102290005FD1059D13220DF1460115F10D00FDF7EB
:1022A00057FF9DF8440050F02000E8720798012184
:1022B00001710998029988423DD0E87AC0063AD562
:1022C000687D297D51EA002080B2E97EAA7E52EA2B
:1022D000012189B251EA00410098FEF720F8002858
:1022E00001D1022427E001000098FDF773FF0400EC
:1022F000009810F15405E4B2002C1CD168782E2807
:1023000019D100980078032806D102980099896AAB
:10231000884201D1002000E00298A876010089B22D
:10232000090AE976010C2975000C80B2000A68756B
:10233000009801210171E4B2002C0AD107A8FEF730
:102340006BFB0400E4B2002C03D10798FDF77CFF7F
:1023500004002100C9B20798FDF72BFF2000C0B28E
:1023600019B030BD2DE9F04F87B004000F00150003
:10237000E4B2022C01DB0B2047E3E4B2DFF8B00645
:1023800050F8240001900198002801D10C203CE372
:102390000198002101702000C0B201F017F8C107B8
:1023A00001D5032031E3400701D50A202DE3019830
:1023B00010F10A0202212000C0B201F033F8002817
:1023C00001D0012021E302AA01212000C0B201F0C6
:1023D00029F8002802D10298802801D2012014E3B4
:1023E000FFB2002F01D0002000E03F2003900298B0
:1023F0000399401A0290681E054200D00025002D66
:102400001BD1019840894FF4007190FBF1F04FF41B
:10241000FA6191FBF0F00299B1FBF0F05FF0000A75
:1024200001E01AF1010ADFF80C1631F81A1088429F
:10243000F7D3DFF8040630F81A5001984089B5FB4D
:10244000F0F5002D00D10125812D00D380250298C3
:10245000B0FBF5F8012640F6F670804500D3022661
:102460004FF6F670804500D30326F6B2032E0DD149
:102470000198408910EB8800C01D01994989B0FB83
:10248000F1FB5FF020090020049020E0F6B2012E5D
:1024900007D1032000FB08F0401C400810F1030B9B
:1024A00003E05FEA480010F1040B0198408910EB4B
:1024B0000B00401E01994989B0FBF1FB5FF0010957
:1024C0004FF4804001994989B0FBF1F004900398E2
:1024D00019EB0000059005981BEB0000049911EB27
:1024E0000008029815EB0801884201D20E208CE208
:1024F00000AA03212000C0B200F094FF002806D1FA
:102500000098002803D00098B0F5004F01D90120B1
:102510000090009810EB0800401E0099491E884367
:1025200000900098B0EB08000121B0FBF1F00090A2
:10253000F6B2032E07D1009810EB0909059800990F
:102540000818059002E0009810EB0B0B0298B0EB16
:102550000900B0EB0B000499401AB0FBF5F8F6B295
:10256000022E03D140F6F670804506D3F6B2032E54
:1025700005D14FF6F670804501D20E2045E2FFB23C
:10258000002F03D0F0208DF8180067E0039802991F
:1025900011EB000A01984289002101983430FDF7BF
:1025A000E1FD019800F2F217802038700120787068
:1025B0000120B8700020F870DFF8800482450DD249
:1025C0003F20BAFBF0F0FF21B0FBF1FA87F807A03B
:1025D0005FEA9A0050F03F00B87103E0FF20B87145
:1025E000FF20F871FE207871F6B2032E08D0029811
:1025F000B0F5803F01D2042000E00620387101E0F0
:102600000C2038713F203872002078720020B87298
:102610000020F87202983873029880B2000A78732A
:102620000298000CB8730298000EF87301985521B7
:1026300080F832120198AA2180F833120123002277
:10264000019810F134012000C0B200F0D7FE00283C
:1026500001D00120D9E1F8208DF81800019810F17F
:1026600034070198428900213800FDF77BFD0B22D9
:10267000DFF8CC133800FDF76BFD0198B0F80AA025
:1026800087F80BA01FFA8AFA5FEA1A2038737D7365
:1026900087F80E901FFA89F95FEA1920F873012074
:1026A0003874F6B2032E02D15FF0000A01E04FF455
:1026B000007A87F811A01FFA8AFA5FEA1A20B87424
:1026C0000298B0F5803F06D20298F874029880B262
:1026D000000A38750FE0029887F82000029880B24F
:1026E000000A87F821000298000C87F8220002985F
:1026F000000E87F823009DF8180078753F20387683
:1027000000207876FF20B8760020F8760398387796
:10271000039880B2000A78770398000CB877039882
:10272000000EF87700F0D4FE0090F6B2032E43D1ED
:10273000009887F84300009880B2000A87F84400A8
:102740000098000C87F845000098000E87F84600B6
:1027500087F824B0584680B2000A87F825005FEA5F
:102760001B4087F826005FEA1B6087F827000220DD
:1027700087F82C00002087F82D00002087F82E0015
:10278000002087F82F00012087F83000002087F80C
:102790003100062087F83200002087F833008020BF
:1027A00087F84000292087F842001322A54917F135
:1027B0004700FDF7CDFC21E0009887F8270000983E
:1027C00080B2000A87F828000098000C87F82900DA
:1027D0000098000E87F82A0087F816B0584680B295
:1027E000000AF875802087F82400292087F8260041
:1027F0001322954917F12B00FDF7AAFC552087F805
:10280000FE01AA2087F8FF010123039A3900200066
:10281000C0B200F0F3FD002801D00120F5E0F6B2CF
:10282000032E07D101230398821D39002000C0B276
:1028300000F0E4FDDDF814905FF0000A01E01AF109
:10284000010ABAF1000F6DD10198428900213800C8
:10285000FDF788FC9DF818000090F6B2032E16D004
:10286000F6B2012E01D1794801E07FF0FF00009916
:102870000843009000983870009880B2000A787081
:102880000098000CB8700098000EF8701FE00098D7
:1028900070F0FF00009000983870009880B2000A35
:1028A00078700098000CB8700098000EF870FF2047
:1028B0003871FF207871FF20B871FF20F871FF2078
:1028C0003872FF207872FF20B8720F20F87201234F
:1028D0004A4639002000C0B200F090FD19F101090C
:1028E000C0B2002801D001208FE001984289002168
:1028F0003800FDF737FC0120009002E00098401CF2
:102900000090009858459AD201234A463900200089
:10291000C0B200F073FD19F10109C0B20028EDD07A
:10292000012072E0F6B2032E01D1AA4601E0DDF8E3
:1029300010A001234A4639002000C0B200F05EFD1D
:1029400019F10109C0B2002801D001205DE0BAF1FF
:10295000010ABAF1000FECD1F6B2032E49D1522090
:102960003870522078706120B8704120F870722061
:1029700087F8E401722087F8E501412087F8E60135
:10298000612087F8E7014046401E87F8E80140468D
:10299000401E80B2000A87F8E901B8F10100000C7E
:1029A00087F8EA01B8F10100000E87F8EB01022078
:1029B00087F8EC01002087F8ED01002087F8EE0190
:1029C000002087F8EF01552087F8FE01AA2087F83C
:1029D000FF0101230398421C39002000C0B200F01F
:1029E0000DFD01230398C21D39002000C0B200F084
:1029F00005FD002200212000C0B200F013FD0028D8
:102A000001D1002000E00120C0B207B0BDE8F08F86
:102A1000002100E0491C022906DA054A52F821206B
:102A20008242F7D1080001E05FF0FF3070470000FC
:102A3000C81A0020E0CD0208F8CD02080004FB000F
:102A400078F0020880D9020894D9020800FFFF003C
:102A50000021C0B2002813D0401E02281AD9C01E7F
:102A600001280ED9801E0FD0401E16D0401E01280E
:102A70000DD9801E11D0C01E03D0401E10D012E010
:102A800013E07FF0010110E07FF015010DE07FF011
:102A900010010AE07FF0040107E07FF01D0104E06F
:102AA0007FF0150101E05FF0FF3108007047002161
:102AB00000E0491C022907DADFF8402A52F82120F9
:102AC0008242F6D1080001E05FF0FF3070472DE947
:102AD000F04186B006000020FFF7E9FF040014F182
:102AE000010F02D17FF0010065E0DFF8100A3168C4
:102AF00040F8241002AA1021306800F0B7FE002828
:102B00000AD10398B0F5007F06D9DFF8F40901F087
:102B10005FFA7FF015004EE04FF40D7001F0C2FB3C
:102B20000500002D07D1DFF8D409002140F824105A
:102B30007FF00B003FE029002000C0B2FEF7EBFA67
:102B40000700FFB2002F25D12300DFF8B8290821A4
:102B500000A801F019FA1C2001F0A4FB8046B8F18E
:102B6000000F0FD100212000C0B2FEF7D4FADFF829
:102B70008C09002140F82410280001F07FFD7FF02F
:102B80000B0018E000A94046FFF78FF80700FFB2DE
:102B9000002F13D000212000C0B2FEF7BCFADFF8EE
:102BA0005C09002140F82410280001F067FD38007E
:102BB000C0B2FFF74DFF06B0BDE8F081F5604046BA
:102BC00001F05CFD0020F6E770B582B00500EC680E
:102BD000002C0FD100208DF80000B723DFF8282942
:102BE000DFF82819DFF8280901F0F2F99DF8000054
:102BF0000028FBD02868FFF75AFF060016F1010FE6
:102C000002D17FF0010016E000213000C0B2FEF7D3
:102C100082FAC0B2002803D0C0B2FFF719FF0AE061
:102C20000020E860DFF8D408002140F826102000DA
:102C300001F024FD002076BD2DE9F04104000025BF
:102C4000002C02D17FF0150053E000262000FFF792
:102C50002EFF804618F1010F25D10020FFF727FF36
:102C6000804618F1010F06D1DFF8A80801F0B0F98D
:102C70007FF01B003DE04FF40D7001F013FB0500E9
:102C8000002D02D17FF00B0033E00126DFF86C0845
:102C900040F828400321200000F001FD29004046B3
:102CA000C0B2FEF738FA002201214046C0B2FFF759
:102CB00059FB0700012E0FD1280001F0DFFC002195
:102CC0004046C0B2FEF727FADFF83008002140F88E
:102CD0002810200000F03DFDFFB2002F08D0DFF8E3
:102CE000380801F075F93800C0B2FFF7B1FE00E016
:102CF0000020BDE8F08130B585B005000C00002D46
:102D000010D100208DF8040040F21913DFF80C28D0
:102D1000DFF80C18DFF8F80701F05AF99DF8040005
:102D20000028FBD0002C10D100208DF804004FF4B7
:102D30008D73DFF8E827DFF8EC17DFF8D40701F030
:102D400047F99DF804000028FBD0E868009000983F
:102D50004378C6A2042103A801F016F900AA02A92B
:102D600003A8FFF76DF8C0B2002803D0C0B2FFF788
:102D70006FFE10E00098C069801E0099897801FB01
:102D800000F10298009A92785043A06061604FF47D
:102D900000702060002005B030BDF8B50400E06888
:102DA000C068FFF735FE0600002E02D57FF0010057
:102DB00095E04FF4807001F075FA0500002D02D106
:102DC0007FF00B008BE0606800903300DFF858273D
:102DD0004FF48071280001F0D7F82069800233D5C4
:102DE0002069C0050ED52800FFF724F90600F6B2C9
:102DF000002E07D0280001F041FC3000C0B2FFF7E0
:102E000027FE6CE01C2001F04DFA0700002F05D1D1
:102E1000280001F033FC7FF00B0060E0290038004F
:102E2000FEF743FF0600280001F028FCF6B2002E52
:102E300007D0380001F022FC3000C0B2FFF708FED6
:102E40004DE0E76100204AE00126207CC00701D563
:102E500056F00206207C800701D556F00206206954
:102E6000C00501D556F010062069C00401D556F002
:102E700008062069800501D556F004064FF40A7053
:102E800001F010FA0700002F05D1280001F0F6FB31
:102E90007FF00B0023E03200D2B229003800FEF7A9
:102EA00071F90600280001F0E9FBF6B2002E0FD1FF
:102EB000B868A061F8686061E7612069800405D5A1
:102EC000F9683800FEF72CFDB868A061002006E024
:102ED000380001F0D3FB3000C0B2FFF7B9FDF2BDFE
:102EE00038B500244188022917D1C569002D10D1B9
:102EF00000208DF8000040F2B313DFF83026DFF831
:102F00003016DFF80C0601F063F89DF80000002889
:102F1000FBD0280001F0B2FB20E0418800291DD140
:102F2000C569002D10D100208DF800004FF4DE732C
:102F3000DFF8F825DFF8FC15DFF8D40501F048F8D4
:102F40009DF800000028FBD02800FEF7DDFC0400FF
:102F5000E4B2002C02D1280001F090FB2000C0B2A6
:102F6000FFF776FD32BD7FF025007047F0B583B0E6
:102F700004000D0016006088022802D17FF01400C2
:102F800023E0E769002F10D100208DF800004FF4F6
:102F9000ED73DFF8A425DFF89C15DFF8740501F068
:102FA00017F89DF800000028FBD001AB3200290083
:102FB0003800FEF7B9F9B968A161C0B2002801D1A3
:102FC000019802E0C0B2FFF743FDFEBDF0B583B04B
:102FD00004000D0016006088022802D17FF0140062
:102FE00025E0E769002F10D100208DF8000040F2A5
:102FF000F113DFF84825DFF83C15DFF8140500F081
:10300000E7FF9DF800000028FBD001AB320029004B
:103010003800FEF7BFFAB968A161F9686161C0B212
:10302000002801D1019802E0C0B2FFF711FDFEBDFA
:1030300010B582B0C469002C10D100208DF80000BA
:1030400040F20323DFF8F824DFF8E814DFF8C004C7
:1030500000F0BEFF9DF800000028FBD02000FEF726
:10306000EAFBC0B2FFF7F4FC16BD000025643A008D
:1030700070B582B004000D000020618800291ED1C7
:10308000E669002E10D100208DF8000040F21223D6
:10309000DFF8B024DFF89C14DFF8740400F098FF28
:1030A0009DF800000028FBD029003000FEF738FC16
:1030B000C0B2002827D1B068A061B06826E061885E
:1030C000022920D1E669002E10D100208DF80000E1
:1030D00040F22223DFF86C24DFF85414DFF83004C8
:1030E00000F076FF9DF800000028FBD04FF48270BE
:1030F000B5FBF0F13000FEF75BFEC0B2002802D154
:10310000A561A06902E0C0B2FFF7A2FC76BD2DE97F
:10311000F04F87B004000D001600E769002F10D1B2
:1031200000208DF8000040F23923DFF81C24DFF87E
:103130000014DFF8DC0300F04BFF9DF800000028CE
:10314000FBD04FF48270B6FBF0F04FF4827101FBBC
:1031500000F6002E02D17FF0150050E05FF000086D
:103160004FF4827000FB085901A93800FEF7E5FD15
:1031700082465FFA8AFABAF1000F03D19DF80D007A
:10318000002800D129E00DF10D0B002089F8000086
:103190009DF80C00C00603D5022089F8000002E06B
:1031A000012089F80000584600F07AFC89F80100F7
:1031B0004FF48270A9F80200584600F071FC421CDE
:1031C000594619F1040000F02CFC18F101084FF4E5
:1031D000827000FB08F0B042C2D3B8F1000F04D1F6
:1031E0005046C0B2FFF734FC09E0A0694FF4827189
:1031F00001FB0800A0614FF4827000FB08F007B0EB
:10320000BDE8F08F70B582B00C00C068FFF700FC1D
:103210000500002D02D57FF001001CE04FF4807006
:1032200001F040F80600002E02D17FF00B0012E002
:1032300000942B00BC4A4FF48071300000F0A4FED3
:103240003000FEF788FE0400300001F017FA20007D
:10325000C0B2FFF7FDFB76BDF8B50C001500C068E5
:10326000FFF7D6FB0700002F02D57FF001001DE01D
:103270004FF4807001F016F80600002E02D17FF0A6
:103280000B0013E000943B00A74A4FF4807130001C
:1032900000F07AFE29003000FEF7BDFF0400300088
:1032A00001F0ECF92000C0B2FFF7D2FBF2BD2DE92E
:1032B000F04F93B00D001400C068FFF7A9FB0600A3
:1032C000002E02D57FF0010077E04FF4807000F00F
:1032D000E9FF0700002F02D17FF00B006DE00095A1
:1032E0003300914A4FF48071380000F04DFE01A97F
:1032F0003800FEF77DFD0500380001F0BFF9EDB2A2
:10330000002D56D10020206048F2B610A0809DF814
:103310000C00C00609D5A0884004400CA080A088FD
:1033200040F4804050F04900A0809DF80C00C00798
:1033300004D5A0884FF66D710840A0800198A06068
:103340004FF400702061BDF8080080B210F01F0635
:1033500080B2400980B210F00F0A80B2000980B23A
:1033600010F07F0000F2BC7BBDF80A0080B210F0C4
:103370001F014F0080B2400980B210F03F0880B2B8
:10338000800980B210F01F092C22002107A801F04B
:1033900067FAABF26C700C90BAF101000B900A96D0
:1033A000CDF82490CDF82080079707A801F062FAA5
:1033B000E0602800C0B2FFF74BFB13B0BDE8F08F10
:1033C00080B5624801F0C0FA002002BD00207047BD
:1033D0000020704738B514001D00C0B2474A52F8AB
:1033E0002000EDB22B000A00210000F0E3F9EDB25D
:1033F000A84201D1002000E0012032BD38B5140000
:103400001D00C0B23D4A52F82000EDB22B000A0068
:10341000210000F0FDF9EDB2A84201D1002000E04A
:10342000012032BD30B589B01400C0B2334A52F821
:103430002050002D01D1012048E0C9B2012910D14E
:103440000C22002103A800F075FA03AA102128001D
:1034500000F00CFA039820600398002835D1012071
:1034600034E0C9B202290CD10C22002106A800F0D8
:1034700061FA06AA1021280000F0F8F907982080C8
:1034800023E0C9B203290FD10C22002100A800F0CB
:1034900051FA00AA1021280000F0E8F902980199D9
:1034A000B0FBF1F0206010E0C9B2002905D1002284
:1034B0001121280000F0DAF907E0C9B2042904D18B
:1034C00022001221280000F0D1F9002009B030BDFF
:1034D000002070471CB50C00C0B203001C4A082134
:1034E00000A800F051FD002100A801F002FE002814
:1034F00002D02060012000E0002016BDC80C002092
:10350000B09A0208F0F3020850E6020860E60208EA
:1035100060B6020880AA020870E6020880E6020887
:1035200090E60208A0E60208F8F30208B0E60208F6
:10353000C0E60208D0E60208E0E60208F0E602086B
:1035400000E7020810E7020818D80208F49A0208F7
:1035500000F4020880B5002801D001F005FE01202A
:1035600002BD80B54FF47A7101F03CFE002801D114
:10357000012000E0002002BD80B501F0FBFE01BD8E
:1035800070B504000D001600002C02D15FF0FF3072
:1035900010E0280000F031F8002802D05FF0FF3082
:1035A00008E02A000721200002F0FDFDE68200204D
:1035B000A076002070BD70B5DFF82843656804E090
:1035C000F08A50F01000F0822D68201D854212D044
:1035D000B5F10C06716A08000028F5D0B07DC00670
:1035E000F2D4300088470028EAD002003100BE48FB
:1035F00000F0EEFCE8E7002070BDF8B5040002F032
:10360000A3FF002801D003F0BFFAB64F7E6800E0A8
:103610003668381D864210D0B6F10C05082221000C
:10362000280000F016FA0028F2D102F08DFF0028E1
:1036300001D003F0B4FA280006E002F085FF00286C
:1036400001D003F0ACFA0020F2BD38B5040000252B
:10365000002C0CD100208DF80000B423A34A9F4910
:103660009F4800F0B5FC9DF800000028FBD0606A80
:10367000002812D0A07DC0060FD42000616A8847C0
:103680000500002D05D02A002100974800F0A0FC7D
:1036900003E0E08A50F01000E082280032BD70B5EF
:1036A00082B004000D000026002C0CD100208DF803
:1036B0000000D7238E4A8949894800F089FC9DF88B
:1036C00000000028FBD0A07DC00613D4606A00284B
:1036D0000CD02000616A88470600002E06D0320018
:1036E0002100814800F074FC300031E0E08A50F0A5
:1036F0001000E082A07D000705D5207E000702D5DE
:103700007FF0060024E0A07E401CA076A07E00286A
:103710000CD100208DF80000F523754A75497048DA
:1037200000F056FC9DF800000028FBD0A06A00289D
:1037300005D0290089B22000A26A90470600002E19
:1037400002D016F1060F02D155F008002083300098
:1037500076BD38B504000025002C0DD100208DF871
:1037600000004FF48873644A5C495D4800F030FC07
:103770009DF800000028FBD0A07E002802D15FF059
:10378000FF3016E0A07E401EA076A07E002801D06B
:1037900000200EE0E06A002803D02000E16A88479C
:1037A0000500002D02D015F1060F01D10020208365
:1037B000280032BDF8B504000D0016001F00002CD3
:1037C0000DD100208DF8000040F239134B4A4349D7
:1037D000434800F0FDFB9DF800000028FBD0A07ED0
:1037E000002805D15FF0FF3000F090F800200EE0D7
:1037F000206B002806D03B00320029002000246BFB
:10380000A04704E07FF0050000F080F80020F2BD42
:10381000F8B504000D0016001F00002C0DD100208B
:103820008DF8000040F25F13354A2C492C4800F017
:10383000CFFB9DF800000028FBD0A07E002805D11A
:103840005FF0FF3000F062F800200EE0606B0028AF
:1038500006D03B00320029002000646BA04704E042
:103860007FF0050000F052F80020F2BD70B582B084
:1038700004000D001600002C0DD100208DF8000072
:1038800040F27F131F4A1549154800F0A1FB9DF82F
:1038900000000028FBD0A06B002806D032002900D1
:1038A000C9B22000A36B984700E0002076BD38B570
:1038B00004000D00002C0DD100208DF800004FF405
:1038C000CC73114A0549064800F082FB9DF80000C0
:1038D0000028FBD0E561002032BD0000E0E50208D1
:1038E00020B602084C010020B89E0208F0E502084C
:1038F00000E60208C8D7020810E6020820E602081F
:1039000030E60208DCD70208FCC1020810B504004A
:1039100003F092F9002803D0DFF85007046008E0B4
:1039200002F012FE002803D1DFF84007046000E037
:10393000046310BD10B40300CCB2042A1DD310F0F0
:103940000301002919D1030054EA042151EA01417D
:1039500008E019601B1D19601B1D19601B1D1960F3
:103960001B1D103A102AF4D2042A03D319601B1D20
:10397000121FF9E701E01C705B1C11004A1E0029B0
:10398000F9D110BC704730B40300102A27D311F0CE
:10399000030413F003052C43002C20D110E00C6825
:1039A0001C60091D1B1D0C681C60091D1B1D0C687B
:1039B0001C60091D1B1D0C681C60091D1B1D103A95
:1039C000102AECD2042A05D30C681C60091D1B1DAB
:1039D000121FF7E703E00C781C70491C5B1C1400F5
:1039E000621E002CF7D130BC704710B4030099421E
:1039F00011D25418A3420ED2D31851181400621ECB
:103A0000002C0CD05B1E491E0C781C70F6E70C785D
:103A10001C70491C5B1C1400621E002CF7D110BCEA
:103A2000704710B4002A12D003000C78491C1C7097
:103A30005B1CE4B2002C07D1521E002A03D00021E7
:103A400019705B1CF8E702E0521E002AEDD110BC91
:103A5000704710B4002300E0521E002A0ED090F9E7
:103A6000003091F900401B1B491C1C0064B2002C63
:103A700004D10400601C2478002CEDD15BB2180046
:103A800010BC704701E0401C491C0278002A03D09A
:103A900002780B789A42F6D000780978401A70477D
:103AA000010000E0491C0A78002AFBD1081A70477F
:103AB00070B504002000FFF7F3FF451C280000F05C
:103AC000F1FB0600002E01D1002005E02A002100B4
:103AD0003000FFF758FF300070BD80B5DFF890056B
:103AE00000F076FADFF88C0500F072FADFF888054E
:103AF0000090012302220121DFF8800500F068FA1E
:103B0000DFF87C0500F064FA01BD0A290BD10168D9
:103B10000A22B1FBF2F302FB131102680A23B2FB83
:103B2000F3F2026008E002681023B2FBF3F101FB3C
:103B3000132102681209026008007047002107E0A3
:103B40000268531C03600A23127803FB01213039F9
:103B500002681278303A0A2AF2D3080070472DE939
:103B6000FC4F85B004000D00109EDDF848805FEA30
:103B7000486002D5DFF80C7501E0DFF80C755FEAEC
:103B8000C86001D538F001085FEAC87002D55FF05F
:103B9000300901E05FF020095FF0000A5FEA8870F9
:103BA00013D50598002805D55FF02D0A05984042E9
:103BB00005900AE05FEA487002D55FF02B0A04E046
:103BC0005FEA087001D55FF0200A5FF0000B0598EE
:103BD000002810D100A830210BF800101BF1010BB8
:103BE0000CE0069905A8FFF790FFC05D00A90BF84F
:103BF00001001BF1010B05980028F2D111985845DE
:103C000000DA5846361A18F0110F11D15FFA8AFA05
:103C1000BAF1000F08D0012E06DB761E04E0A542A3
:103C200001D320212170641C31004E1E0129F6DAD7
:103C30005FFA8AFABAF1000F05D0A54202D384F8E0
:103C400000A0761E641C5FEAC86109D404E0A542A6
:103C500001D384F80090641C31004E1E0129F6DA6D
:103C60000100481E8B450CDAA54201D3302121709A
:103C7000641CF5E7A54203D300A81BF800002070E0
:103C8000641C5846B0F1010B0128F3DA3000461EDF
:103C9000012805DBA54201D320202070641CF5E734
:103CA000200007B0BDE8F08F2DE9F44F84B0050087
:103CB0001E002F004819B0F10108A84518D25FF086
:103CC000FF38B8EB050113E03268361D5FEA8970F2
:103CD0005FFA89F9CDF80890CDF804A00094DBB222
:103CE00041463800FFF73BFF07000498401C049052
:103CF00004980078002800F03B810498007825287B
:103D000006D0B84502D30498007838707F1CECE7E1
:103D10005FF0000901E059F010090498401C04907C
:103D2000049800782D28F6D0049800782B2802D12A
:103D300059F00409F1E704980078202802D159F0DD
:103D40000809EAE704980078232802D159F02009ED
:103D5000E3E704980078302802D159F00109DCE744
:103D60005FF0FF340498007830380A2804D204A8A1
:103D7000FFF7E4FE04000DE0049800782A2809D13A
:103D80000498401C04903468361D002C02D564420F
:103D900059F010095FF0FF3A049800782E281BD1E3
:103DA0000498401C04900498007830380A2804D203
:103DB00004A8FFF7C3FE824609E0049800782A2889
:103DC00005D10498401C0490D6F800A0361DBAF125
:103DD000000F01D55FF0000A0020049909786829D6
:103DE00003D0049909786C2904D1049800780499C7
:103DF000491C04910A2304990978252900F0808040
:103E0000582900F08E80632911D0642900F08D803C
:103E1000692900F08A806F2978D0702959D07329D8
:103E200021D0752900F0838078297CD080E05FEA7A
:103E3000C96008D404E0B84501D3202038707F1C45
:103E4000641E012CF7DA3068361DB84500D338708F
:103E50007F1C04E0B84501D3202038707F1C641E0D
:103E6000012CF7DA41E7D6F800B0361DBBF1000FA0
:103E700001D1DFF818B25846FFF712FEBAF1010F70
:103E800002DB824500DA50465FEAC96109D404E0EA
:103E9000B84501D3202139707F1C21004C1E884277
:103EA000F6DB002108E0B84502D39BF800203A7009
:103EB0007F1C1BF1010B491C8142F4DB21004C1ECD
:103EC000884205DAB84501D3202139707F1CF5E717
:103ED0000BE714F1010F02D1082459F00109300059
:103EE000061D5FFA89F9CDF80890CDF804A000947A
:103EF0001023026841463800FFF731FE0700F4E660
:103F0000B84501D3252038707F1CEEE60823C0B2E7
:103F10006C2821D13268361D5FEA89707FF5D8AEF2
:103F2000D6E659F040091023F1E759F00209EEE70F
:103F3000B84501D3252038707F1C049800780028EC
:103F400006D0B84502D30498007838707F1C02E090
:103F50000498401E0490C8E6C0B268287FF4B4AE4E
:103F60003288361D5FEA89707FF5B2AE12B2AFE6D5
:103F7000B84502D30020387002E0002088F8000025
:103F8000781B05B0BDE8F08F08B400B501ABFFF7B2
:103F90008BFE5DF808FB3E480068704738B53C4929
:103FA0000D68FFF72AFB0400002C0ED0384800688B
:103FB000002803D036480068FFF7CBFB3448046084
:103FC000032133480068FFF76AFB280032BD7047C1
:103FD0000EB418B503AB02007F212E48FFF764FE34
:103FE000802800D37F202A490968002903D1294865
:103FF000FFF7EDFF14E026490968CC8A24490968D7
:10400000C98A51F04001224A1268D1820300214A34
:1040100000211F480068FFF7FBFB1D480068C482B1
:1040200011BC5DF810FB002801D100201CE0010646
:1040300004D0C0B21849405C401C15E010F47F4F1A
:1040400005D0C0F307201449405C09300CE010F49F
:104050007F0F05D0C0F307400F49405C113003E0EB
:10406000000E0D49405C193070470000201F0020F1
:1040700020F10208F4B002082CF1020880B802080E
:10408000A0A6020888DB020874DB020800F502081B
:10409000241F0020281F0020408F020810B582B086
:1040A0000400DFF84407006884420FD200208DF836
:1040B00000008D23DFF83427DFF83417DFF83407EA
:1040C000FFF786FF9DF800000028FBD0DFF82807E7
:1040D000006884420FD300208DF800008E23DFF8A3
:1040E0000C27DFF81817DFF80C07FFF771FF9DF8B2
:1040F00000000028FBD0608800280FD000208DF839
:1041000000008F23DFF8E426DFF8F416DFF8E4067A
:10411000FFF75EFF9DF800000028FBD06068DFF825
:10412000C8160968401884421BD04188002918D15C
:10413000DFF8C4160968884213D0DFF8C81609688A
:10414000814202D1DFF8BC160C60416861604068B2
:10415000DFF8941609684018DFF88C160968611AB0
:104160008160A068DFF8801609684018A04216D068
:104170004188002913D1DFF88C160968A14202D1C9
:10418000DFF880160860616841606168DFF85826D2
:1041900012688918DFF850261268801A886013BDEB
:1041A0002DE9F04182B004000D00E01DC608F600C4
:1041B000EF08FF0002F046FD804602F03DFD0028BA
:1041C00014D0DFF84416DFF84406FFF701FF0020A3
:1041D0008DF80000BE23DFF8302631A1DFF8140689
:1041E000FFF7F6FE9DF800000028FBD0404602F0E5
:1041F0002DFD212F4CD3B7F12000B04248D3B81B7E
:104200002038DFF80C160860DFF8DC050660DFF800
:10421000D80500684FF4F5510180DFF8F4150968FE
:104220001031416000218160002141804068DFF849
:10423000B81509684018DFF8C0150860DFF8B80540
:1042400000684FF4F5510180DFF8AC0500680121EA
:104250004180DFF8A4050068DFF8B4150968103163
:104260004160DFF894050068DFF8A4150968103193
:10427000816000230122DFF89C15DFF89C0500F027
:104280008DFDDFF88005DFF860150968016005E045
:104290002A002100DFF88405FFF79AFEBDE8F381CC
:1042A0003000000038B5040002F0CCFC050002F03C
:1042B000C3FC002814D0DFF86815DFF85005FFF7BD
:1042C00087FE00208DF80000FB23DFF85425A0A115
:1042D000DFF82005FFF77CFE9DF800000028FBD0EA
:1042E000280002F0B3FC002C01D100202EE1E01DDB
:1042F000C008C0008442FFD1E01DC408E400DFF81C
:1043000010050068A04201D200201FE1102C00D24D
:1043100010245FF0FF31DFF8000500F0F2FDDFF858
:10432000E4040068DFF8C0140968401A04E0DFF80C
:10433000B814096840184068DFF8D4140968091BEC
:10434000884280F0FE80DFF8A0140968451869886B
:104350000029ECD16968091A1039A142E7D36968CC
:10436000091A103914F12002914232D32118103168
:10437000DFF8742412688A18002353806B68536036
:1043800090606960012068805068DFF884341B68A1
:104390001033984205D05068DFF84C24126880181A
:1043A0008160DFF88004006814F110010818DFF85C
:1043B00074140860DFF870040068DFF86814096896
:1043C000884223D2DFF86004DFF8581409680160DE
:1043D0001CE001206880DFF84C0400686968081858
:1043E000401BDFF8041409680818DFF83814086067
:1043F000DFF834040068DFF82C140968884205D21D
:10440000DFF82404DFF81C14096801604FF4F5504C
:104410002880DFF8F0030068854238D10AE0DFF831
:10442000E40300684068DFF8C01309684018DFF84B
:10443000D4130860DFF8CC0300684088002807D058
:10444000DFF8C0030068DFF8B01309688842E6D1DE
:10445000DFF8B0030068DFF8A0130968884216D0BF
:10446000DFF8A00300684088002810D000208DF8F5
:1044700000004FF4AF73DFF8A823DFF8B013DFF8C4
:104480007403FFF7A5FD9DF800000028FBD0DFF8BE
:10449000880300F0D9FDDFF860030068611910316E
:1044A000884210D200208DF800004FF4B173DFF87D
:1044B0007023DFF87C13DFF83C03FFF789FD9DF8DC
:1044C00000000028FBD015F110000821B0FBF1F22C
:1044D00002FB1102002A10D000208DF8000040F2EB
:1044E0006313DFF83C23DFF84C13DFF80803FFF712
:1044F0006FFD9DF800000028FBD015F00700002894
:1045000010D000208DF800004FF4B273DFF81023B4
:10451000DFF82413DFF8DC02FFF75AFD9DF80000F6
:104520000028FBD0DFF8B8020068002806D0210080
:1045300015F11000DFF8A8221268904715F110005D
:1045400004E0DFF8D40200F07FFD002032BD00005F
:1045500030000000F8B504000D0002F073FB060007
:1045600002F06AFB002813D0DFF8D012A748FFF74B
:104570002FFD00208DF800004FF4C473DFF8BC223B
:104580008DA19C48FFF724FD9DF800000028FBD07A
:10459000300002F05BFBE81DC508ED009C48006898
:1045A000A84201D2002068E0002C03D12800FFF7C8
:1045B00079FE62E05FF0FF31974800F0A2FC8A4884
:1045C0000068844203D38C480068844204D3924834
:1045D00000F03AFD200050E0B4F11001824800687C
:1045E0000A1A4868801AB0F11006AE4204D18A480F
:1045F00000F02AFD200040E015F11C00B04226D258
:1046000088480068801B2818864B1860A81810F18D
:1046100010037548006818184FF4F55505800025FB
:1046200045804D68456082604B604168784A1268F9
:104630001032914204D041686B4A126889188B602D
:10464000FFF72CFD744800F0FFFC200015E07248D5
:1046500000F0FAFC2800FFF725FE0700002F0BD022
:10466000AE4201D23500FFE72A0021003800FFF7F3
:104670008AF9200000F002F83800F2BD38B50400D5
:1046800002F0E0FA050002F0D7FA002811D06C49D8
:104690005E48FFF79DFC00208DF800004FF4FE738C
:1046A000674A45A15348FFF793FC9DF80000002896
:1046B000FBD0280002F0CAFA002C7BD014F00700CF
:1046C00000280DD000208DF800004FF400735C4AE4
:1046D0005C494848FFF77CFC9DF800000028FBD0AF
:1046E00041480068844203D34348006884420DD3A4
:1046F00000208DF8000040F20223514A52493D4803
:10470000FFF766FC9DF800000028FBD035480068E4
:10471000002803D0200033490968884732480068E0
:10472000844203D334480068844200D342E0103C02
:104730005FF0FF31384800F0E4FB608800280DD1BD
:1047400000208DF8000040F21B233D4A3F492948D4
:10475000FFF73EFC9DF800000028FBD02088B0F554
:10476000F55F0DD000208DF800004FF40773344A38
:1047700037492048FFF72CFC9DF800000028FBD0AB
:1047800000206080002020801E480068844201D202
:104790001C480460234800686168401A20181249C8
:1047A0000968401A1F4908602000FFF777FC1A4883
:1047B00000F04AFC31BD00003000000080B5144814
:1047C00001682448FFF704FC164801682248FFF7F7
:1047D000FFFB154801682148FFF7FAFB01BD000007
:1047E000E81F0020EC1F0020F01F00205CF10208F1
:1047F00000B90208E0B80208F41F0020CCA60208A5
:1048000080EA0208F81F002014DC020818B1020830
:104810001C20002018F50208FC1F0020C89D02087B
:1048200068F10208202000202420002048AB020864
:10483000EC970208EC950208D0A2020874F1020875
:1048400020F5020800A302085C93020880F1020828
:104850004CC3020828DC02083CDC020820B902082C
:1048600010B5044610460A460146204602F068FA92
:10487000204610BD2DE9F04104460C21206990FB33
:10488000F1F202EB4201B0EB810144BF0C31521E48
:10489000002A48D560694FF000439B1A98424ADBD2
:1048A00060691518284602F095FA40F26D1808FB69
:1048B0000500A168E56862682368DFF884C0DFF856
:1048C00080E018274FF4B46691FBF7F7281892FBA5
:1048D000F6F6381893FBFCFC30186044194D281884
:1048E00007EB4705A1EBC5014FF4616569430EFB7A
:1048F00000104FF4B46101FB1621C1EB011200EB73
:10490000820018180EFB1C05226A2946204602F078
:104910007EFA206A0128A8BFA5F5616502F01EFB9A
:10492000281ABDE8F081012ABADB6FF00040636904
:10493000801A9842B4DA4FF0FF30BDE8F08100BF32
:1049400080510100209CFFFFF8B5040000250026DF
:1049500002F06CFBDFF85C7302E03E0030003F1DAC
:10496000DFF8540387420FD23868002803D1002EA5
:10497000F3D00020F3E721683868006802F0F8FC03
:104980000028ECD15FF0FF35002D02D1002E00D0C1
:10499000346002F061FB2800F2BD2DE9F041040013
:1049A0000025002602F042FBDFF8107302E03D0014
:1049B00046461037DFF80803874221D2786800287E
:1049C00002D0B868002800D1F3E7786802F002FD51
:1049D0008046B04506D342462100786802F015FDB6
:1049E000002800D0E5E7B8F1020FE0D3200002F084
:1049F000F1FC8045DBD218F804002F28D7D0D8E787
:104A000002F02AFB2800BDE8F0812DE9F04788B0CC
:104A10000C0092461D005FF000090027002805D118
:104A20005FF0000802F002FBA24E0DE0FEF7E5FD8C
:104A30008046B8F1000FF5D17FF01200FEF766FF57
:104A40005FF0FF307CE0361D9B48864208D2002E86
:104A5000F9D051463068006802F08AFC0028F2D193
:104A600002F0FAFA9448864206D17FF01200FEF76F
:104A70004DFF5FF0FF3063E03068002803D03068FE
:104A80008068002806D17FF02500FEF73FFF5FF029
:104A9000FF3055E02100002002F0A3FB0700002FAB
:104AA00006D17FF01300FEF731FF5FF0FF3047E0E3
:104AB0007FA1380002F05CFC00281AD08149380040
:104AC00002F056FC002814D05FF40012390000A850
:104AD00002F0B0FC002809D53800FFF7CFFD7FF0C9
:104AE0001300FEF713FF5FF0FF3029E000A802F08B
:104AF0000FFD02F09BFADFF8C4A103E0D146504657
:104B00001AF1100A6E4882451DD2DAF80800002812
:104B100004D1B9F1000FF1D00020F1E72100DAF85B
:104B2000040002F025FC0028EAD17FF01500FEF712
:104B3000EDFE02F091FA3800FFF7A0FD5FF0FF30C4
:104B400008B0BDE8F087B9F1000F07D15C48824595
:104B500004D17FF01B00FEF7D9FEEAE7C9F8047024
:104B60003068C9F80800C9F8008002F075FAB8F199
:104B7000000F0ED00321D9F80000FEF790FD0028A9
:104B800007D002F053FA102200214846FEF7D2FE69
:104B9000CFE7109A2900484633689B689847002859
:104BA0000ED5B8F1000F03D0D9F80000FEF7D1FD03
:104BB00002F03CFA102200214846FEF7BBFEB8E79F
:104BC0000020BDE770B5050008000024002802D0D1
:104BD000FEF713FD0400002C06D17FF01200FEF753
:104BE00095FE5FF0FF302FE002F020FA002600E093
:104BF000761C042E0DDA2F4850F826000028F7D036
:104C000029002C4850F82600006802F0B1FB00286B
:104C1000EED102F021FA042E10DA264850F82610C0
:104C20000869002806D17FF02500FEF76FFE5FF0CF
:104C3000FF3009E020000969884705E02900224883
:104C4000FFF7C6F95FF0FF3070BD000010B50C0033
:104C5000FFF7A3FE002808D081684969002904D025
:104C6000210082685269904701E05FF0FF3010BD7B
:104C700080B5FFF7A7FF01BDE0B5002800D10020F7
:104C800000A9FFF7E3FF002805D01048FFF7A0F9BF
:104C90005FF0FF300BE0009802994843800A002142
:104CA000009B029A01000A48FFF792F900200EBD0E
:104CB0002F000000F40B0020040C0020040C002046
:104CC000240C002030F4020808A002087CD8020856
:104CD0003CA0020840600060704742681160426872
:104CE0004A604160086070470168814201D101203B
:104CF00000E00020C0B2704780B51430FFF7EAFF33
:104D0000002002BD70B504000D001600280001F05F
:104D100056FDF6B2002E02D0012E06D01EE015F18F
:104D200014012000FFF7D9FF18E0266800E036687C
:104D3000A6420CD0B6F1140095F8351090F8352045
:104D40009142F4D215F114011430FFF7C6FFA642C8
:104D500004D115F114012000FFF7BFFF002070BD42
:104D600080B50068143801F055FD002002BD38B54B
:104D700004000CE001F066FF0500206814385FF0C5
:104D8000FF31016301F046FD280001F05FFF2000C4
:104D9000FFF7AAFF0028EDD0002032BDF8B50400CF
:104DA0000D0016001F00002C0FD100208DF8000010
:104DB000D823DFF8C429DFF8C419DFF8200BFFF788
:104DC00007F99DF800000028FBD02A0001212000EF
:104DD00001F0E9F92000FFF78FFFA683677200203A
:104DE000F2BD10B582B00400002C0FD100208DF868
:104DF0000000F523DFF88829DFF88019DFF8DC0AE6
:104E0000FFF7E6F89DF800000028FBD014F114002D
:104E1000FFF7ADFF200001F0E9F9002016BDF8B55D
:104E200004000D00160001F00DFF070001F004FF63
:104E3000002815D0DFF84C19DFF84C09FFF7C8F847
:104E400000208DF8000040F21113DFF8382992A1FC
:104E5000DFF8880AFFF7BCF89DF800000028FBD0B7
:104E6000380001F0F3FE2100012001F0E3F9040015
:104E7000002C01D1200005E02000FFF73DFFA583B5
:104E800066722000F2BD38B5040001F0DBFE0500BB
:104E900001F0D2FE002815D0DFF85019DFF8E8083D
:104EA000FFF796F800208DF800004FF49873DFF8B4
:104EB0003C2979A1DFF8240AFFF78AF89DF8000061
:104EC0000028FBD0280001F0C1FE002C10D10020EA
:104ED0008DF800004FF49973DFF81029DFF89C1863
:104EE000DFF8F809FFF774F89DF800000028FBD000
:104EF00014F11400FFF73BFF200001F0E3F900205C
:104F000032BDF2B582B00400002C10D100208DF823
:104F1000000040F24D13DFF82429DFF86018DFF8B5
:104F2000BC09FFF755F89DF800000028FBD0DFF81A
:104F300010090068002804D02000DFF8041909686F
:104F4000884701F07FFE0500A08B002811D0A08BC0
:104F5000401EA083280001F079FEDFF88409006874
:104F6000002804D02000DFF878190968884700205D
:104F7000FEBD0298002805D1280001F067FE7FF0F1
:104F80000100F5E701F05EFE060001F0DDFA002801
:104F900015D1DFF8A818DFF84C09FFF719F8002041
:104FA0008DF8000040F26D13DFF890283AA1DFF889
:104FB0002C09FFF70DF89DF800000028FBD001F048
:104FC00041FE070001F038FE002815D0DFF86C180C
:104FD000DFF8B407FEF7FCFF00208DF8000040F278
:104FE0006D13DFF858282CA1DFF8F008FEF7F0FF6A
:104FF0009DF800000028FBD0380001F027FE3000AB
:1050000001F024FE01F0A0FA060000203063627A6D
:10501000310014F11400FFF775FE0298012809DB36
:1050200002AA002116F14C0002F018FF16F14C0004
:1050300002F04AFE280001F009FE01F010FD306B7D
:1050400000288AD0306B93E770B50400DFF8600A5F
:105050000068002804D02000DFF8541A0968884747
:10506000002601F0EFFD050014F11400FFF73CFEEF
:10507000002805D114F11400FFF772FE012602E0AA
:10508000A08B401CA083280001F0E0FD012E01D17F
:1050900001F0E5FC002070BD3000000070B582B06A
:1050A00004000E001500002C10D100208DF8000027
:1050B00040F20F23DFF83028DFF83018DFF8F4096A
:1050C000FEF786FF9DF800000028FBD03200022189
:1050D000200001F068F82000FFF70EFE0120A083F9
:1050E00000202062FF20A0770020E077657200207A
:1050F00076BD70B582B005000C0001F0A3FD06007E
:1051000001F09AFD002815D0DFF8AC19DFF8780619
:10511000FEF75EFF00208DF8000040F24923DFF823
:10512000982993A1DFF88C09FEF752FF9DF8000043
:105130000028FBD0300001F089FD2900022001F099
:1051400079F80500002D01D128000CE02800FFF7B8
:10515000D3FD0120A88300202862FF20A87700202B
:10516000E8776C72280076BD38B5040001F06AFD5E
:10517000050001F061FD002815D0DFF84019DFF8C7
:105180000806FEF725FF00208DF8000040F26A2394
:10519000DFF8282976A1DFF81C09FEF719FF9DF832
:1051A00000000028FBD0280001F050FD002C10D199
:1051B00000208DF800004FF41B73DFF80029DFF8A2
:1051C0002C17DFF8F008FEF703FF9DF80000002819
:1051D000FBD014F11400FFF7CAFD200001F072F8B3
:1051E000002032BD73B5040001F02CFD050001F074
:1051F000ABF9002815D1DFF8C818DFF8E806FEF78C
:10520000E7FE00208DF800004FF42273DFF8B0288D
:1052100057A1DFF8C806FEF7DBFE9DF80000002866
:10522000FBD001F00FFD060001F006FD002815D0AF
:10523000DFF88C18DFF85005FEF7CAFE00208DF865
:1052400000004FF42273DFF8782849A1DFF88C06BC
:10525000FEF7BEFE9DF800000028FBD0300001F0F4
:10526000F5FC280001F0F2FC002C10D100208DF894
:10527000000040F28A23DFF84828DFF87016DFF8D4
:105280005C06FEF7A5FE9DF800000028FBD001F0AB
:10529000D9FC050001F058F90600DFF8A405006804
:1052A000002804D02000DFF89815096888470020FE
:1052B0003063206AB04203D1E07F401CE07746E0D3
:1052C000A08B00280AD0A08B401EA083266296F8EF
:1052D0003500A077E07F401CE07738E00198002897
:1052E00008D17FF001003063280001F0AFFC7FF0AF
:1052F00001003AE096F83500216A91F835108842AD
:1053000005D216F135020221206A01F010FA627A04
:10531000310014F11400FFF7F5FC0198012809DBB6
:1053200001AA002116F14C0002F098FD16F14C0084
:1053300002F0CAFC280001F089FC01F090FB306B00
:10534000002801D0306B10E001F07CFC0500280043
:1053500001F07CFCDFF888050068002804D02000FC
:10536000DFF87C1509688847002076BD0000000042
:1053700030000000F8B50400002501F063FC0600D1
:1053800001F0E2F8002815D1DFF83019DFF85405F4
:10539000FEF71EFE00208DF8000040F20D33DFF80E
:1053A0001C2952A1DFF83405FEF712FE9DF800001B
:1053B0000028FBD001F046FC070001F03DFC00286E
:1053C00015D0DFF8F818DFF8C003FEF701FE002063
:1053D0008DF8000040F20D33DFF8E02843A1DFF83C
:1053E000FC04FEF7F5FD9DF800000028FBD0380016
:1053F00001F02CFC300001F029FC01F0A5F80600BA
:1054000001F020FC0700DFF8A8060068002804D09F
:105410002000DFF89C1609688847206A864208D079
:105420005FF0FF303063380001F010FC5FF0FF30B8
:1054300036E0E07F401EE077E07F002828D1A07FA3
:10544000216A91F83510884205D014F11E0202211C
:10545000206A01F06CF914F11400FFF745FC0028F4
:105460000FD16069B0F11406266296F83500A07776
:10547000E07F401CE07714F11400FFF771FC012578
:1054800006E0A08B401CA08300202062FF20A077B4
:10549000380001F0DBFB012D01D101F0E0FA002022
:1054A000F2BD70B582B004000D001600002C10D1C2
:1054B00000208DF8000040F27B33DFF8D028DFF8C1
:1054C000D018DFF8F005FEF783FD9DF800000028F6
:1054D000FBD02A000321200000F065FE6672200048
:1054E000FFF70AFC0020E061002076BD30000000DC
:1054F000F8B504000D00002C10D100208DF800003C
:1055000040F2EF33DFF81029DFF88418DFF8CC031E
:10551000FEF75EFD9DF800000028FBD0002D02D1B3
:105520005FF0FF304FE00026DFF8840500680028B8
:1055300004D02000DFF878150968884701F082FB65
:105540000700E0692843E06114F11400FFF7CCFB89
:10555000002830D165691AE090F84020920708D5FC
:10556000C26BE3691A4204D0C16BE2691140C163A6
:1055700000212D6800290AD190F84010490703D571
:10558000E169C26B9143E16101F044F9012614F134
:10559000140085420FD0B5F114005FF0FF3190F890
:1055A0004020D207D8D5C26BE3691A40C36B9A4238
:1055B000DFD10021DDE7380001F048FB012E01D1E9
:1055C00001F04DFA0020F2BD2DE9FC4704000D006A
:1055D000160001F037FB070000F0B6FF002813D1DA
:1055E000DFF85419BF48FEF7F3FC00208DF80000E7
:1055F00040F24F43DFF840298FA1B848FEF7E8FC9E
:105600009DF800000028FBD001F01CFB804601F053
:1056100013FB002813D0DFF820195B48FEF7D8FCF5
:1056200000208DF8000040F24F43DFF80C2982A1E2
:10563000AA48FEF7CDFC9DF800000028FBD04046AC
:1056400001F004FB380001F001FB002C0FD1002019
:105650008DF8000040F25243DFF8DC28DFF8301705
:105660009E48FEF7B5FC9DF800000028FBD0002DF9
:1056700002D15FF0FF307DE05FF0FF3700F064FFA4
:1056800080460020C8F830006D480068002803D02C
:1056900020006B490968884701F0D4FA8146F00779
:1056A00005D5E0692840A84217D1002715E0B007CA
:1056B00004D5E069284210D000270EE000208DF8C4
:1056C00000004FF48E63DFF870285BA18348FEF77B
:1056D0007FFC9DF800000028FBD0DDF828A0002FFB
:1056E00009D1E0692840CAF80000700735D5E069A3
:1056F000A843E06131E00198002804D17FF0010067
:10570000C8F8300029E0C8F83C5088F84060627A58
:10571000414614F11400FFF7F5FA0198012809DB5E
:1057200001AA002118F14C0002F098FB18F14C007E
:1057300002F0CAFA484601F089FA01F090F9D8F867
:105740003000002802D0D8F8300013E001F07AFAD7
:105750008146D8F83C00CAF80000484601F076FAC5
:105760005F480068002803D020005D490968884729
:10577000D8F83000BDE8F687CCF0020840E902080E
:1057800050E9020860E90208D0B00208F8B5040048
:105790000D0016001F00002C10D100208DF8000015
:1057A00040F2EB43DFF89827DFF89817DFF8980905
:1057B000FEF70EFC9DF800000028FBD02A00042113
:1057C000200000F0F0FC069860722000FFF794FAC9
:1057D000E6612784002060840020A0840020E0840B
:1057E00014F12800FFF776FA0020F2BD70E90208F4
:1057F00010B582B00400002C10D100208DF80000FC
:1058000040F20E53DFF83429DFF83817DFF8380993
:10581000FEF7DEFB9DF800000028FBD014F1140019
:10582000FFF7A5FA14F12800FFF7A1FA200000F015
:10583000DDFC002016BD000030000000D8F002089A
:1058400098200020F8B504000D00160001F0FAF9C8
:10585000070001F0F1F9002815D0DFF8E418DFF8AF
:10586000E408FEF7B5FB00208DF8000040F22A5353
:10587000DFF8CC288DA1DFF8D008FEF7A9FB9DF852
:1058800000000028FBD0380001F0E0F921000420DE
:1058900000F0D0FC0400002C01D120001CE0667256
:1058A0002000FFF729FA2584208C8000FEF7FAFCFF
:1058B000E061E069002804D1200000F003FD002031
:1058C0000AE0002060840020A0840020E08414F11D
:1058D0002800FFF7FFF92000F2BD000060B80208C1
:1058E0009C200020289F020880E9020824DB02088F
:1058F0002DE9F64704000D00002C10D100208DF892
:10590000000040F28553DFF84828DFF83816DFF84A
:105910003808FEF75DFB9DF800000028FBD05FF023
:10592000000800F011FE060061480068002803D05E
:1059300020005F490968884701F084F90700608CFE
:10594000218C88421BD10198002818D1380001F021
:105950007DF97FF00200A7E001F074F907000198DB
:1059600001280CDB02F015FBB0EB08080198B0EB46
:10597000080001900198002801D500200190608C5A
:10598000218C88426BD1002030630198002805D11A
:10599000380001F05BF97FF0020085E001F052F978
:1059A000814600F0D1FD002815D1DFF8A417DFF8FB
:1059B000A407FEF70DFB00208DF800004FF4B5633F
:1059C000DFF88C2739A1DFF88007FEF701FB9DF88F
:1059D00000000028FBD001F035F9824601F02CF9D7
:1059E000002815D0DFF86817DFF85807FEF7F0FA3F
:1059F00000208DF800004FF4B563DFF854272BA189
:105A0000DFF84407FEF7E4FA9DF800000028FBD019
:105A1000504601F01BF9484601F018F9627A31004E
:105A200014F12800FFF76EF9019801280CDB02F051
:105A3000B0FA804601AA002116F14C0002F00EFADD
:105A400016F14C0002F040F9380001F0FFF801F0C7
:105A500006F8306B00283FF47FAF306B24E0A08C59
:105A6000E16941F82050A08C401CA084A08C218CBE
:105A7000884201D30020A084608C401C608414F113
:105A80001400FFF731F900280AD114F11400FFF7D0
:105A900067F9380001F0DAF800F0E1FF002003E0D8
:105AA000380001F0D3F80020BDE8F6873000000090
:105AB000A020002060B8020890E90208A0E90208CE
:105AC000B0E9020880B50022FFF712FF02BD2DE900
:105AD000F64704000D00002C10D100208DF80000C6
