:020000040800F2
:10000000689B0020A1D202084DB30208B5DA0008AF
:100010004FB3020851B3020853B3020800000000B6
:1000200000000000000000000000000055B30208BE
:1000300057B302080000000041DA000807CB0008AF
:1000400025D7020829D702082DD7020811B80208BF
:1000500035D7020839D70208F5C4020841D702088B
:1000600045D7020849D702084DD70208892201085E
:1000700055D7020859D702085DD7020861D7020890
:10008000553102085D3102086DD7020871D70208A8
:100090002D9B020879D702087DD702086DC10008A0
:1000A00085D7020889D702088DD7020891D70208A0
:1000B00095D7020899D702089DD702086531020832
:1000C0006D310208A9D70208ADD70208B1D70208DE
:1000D000B5D7020859B302086BB3020885B302080A
:1000E000C5D70208C9D70208CDD702080000000012
:1000F0000000000000000000000000000000000000
:100100000000000000000000BF210108D5D7020850
:10011000D9D70208DDD70208E1D70208E5D70208DF
:10012000E9D70208EDD70208F1D70208F5D702088F
:10013000F9D70208FDD7020801D8020805D802083D
:100140003F9B02080DD8020811D8020815D80208F2
:10015000000000FF000000FF000000FF000000FFA3
:10016000000000FF000000FF000000FF000000FF93
:10017000000000FF000000FF000000FF000000FF83
:10018000000000FF000000FF000000FF000000FF73
:1004E000000000FF000000FF101010FD3E3E3EE047
:1004F0005A5A5AC65A5A5ABF5A5A5ABF5A5A5ABFC1
:100500005A5A5ABF5A5A5ABF5A5A5ABF595A5ABFB8
:100510005A5A5ABF5A5A5ABF5A5A5ABF5A5A5ABFA7
:100520005A5A5ABF5A5A5ABF5A5A5ABF5A5A5ABF97
:100530005A5A5ABF5A5A5ABF5A5A5ABF5A5A5ABF87
:100540005A5A5ABF5A5A5ABF5A5A5ABF5A5A5ABF77
:100550005A5A5ABF5A5A5ABF5A5A5ABF5A5A5ABF67
:100560005A5A5ABF5A5A5ABF5A5A5ABF5A5A5ABF57
:100570005A5A5ABF5A5A5ABF5A5A5ABF5A5A5ABF47
:100580005A5A5ABF5A5A5ABF5A5A5ABF5A5A5ABF37
:100590005A5A5ABF5A5A5AC21F1F1FF5000000FF6D
:1005A000000000FF000000FF000000FF000000FF4F
:1005B000000000FF000000FF000000FF000000FF3F
:1005C000000000FF000000FF000000FF000000FF2F
:1005D000000000FF000000FF000000FF000000FF1F
:1005E000000000FF000000FF000000FF000000FF0F
:1005F000000000FF040404FF595959C997A3AA5FDA
:1006000098B7C91672A0BB005D94B3005992B200AE
:100610005993B5005A95B7005A96B9005B98BC003B
:100620005B99BE005C9BBF005F9CC000619DC000E9
:10063000639EC10065A0C20068A2C3006AA3C40093
:100640006CA4C5006EA6C50070A7C60071A9C7003E
:1006500074AAC70076ABC80077ACC90077ACC800F5
:1006600076ACC90075ABC90073AAC90072A9C800ED
:1006700070A9C8006EA7C8006DA6C7006BA6C7000A
:1006800069A4C70067A3C60065A2C60063A2C5002F
:1006900062A1C60061A0C400619EC200619EC0004C
:1006A000619DBF00619BBD00609ABB0084B2CB001E
:1006B000A7A7A78F000000FF000000FF000000FFB9
:1006C000000000FF000000FF000000FF000000FF2E
:1006D000000000FF000000FF000000FF000000FF1E
:1006E000000000FF000000FF000000FF000000FF0E
:1006F000000000FF000000FF000000FF000000FFFE
:10070000000000FF000000FF191919F59CA3A86163
:100710006991A9023A74980036769C003678A00058
:10072000377BA400387DA700397FAB003982AE004B
:100730003985B2003B87B6003B8AB9003C8CBB00D0
:10074000418EBD004690BD004892BF004D95C0004F
:100750005197C1005499C200589BC3005C9EC400CD
:100760005FA0C50062A3C70066A5C7006AA7C8004E
:100770006DA9C9006CA9C9006AA6C80066A5C70012
:1007800062A3C6005EA0C5005B9EC400579BC30069
:100790005499C2005197C1004C94C0004892BF00C8
:1007A0004590BD00408EBC003C8CBC003B8AB9002B
:1007B0003A86B5003985B1003982AE00397FAA008A
:1007C0003D7EA400B8CCD81D2E2E2EF1000000FFD7
:1007D000000000FF000000FF000000FF000000FF1D
:1007E000000000FF000000FF000000FF000000FF0D
:1007F000000000FF000000FF000000FF000000FFFD
:10080000000000FF000000FF000000FF000000FFEC
:10081000000000FF000000FF000000FF131313FBA7
:10082000B4BDC3473C6D8B00367196003773990099
:1008300036769D003678A000377BA300367AA30079
:1008400034759C003373990035749A0034759C009C
:1008500035779E0036789F003979A0003B7AA0005A
:100860003D7BA100407CA200437EA2004480A30007
:100870004781A4004983A4004B84A5004D86A600AF
:100880004F87A6005288A7005289A7005389A70066
:100890005188A7004F87A7004D86A7004C85A6006A
:1008A0004A84A6004883A6004682A5004481A5008C
:1008B000427FA500407EA4003D7DA3003B7CA300B9
:1008C000397CA300397AA10038799F0038779D00E0
:1008D00038769C00387599006991A8017F8080A9BD
:1008E000000000FF000000FF000000FF000000FF0C
:1008F000000000FF000000FF000000FF000000FFFC
:10090000000000FF000000FF000000FF000000FFEB
:10091000000000FF000000FF000000FF000000FFDB
:10092000000000FF000000FF000000FF000000FFCB
:10093000000000FF92939492507D9800356D9200D4
:10094000367096003772990036759C0034719600A7
:100950006690A900ABBFCB00D9E1E700F0F3F60049
:10096000F6F8F900F6F8F900F6F8F900F6F8F900EB
:10097000F6F8F900F6F8F900F6F8F900F6F8F900DB
:10098000F6F8F900F6F8F900F6F8F900F6F8F900CB
:10099000F6F8F900F6F8F900F6F8F900F6F8F900BB
:1009A000F6F8F900F6F8F900F6F8F900F6F8F900AB
:1009B000F6F8F900F6F8F900F6F8F900F6F8F9009B
:1009C000F6F8F900F6F8F900F6F8F900F6F8F9008B
:1009D000F6F8F900F6F8F900F6F8F900F7F8F9007A
:1009E000F7F8F900F7F8F900F7F8FA00F6F8F90067
:1009F000D9DADA46080808FE000000FF000000FF10
:100A0000000000FF000000FF000000FF000000FFEA
:100A1000000000FF000000FF000000FF000000FFDA
:100A2000000000FF000000FF000000FF000000FFCA
:100A3000000000FF000000FF000000FF000000FFBA
:100A4000000000FF000000FF3B3B3BE59BB8C811E6
:100A5000346A8D00356D91003670950037729800BC
:100A6000477C9D00CBD9E100FFFFFF00FFFFFF00A7
:100A7000FFFFFF00FFFFFF00FFFFFF00FFFFFF0082
:100A8000FFFFFF00FFFFFF00FFFFFF00FFFFFF0072
:100A9000FFFFFF00FFFFFF00FFFFFF00FFFFFF0062
:100AA000FFFFFF00FFFFFF00FFFFFF00FFFFFF0052
:100AB000FFFFFF00FFFFFF00FFFFFF00FFFFFF0042
:100AC000FFFFFF00FFFFFF00FFFFFF00FFFFFF0032
:100AD000FFFFFF00FFFFFF00FFFFFF00FFFFFF0022
:100AE000FFFFFF00FFFFFF00FFFFFF00FFFFFF0012
:100AF000FFFFFF00FFFFFF00FFFFFF00FFFFFF0002
:100B0000FFFFFF00FEFEFE08474747D8000000FF3A
:100B1000000000FF000000FF000000FF000000FFD9
:100B2000000000FF000000FF000000FF000000FFC9
:100B3000000000FF000000FF000000FF000000FFB9
:100B4000000000FF000000FF000000FF000000FFA9
:100B5000000000FF000000FF000000FF070707FF84
:100B6000BDC6CB5A3C759800356A8D00366D900035
:100B7000366F94003D799E00DDE7ED00FFFFFF003A
:100B8000FFFFFF00FFFFFF00FFFFFF00FFFFFF0071
:100B9000FFFFFF00FFFFFF00FFFFFF00FFFFFF0061
:100BA000FFFFFF00FFFFFF00FFFFFF00FFFFFF0051
:100BB000FFFFFF00FFFFFF00FFFFFF00FFFFFF0041
:100BC000FFFFFF00FFFFFF00FFFFFF00FFFFFF0031
:100BD000FFFFFF00FFFFFF00FFFFFF00FFFFFF0021
:100BE000FFFFFF00FFFFFF00FFFFFF00FFFFFF0011
:100BF000FFFFFF00FFFFFF00FFFFFF00FFFFFF0001
:100C0000FFFFFF00FFFFFF00FFFFFF00FFFFFF00F0
:100C1000FFFFFF00FFFFFF00FFFFFF00A1A1A17C7E
:100C2000000000FF000000FF000000FF000000FFC8
:100C3000000000FF000000FF000000FF000000FFB8
:100C4000000000FF000000FF000000FF000000FFA8
:100C5000000000FF000000FF000000FF000000FF98
:100C6000000000FF000000FF000000FF000000FF88
:100C7000000000FF7B7B7BBC74A4C10134698A0047
:100C8000356A8B00356C8F00356F940089B3CC00CA
:100C9000FFFFFF00FFFFFF00FFFFFF00FFFFFF0060
:100CA000FFFFFF00EFF4F700D8E5ED00D8E6ED0018
:100CB000D8E6EE00D9E6EE00D9E7EE00D9E7EF007E
:100CC000DAE7EF00DAE8EF00DAE8F000DBE9F0005D
:100CD000DBE9F100DBE9F100DBE9F100DCEAF1003E
:100CE000DCEAF200DCEAF200DCEAF200DCEAF20024
:100CF000DCEAF200DEECF300FDFEFE00FFFFFF0089
:100D0000FFFFFF00FFFFFF00FFFFFF00FEFEFF00F1
:100D1000DAE5EB00D4E0E800D5E2EA00D7E4EC0045
:100D2000D8E5ED00DAE7EF00DBE9F100E1EDF400F2
:100D3000FAFAFA22292929F5000000FF000000FF35
:100D4000000000FF000000FF000000FF000000FFA7
:100D5000000000FF000000FF000000FF000000FF97
:100D6000000000FF000000FF000000FF000000FF87
:100D7000000000FF000000FF000000FF000000FF77
:100D8000000000FF000000FF161616F8B8CFDD299E
:100D9000367196003467880034698A00356B8E009E
:100DA00037739A00B5D2E400FFFFFF00FFFFFF009A
:100DB000FFFFFF00FFFFFF00F0F3F600487D9C00FF
:100DC0003B789E003B7BA2003C7DA4003C7FA700BB
:100DD0003D81AB003E84AE003E86B0003F88B4004B
:100DE000408AB700408CB900428EBB00448FBC00E3
:100DF0004791BD004A92BD004C94BE004D95BF0086
:100E00004E95BF005096C0005096C00076A7C20015
:100E1000FCFDFE00FFFFFF00FFFFFF00FFFFFF00E4
:100E2000FFFFFF009FB8C6004388B200418CB800A6
:100E30003F8BB8003F8BB8003F8AB7004089B500B0
:100E40004289B4008AB6CE01868687B1000000FFD1
:100E5000000000FF000000FF000000FF000000FF96
:100E6000000000FF000000FF000000FF000000FF86
:100E7000000000FF000000FF000000FF000000FF76
:100E8000000000FF000000FF000000FF000000FF66
:100E9000000000FF000000FF000000FF000000FF56
:100EA0009B9D9E866398B8003363830033658600FC
:100EB00034688900356A8C0039719500ADCEE10047
:100EC000FFFFFF00FFFFFF00FFFFFF00FFFFFF002E
:100ED000FFFFFF00A3B8C500396F8F0036769C0076
:100EE0003779A100377BA400387DA700387FAA009E
:100EF0003982AD003A84B0003A85B3003A87B60033
:100F00003B89B9003C8BBB003D8CBB003F8DBC00D6
:100F1000428EBD00448FBD004690BE004691BE008B
:100F2000407FA400CCDAE100FFFFFF00FFFFFF00DD
:100F3000FFFFFF00FFFFFF00E1E7EB003D799D00B1
:100F40003D8DBC003C8BBB003B8AB9003B88B700A1
:100F50003A86B4003A84B0004A88AC00BCC6CB4F95
:100F6000090909FF000000FF000000FF000000FF6A
:100F7000000000FF000000FF000000FF000000FF75
:100F8000000000FF000000FF000000FF000000FF65
:100F9000000000FF000000FF000000FF000000FF55
:100FA000000000FF000000FF000000FF000000FF45
:100FB000000000FF3E3E3EDEAFCEDF0C3A6A890005
:100FC00033628200336484003466870034698A00A7
:100FD000356B8D006EA1BF00F8FBFD00FFFFFF0029
:100FE000FFFFFF00FFFFFF00FFFFFF00FFFFFF000D
:100FF000E4EBEF006C94AD0034749A003779A100F3
:10100000377BA400387DA600397FA9003981AD0067
:101010003983AF003A85B2003A86B4003B88B70006
:101020003B89B9003C8BBB003C8CBC003E8CBC00B7
:101030003F8DBC003E89B700779AAF00FFFFFF00ED
:10104000FFFFFF00FFFFFF00FFFFFF00FFFFFF00AC
:101050006C96AF003A89B8003B8AB9003B88B7006C
:101060003A86B5003A85B2003983B0003A7EA800CE
:1010700098B5C50C474747DD000000FF000000FFA2
:10108000000000FF000000FF000000FF000000FF64
:10109000000000FF000000FF000000FF000000FF54
:1010A000000000FF000000FF000000FF000000FF44
:1010B000000000FF000000FF000000FF000000FF34
:1010C000000000FF000000FF0A0A0AFEB9C4CB4F6F
:1010D0004A7FA000315F7D0033618000336383006D
:1010E000336585003467880034698B00397093005C
:1010F00080AFCB00F2F7FA00FFFFFF00FFFFFF0019
:10110000FFFFFF00FFFFFF00FFFFFF00FFFFFF00EB
:10111000B8CEDB004884A9003679A100377BA30054
:10112000377CA500387EA9003980AB003A81AD003C
:101130003A83AF003A84B2003A86B4003A87B600E8
:101140003B88B8003B89B9003B89B9004183A900BD
:10115000EBF0F400FFFFFF00FFFFFF00FFFFFF00C9
:10116000FFFFFF00BFD6E4003982AF003A87B60028
:101170003A86B4003A85B2003983B0003982AE00B5
:101180003880AC00487996009A9D9E85000000FF4B
:10119000000000FF000000FF000000FF000000FF53
:1011A000000000FF000000FF000000FF000000FF43
:1011B000000000FF000000FF000000FF000000FF33
:1011C000000000FF000000FF000000FF000000FF23
:1011D000000000FF000000FF000000FF000000FF13
:1011E0007F7F80B0559ABC011F5271002356740056
:1011F000285A79002E5E7E003262830033658600B5
:1012000034688900356A8C00366C90004E89AF00D6
:10121000BBD5E600FFFFFF00FFFFFF00FFFFFF0061
:10122000FFFFFF00FFFFFF00FFFFFF00F1F6F900E7
:1012300086B2CE003B7FAA00377AA200377BA4009B
:10124000377CA600397EA9003980AB003981AD001A
:101250003982AF003A83B0003A84B2003A85B300D5
:101260003A85B300A9C8DA00FFFFFF00FFFFFF00C7
:10127000FFFFFF00FFFFFF00F8FBFD00599AC200CF
:101280003A84B2003983B0003481AE002E7DAA00CA
:101290002879A6002276A30018689000A2B3BD2981
:1012A000151515F7000000FF000000FF000000FF0B
:1012B000000000FF000000FF000000FF000000FF32
:1012C000000000FF000000FF000000FF000000FF22
:1012D000000000FF000000FF000000FF000000FF12
:1012E000000000FF000000FF000000FF000000FF02
:1012F000000000FF272727F4A2BFCD221A55750052
:101300001B4D6A001A4F6D0019517000175373007E
:101310001655760018587A001D5C7F002260830005
:10132000276487002B678A00306E94006C9CB8009D
:10133000E5EDF200FFFFFF00FFFFFF00FFFFFF00F2
:10134000FFFFFF00FFFFFF00FFFFFF00D3E4EF0000
:10135000649DBF00387AA200377AA200377BA400D0
:10136000387CA600387DA800387FAA003980AB0001
:101370003981AC003B82AE006EA7C900FCFDFE00C7
:10138000FFFFFF00FFFFFF00FFFFFF00FFFFFF0069
:10139000A4CADE00287EAB001E77A5001A75A30044
:1013A0001973A1001A729F001B709D001B6F9B0098
:1013B0005693B101666666BB000000FF000000FFA7
:1013C000000000FF000000FF000000FF000000FF21
:1013D000000000FF000000FF000000FF000000FF11
:1013E000000000FF000000FF000000FF000000FF01
:1013F000000000FF000000FF000000FF000000FFF1
:10140000000000FF000000FF030303FFB0B3B57945
:101410002E607C001D4A66001C4B68001B4D6B0053
:101420001A4F6D001951700017537300155576004F
:101430001357790013587B00145A7E00145C800007
:10144000155E8300166085001E678A0097B3C20090
:10145000FCFDFD00FFFFFF00FFFFFF00FFFFFF009F
:10146000FFFFFF00FFFFFF00ECF3F8004E94B80011
:10147000236F98002470990024719B0024729D00B2
:1014800024729D0023739F002173A0003585B00056
:10149000DAEAF200FFFFFF00FFFFFF00FFFFFF009F
:1014A000FFFFFF00DCECF4002F84AF001A719F00F7
:1014B0001A719E001B709D001B6F9B001B6E9A0093
:1014C0001A6D9800217DAA00B2C0C758020202FF1F
:1014D000000000FF000000FF000000FF000000FF10
:1014E000000000FF000000FF000000FF000000FF00
:1014F000000000FF000000FF000000FF000000FFF0
:10150000000000FF000000FF000000FF000000FFDF
:10151000000000FF000000FF000000FF000000FFCF
:10152000535353D67B9DAF071D4966001D49650087
:101530001D4A66001C4C69001B4D6B001A4F6E0063
:101540001951700017537300155576001356780023
:1015500013587B00135A7D00145C8000155E8200D6
:1015600015608400165E830047789200D4DFE500A2
:10157000FFFFFF00FFFFFF00FFFFFF00FFFFFF0077
:10158000FFFFFF00A4CCDF00166A940017689100EB
:1015900017699300186A9400196B96001A6C9700EB
:1015A000196E9A0075B2D000FFFFFF00FFFFFF0029
:1015B000FFFFFF00FFFFFF00FEFEFF00519ABC008F
:1015C0001B6F9A001A6D99001A6D98001A6C97009B
:1015D000186B9600186A940022739C00A0C9DD0F56
:1015E000444444E4000000FF000000FF000000FF4E
:1015F000000000FF000000FF000000FF000000FFEF
:10160000000000FF000000FF000000FF000000FFDE
:10161000000000FF000000FF000000FF000000FFCE
:10162000000000FF000000FF000000FF000000FFBE
:10163000000000FF070707FEAAB6BD43225675004B
:101640001D4965001D4865001D4865001D4A67006D
:101650001C4B69001B4D6B001A4F6D0019516F0038
:1016600017537300165575001456780013577A00F7
:1016700013597D00145B7F00145C8100155E8300AC
:10168000166085001D628400C8D7E000FFFFFF00E0
:10169000FFFFFF00FFFFFF00FFFFFF00E2EAEE0099
:1016A000145D800017658C0017668E0017668F002A
:1016B0001668910016689200266C8E00EDF3F60015
:1016C000FFFFFF00FFFFFF00FFFFFF00FFFFFF0026
:1016D000AAC3CF0014689100176A94001769940098
:1016E00017699300166892001667900017679000BC
:1016F000549ABD00A3A6A78E000000FF000000FFC3
:10170000000000FF000000FF000000FF000000FFDD
:10171000000000FF000000FF000000FF000000FFCD
:10172000000000FF000000FF000000FF000000FFBD
:10173000000000FF000000FF000000FF000000FFAD
:10174000000000FF000000FF000000FF808080A478
:10175000B1C7D4017599AE007498AD007498AD000E
:101760007598AD007498AD007499AE007499AE0090
:101770007499AE00739AAF00739AAF00739AB00079
:10178000739BB000729BB100729BB100729BB10061
:10179000729BB100739CB200749CB30082A7BB0023
:1017A000EAF0F400FFFFFF00FFFFFF00FFFFFF0074
:1017B000FFFFFF00CEDBE300175C800016618700AF
:1017C0001662880017638A0017648B00186287000E
:1017D000A5BBC700FFFFFF00FFFFFF00FFFFFF00EB
:1017E000FFFFFF00F0F4F7002E68870017668F00F8
:1017F00017668E0017658E0017658D0017648C00C4
:1018000017648B00176E9900ADCAD8301B1B1BFAEA
:10181000000000FF000000FF000000FF000000FFCC
:10182000000000FF000000FF000000FF000000FFBC
:10183000000000FF000000FF000000FF000000FFAC
:10184000000000FF000000FF000000FF000000FF9C
:10185000000000FF000000FF000000FF000000FF8C
:10186000292929EFF9F9F91AFFFFFF00FFFFFF000F
:10187000FFFFFF00FFFFFF00FFFFFF00FFFFFF0074
:10188000FFFFFF00FFFFFF00FFFFFF00FFFFFF0064
:10189000FFFFFF00FFFFFF00FFFFFF00FFFFFF0054
:1018A000FFFFFF00FFFFFF00FFFFFF00FFFFFF0044
:1018B000FFFFFF00FFFFFF00FFFFFF00FFFFFF0034
:1018C000FFFFFF00FFFFFF00FFFFFF006F99B00069
:1018D000155C8000155D8100155E8300165F840035
:1018E000166085005385A100FDFEFE00FFFFFF008E
:1018F000FFFFFF00FFFFFF00FFFFFF0080A5B90013
:1019000018628800176289001762880017628800D1
:101910001661870016618600155F84006A9EB7060F
:101920005D5D5DC5000000FF000000FF000000FFDE
:10193000000000FF000000FF000000FF000000FFAB
:10194000000000FF000000FF000000FF000000FF9B
:10195000000000FF000000FF000000FF000000FF8B
:10196000000000FF000000FF000000FF000000FF7B
:10197000000000FF010101FFBDBDBD6DFFFFFF00C5
:10198000FFFFFF00FFFFFF00FFFFFF00FFFFFF0063
:10199000FFFFFF00FFFFFF00FFFFFF00FFFFFF0053
:1019A000FFFFFF00FFFFFF00FFFFFF00FFFFFF0043
:1019B000FFFFFF00FFFFFF00FFFFFF00FFFFFF0033
:1019C000FFFFFF00FFFFFF00FFFFFF00FFFFFF0023
:1019D000FFFFFF00FFFFFF00FFFFFF00FFFFFF0013
:1019E0009DB9C800185B7E0013587B0013597D0019
:1019F000135A7E00145B7F001E628500D5E0E7006D
:101A0000FFFFFF00FFFFFF00FFFFFF00FFFFFF00E2
:101A1000D4E0E7001F638600155E8300155E830037
:101A2000155E8300155D8200155D8200155B7F00E9
:101A30006D91A5097E7F80A5000000FF000000FFDA
:101A4000000000FF000000FF000000FF000000FF9A
:101A5000000000FF000000FF000000FF000000FF8A
:101A6000000000FF000000FF000000FF000000FF7A
:101A7000000000FF000000FF000000FF000000FF6A
:101A8000000000FF000000FF000000FF646464CE5F
:101A9000FFFFFF05FFFFFF00FFFFFF00FFFFFF004D
:101AA000FFFFFF00FFFFFF00FFFFFF00FFFFFF0042
:101AB000FFFFFF00FFFFFF00FFFFFF00FFFFFF0032
:101AC000FFFFFF00FFFFFF00FFFFFF00FFFFFF0022
:101AD000FFFFFF00FFFFFF00FFFFFF00FFFFFF0012
:101AE000FFFFFF00FFFFFF00FFFFFF00FFFFFF0002
:101AF000E1E9EE006D96AD001A58790016557600B2
:101B0000155678001456790014577A0016597D003E
:101B100082A6BA00FFFFFF00FFFFFF00FEFEFE00EF
:101B2000FFFFFF00FDFEFE0051849F00155B7F005C
:101B3000155B7F00155B7F00165C7F0022648600CA
:101B40006491AA0497A7B0504A4A4AD5000000FF02
:101B5000000000FF000000FF000000FF000000FF89
:101B6000000000FF000000FF000000FF000000FF79
:101B7000000000FF000000FF000000FF000000FF69
:101B8000000000FF000000FF000000FF000000FF59
:101B9000000000FF000000FF000000FF000000FF49
:101BA000000000FF4E4E4ED8BDBDBD5FC0C0C05945
:101BB000C0C0C059C0C0C059C0C0C059C0C0C059C1
:101BC000C0C0C059C0C0C059C0C0C059C0C0C059B1
:101BD000C0C0C059C0C0C059C0C0C059C0C0C059A1
:101BE000C0C0C059C0C0C059C0C0C059C0C0C05991
:101BF000C0C0C059C0C0C059C0C0C059C0C0C05981
:101C0000C0C0C059B5B8BA5981939D597F919C59AC
:101C10007F919C597F919C597F919C597F919C59B0
:101C20007F919C5985969F59BBBCBD59BFBFBF5979
:101C3000C0C0C059BFBFBF59C0C0C059BEBEBF5948
:101C400082949E597F919C597F919C5981939D5E6E
:101C500079848B756F7172A3323232E5010101FF15
:101C6000000000FF000000FF000000FF000000FF78
:101C7000000000FF000000FF000000FF000000FF68
:101C8000000000FF000000FF000000FF000000FF58
:101C9000000000FF000000FF000000FF000000FF48
:101EE000000000FF000000FF0A1F28F725769C85F0
:101EF0000E2C3DE5050D14FF21688DA7000000FFA5
:101F0000091C26ED216C8F940B1D24F7000000FFA7
:101F1000000000FF000000FF000000FF000000FFC5
:101F2000000000FF000000FF000000FF000000FFB5
:101F3000000000FF000000FF000000FF000000FFA5
:101F4000000000FF000000FF000000FF000000FF95
:101F5000000000FF000000FF000000FF000000FF85
:101F6000000000FF000000FF000000FF000000FF75
:101F7000000000FF000000FF000000FF000000FF65
:101F8000000000FF000000FF000000FF000000FF55
:101F9000000000FF000000FF000000FF000000FF45
:101FA000000000FF000000FF000004FF0612389E42
:101FB000000000FF000000FF000000FF000000FF25
:101FC000000000FF000000FF000000FF000000FF15
:101FD000000000FF02050DF2050D2DAF000000FF0F
:101FE000000000FF000000FF000000FF000000FFF5
:101FF000000000FF000000FF000000FF000000FFE5
:10200000000000FF226D9695133C54D4154056D322
:10201000226A8F9406151BFC2986B1702987B47C2F
:10202000030A0DFF16455CBC216A8D9E2066889AC6
:102030000C2835DF000000FF000000FF000000FF5B
:10204000000000FF040A1CC1061234980611339ADE
:102050000610308C030919D2050F2BA8010206F9CE
:10206000000000FF040B21B3020611ED040C21B99E
:1020700006123299061131990610328702081AE8C1
:102080000613367A0611319C06113194050F2C9AED
:102090000612329D06102C9F010102FF04091BC588
:1020A0000611329906123399040B20BB010208FC79
:1020B0000612357A0612339A0612338F020713DBA3
:1020C000040B28C0091A4E3D061030B002050DE47D
:1020D000061131950611319D050F2BA0010205FB5C
:1020E00002050EDE061131930611319D0613368F5F
:1020F00006123F7C000000FF000000FF000000FF10
:10210000000000FF000000FF000000FF000000FFD3
:10211000000000FF000000FF000000FF226D969508
:10212000133C54D4000000FF3296C46E000000FF40
:10213000174B64AF164C67BF123648CB2C90BF5D6F
:1021400019536EAE1C5F7CAC33A2D75107141AFD35
:10215000000000FF000000FF020611E707143D77B2
:10216000010102FF000101FF06103194050C24B5A6
:1021700007163E70010309F4000000FF06102F83CC
:10218000061336B806113185000101FF000102FF78
:102190000613376D030B25D908164063000001FFB5
:1021A000030A1CC0050E2B93000000FF06123488A2
:1021B000040E2AC309194B4405102FA205102EA2A4
:1021C00008194950030D27D707163F5C000001FF8F
:1021D00001030BF907174967000005FF08184C6158
:1021E000000102FF08194B4C0612359D05102DA267
:1021F000071640780511359808184762010206FC59
:10220000000000FF03091ED206123F7B000000FF02
:10221000000000FF000000FF000000FF000000FFC2
:10222000000000FF000000FF000000FF000000FFB2
:10223000030B0EFC257AA584184F6CC1061218F109
:10224000339AC96207161DF21C5C7A9C1C6080AB35
:102250000B2431E1277EA8750D2937E211394ACECA
:10226000216C8FAE03080BFF2578A0811A536FAA4B
:10227000010308F60715406A020714D8020612E1A6
:1022800007163E5E040D24B506123591040C22B7E4
:10229000020611E60816444A050E29CE0815406AC2
:1022A000020713DD030714D808174440030C25D98F
:1022B00007143D6C000000FF030918C9040C249B9F
:1022C000000000FF05103192040C25CA0717416772
:1022D000030818D4030818DA07153C88020616F517
:1022E00006133A6B000000FF000008FF071949665B
:1022F000000005FF08184C61000001FF07143B7F38
:10230000040D25B9030713E407123693030B1DDDF3
:1023100007143F7A040B1EC302060FEA061132911E
:1023200006123F7A000000FF000000FF000000FFDF
:10233000000000FF000000FF000000FF000000FFA1
:10234000000000FF000000FF061218F7133E52BF06
:10235000133D51CB0C2632E0133D51BF0E2D3CE115
:10236000133E51C2133E52C4020608FF091E27F154
:1023700016485FB8144054C5040C10FD010102FF5B
:10238000134055CB0D2A38DF000000FF010207F98A
:10239000030B20BF040B21B9030816DF02050DED66
:1023A000010103FE030A1DC8040C22B503091BD555
:1023B000020714F50716437B0510309F050F2EA961
:1023C0000818475E010512F3030816DA000000FF43
:1023D000010309F202050DE6000000FF020612E407
:1023E00002040BF4010307F9040B20BE040B21BB0C
:1023F000010309F5000204FE030715DA000000FFDF
:10240000000004FF03091BD9000003FF03091CD7C8
:10241000000000FF000101FF03091ACF040C22B3E2
:10242000020610E7000000FF010102FE03091ECDB5
:10243000040C22B3030717E1020718DE000000FFB7
:10244000000000FF000000FF000000FF000000FF90
:10245000000000FF000000FF000000FF000000FF80
:10246000000000FF000000FF000000FF000000FF70
:10247000000000FF000000FF000000FF000000FF60
:10248000000000FF000000FF000000FF000000FF50
:10249000000000FF000000FF000000FF000000FF40
:1024A000000000FF000000FF000000FF000000FF30
:1024B000000000FF000000FF000000FF000000FF20
:1024C000000000FF000000FF000000FF01040BF30C
:1024D000040A1EB4040A1FB102040CEE000000FF3F
:1024E000000000FF000000FF000000FF000000FFF0
:1024F000000000FF000000FF000000FF000000FFE0
:10250000000000FF000000FF000000FF000000FFCF
:10251000000000FF000000FF000000FF000000FFBF
:10279000000000FF000000FF10B50400002C01F055
:1027A000BD832069002802D02069FFF7F5FF20785B
:1027B00001284CD0022800F00F82032800F0268266
:1027C000042800F02382052800F04C82062800F03F
:1027D0004982072800F07282082800F09A820928AE
:1027E00000F0BF820A2800F0E4820B2800F0098381
:1027F0000C2800F02E830D2800F053830E2800F0E3
:1028000078830F2800F09D83102800F0C2831128E0
:1028100000F0ED83122800F01B84132800F03C84A4
:10282000152800F0F884162800F05D86172800F0BF
:10283000C187182801F08D81192801F03B831A28DF
:1028400001F062831B2801F01F8301F05EBBA078BA
:1028500040072ED52420DFF8701709680870DFF8CC
:1028600068070068401CDFF860170860A06880688F
:10287000DFF8541709680870A0688068000ADFF85C
:10288000481709684870A0688068000CDFF838179E
:1028900009688870A0688068000EDFF82C17096846
:1028A000C870DFF824070068001DDFF81C170860F7
:1028B00090E1A078800740F1C280A068002800F075
:1028C0008981017AC91E012908D9891E7CD0491E37
:1028D00001293ED9891E062976D97BE1A17809070D
:1028E0000CD52421DFF8E02612681170DFF8D81625
:1028F0000968491CDFF8D02611600BE02521DFF8BC
:10290000C82612681170DFF8C0160968491CDFF884
:10291000B8261160C168DFF8B02612681170C1686E
:10292000090ADFF8A42612685170C168090CDFF8A3
:10293000982612689170C068000EDFF88C1609683E
:10294000C870DFF884060068001DDFF87C16086098
:1029500040E1A17809070CD52421DFF86C26126824
:102960001170DFF864160968491CDFF85C261160F5
:102970000BE02621DFF8502612681170DFF84816A8
:102980000968491CDFF840261160C168DFF8382665
:1029900012681170C168090ADFF82C26126851709C
:1029A000C168090CDFF8202612689170C068000E1B
:1029B000DFF814160968C870DFF80C060068001DFF
:1029C000DFF80416086005E1A17809070CD5242179
:1029D000DFF8F42512681170DFF8EC150968491C5E
:1029E000DFF8E42511600BE02721DFF8DC25126811
:1029F0001170DFF8D4150968491CDFF8CC25116087
:102A0000C168DFF8C42512681170C168090ADFF8CF
:102A1000B82512685170C168090CDFF8AC2512683E
:102A20009170C068000EDFF8A0150968C870DFF863
:102A300098050068001DDFF890150860CAE0A068DE
:102A4000002800F0C780417CC91E012909D9891ED0
:102A500000F08380491E012941D9891E06297CD9AD
:102A6000B8E0A17809070CD52421DFF85C251268AD
:102A70001170DFF854150968491CDFF84C25116006
:102A80000BE02521DFF8402512681170DFF83815BA
:102A90000968491CDFF83025116010F11401DFF8D6
:102AA00028251268117010F11401090ADFF81825A1
:102AB0001268517010F11401090CDFF80C2512682E
:102AC00091701430000EDFF800150968C870DFF847
:102AD000F8040068001DDFF8F01408607AE0A178BF
:102AE00009070CD52421DFF8E02412681170DFF803
:102AF000D8140968491CDFF8D02411600BE02621A6
:102B0000DFF8C42412681170DFF8BC140968491C8E
:102B1000DFF8B424116010F11401DFF8AC2412685E
:102B2000117010F11401090ADFF89C241268517029
:102B300010F11401090CDFF8902412689170143020
:102B4000000EDFF884140968C870DFF87C040068A0
:102B5000001DDFF8741408603CE0A17809070CD56B
:102B60002421DFF8642412681170DFF85C1409680E
:102B7000491CDFF8542411600BE02721DFF84824BA
:102B800012681170DFF840140968491CDFF8382416
:102B9000116010F11401DFF830241268117010F187
:102BA0001401090ADFF820241268517010F1140191
:102BB000090CDFF81424126891701430000EDFF84D
:102BC00008140968C870DFF800040068001DDFF809
:102BD000F813086001F09CB92220DFF8EC130968B3
:102BE0000870DFF8E4030068401CDFF8DC130860BD
:102BF0002079DFF8D41309680870DFF8CC03006887
:102C0000401CDFF8C413086001F082B92420DFF80B
:102C1000B81309680870DFF8B0030068401CDFF8DB
:102C2000A81308606068DFF8A0130968087060687E
:102C3000000ADFF89413096848706068000CDFF838
:102C40008813096888706068000EDFF87C130968D3
:102C5000C870DFF874030068001DDFF86C130860AB
:102C600001F056B92420DFF8601309680870DFF816
:102C700058030068401CDFF8501308606068DFF8F4
:102C80004813096808706068000ADFF83C13096897
:102C900048706068000CDFF830130968887060685D
:102CA000000EDFF824130968C870DFF81C03006801
:102CB000001DDFF81413086001F02AB960780128BC
:102CC0000CD10120DFF8001309680870DFF8F80262
:102CD0000068401CDFF8F012086018E060780228F5
:102CE00009D10220B84909680870B7480068401C3B
:102CF000B54908600BE06078032808D10320B24989
:102D000009680870B0480068401CAF49086001F0CD
:102D1000FFB86078012809D10420AB490968087020
:102D2000A9480068401CA849086018E0607802289B
:102D300009D10520A44909680870A3480068401C0F
:102D4000A14908600BE06078032808D106209E495D
:102D5000096808709C480068401C9B49086001F0A5
:102D6000D7B86078012809D10D2097490968087003
:102D700095480068401C9449086018E06078022873
:102D800009D10E209049096808708F480068401CDE
:102D90008D4908600BE06078032808D10F208A492C
:102DA0000968087088480068401C8749086001F07D
:102DB000AFB86078012809D10720834909680870F5
:102DC00081480068401C8049086018E0607802284B
:102DD00009D108207C49096808707B480068401CBC
:102DE000794908600BE06078032808D1092076490A
:102DF0000968087074480068401C7349086001F055
:102E000087B86078012809D10A206F4909680870DD
:102E10006D480068401C6C49086018E06078022822
:102E200009D10B2068490968087067480068401C90
:102E3000654908600BE06078032808D10C206249DE
:102E40000968087060480068401C5F49086001F02C
:102E50005FB86078012809D110205B4909680870C3
:102E600059480068401C5849086018E060780228FA
:102E700009D1112054490968087053480068401C62
:102E8000514908600BE06078032808D112204E49B0
:102E9000096808704C480068401C4B49086001F004
:102EA00037B86078012809D11320474909680870AC
:102EB00045480068401C4449086018E060780228D2
:102EC00009D114204049096808703F480068401C37
:102ED0003D4908600BE06078032808D115203A4985
:102EE0000968087038480068401C3749086001F0DC
:102EF0000FB86078012809D1162033490968087095
:102F000031480068401C3049086018E060780228A9
:102F100009D117202C49096808702B480068401C0B
:102F2000294908600BE06078032808D11820264959
:102F30000968087024480068401C2349086000F0B4
:102F4000E7BF6078012809D119201F490968087076
:102F50001D480068401C1C49086018E06078022881
:102F600009D11A2018490968087017480068401CE0
:102F7000154908600BE06078032808D11B2012492E
:102F80000968087010480068401C0F49086000F08C
:102F9000BFBF6078012809D11C200B49096808705F
:102FA00009480068401C084908601EE06078022853
:102FB0000CD11D2004490968087003480068401CB2
:102FC0000149086011E000BF0C140020607803285C
:102FD0000BD11E20DFF8881D09680870DFF8800D0E
:102FE0000068401CDFF8781D086000F091BF607831
:102FF00001280CD11F20DFF8681D09680870DFF870
:10300000600D0068401CDFF8581D08601EE0607805
:1030100002280CD12020DFF8481D09680870DFF86D
:10302000400D0068401CDFF8381D08600EE0607835
:1030300003280BD12120DFF8281D09680870DFF86C
:10304000200D0068401CDFF8181D086000F060BF0C
:103050000020216900291DD02169C96801E0401CB8
:10306000C9680029FBD12C21DFF8F42C12681170FB
:10307000DFF8EC1C0968491CDFF8E42C1160DFF86C
:10308000E01C09680870DFF8D80C0068401CDFF805
:10309000D01C086000F03CBF206900285BD020698C
:1030A0000078012857D120694078012804D04ED3F8
:1030B000032833D019D34AE02820DFF8A41C09687C
:1030C0000870DFF89C0C0068401CDFF8941C086056
:1030D0002D20DFF88C1C09680870DFF8840C00686C
:1030E000401CDFF87C1C086093E02920DFF8701C8E
:1030F00009680870DFF8680C0068401CDFF8601C85
:1031000008602E20DFF8581C09680870DFF8500CA2
:103110000068401CDFF8481C08607AE02A20DFF8CD
:10312000401C09680870DFF8380C0068401CDFF8A4
:10313000301C08602F20DFF8281C09680870DFF8B1
:10314000200C0068401CDFF8181C086061E00320B8
:1031500000F0D7FF5DE020690078192859D1206977
:10316000407810F00F00C0B2012804D04ED30328DD
:1031700033D019D34AE02820DFF8E41B096808702F
:10318000DFF8DC0B0068401CDFF8D41B08602D2042
:10319000DFF8CC1B09680870DFF8C40B0068401C1E
:1031A000DFF8BC1B086034E02920DFF8B41B096895
:1031B0000870DFF8AC0B0068401CDFF8A41B086047
:1031C0002E20DFF89C1B09680870DFF8940B00685C
:1031D000401CDFF88C1B08601BE02A20DFF8801BF6
:1031E00009680870DFF8780B0068401CDFF8701B76
:1031F00008602F20DFF8681B09680870DFF8600B93
:103200000068401CDFF8581B086002E0032000F053
:1032100078FF00F07DBE2069002800F062812069FF
:103220000078012840F05D8120698068617801297B
:1032300006D0C0F05681032900F0DB806AD350E14C
:103240002521DFF81C2B12681170DFF8141B0968A8
:10325000491CDFF80C2B116010F11401DFF8002B72
:103260001268117010F11401090ADFF8F42A1268CB
:10327000517010F11401090CDFF8E42A1268917002
:103280001430000EDFF8D81A0968C870DFF8D00AC9
:103290000068001DDFF8C81A08602220DFF8C01A95
:1032A00009680870DFF8B80A0068401CDFF8B01A37
:1032B00008600120DFF8A81A09680870DFF8A00A82
:1032C0000068401CDFF8981A08600120DFF8901AA7
:1032D00009680870DFF8880A0068401CDFF8801A67
:1032E00008602820DFF8781A09680870DFF8700A8B
:1032F0000068401CDFF8681A08602F20DFF8601AA9
:1033000009680870DFF8580A0068401CDFF8501A96
:103310000860E6E02621DFF8482A12681170DFF81D
:10332000401A0968491CDFF8382A116010F11401AD
:10333000DFF82C2A1268117010F11401090ADFF865
:10334000202A1268517010F11401090CDFF8102ABC
:10335000126891701430000EDFF8041A0968C87002
:10336000DFF8FC090068001DDFF8F419086023206D
:10337000DFF8EC1909680870DFF8E4090068401C00
:10338000DFF8DC1908600120DFF8D419096808703B
:103390000020DFF8CC1909684870DFF8C40900681C
:1033A000801CDFF8BC1908600220DFF8B419096836
:1033B0000870DFF8AC090068401CDFF8A419086049
:1033C0002920DFF89C1909680870DFF89409006863
:1033D000401CDFF88C1908602F20DFF88419096879
:1033E0000870DFF87C090068401CDFF87419086079
:1033F00077E02721DFF8682912681170DFF860197B
:103400000968491CDFF85829116010F11401DFF830
:1034100050291268117010F11401090ADFF84029CF
:103420001268517010F11401090CDFF83429126888
:1034300091701430000EDFF828190968C870DFF8A1
:1034400020090068001DDFF8181908602420DFF843
:10345000101909680870DFF808090068401CDFF8D7
:10346000001908600120DFF8F818096808700020CA
:10347000DFF8EC18096848700020DFF8E4180968E4
:1034800088700020DFF8D8180968C870DFF8D00805
:103490000068001DDFF8C81808600320DFF8C018B6
:1034A00009680870DFF8B8080068401CDFF8B01839
:1034B00008602A20DFF8A81809680870DFF8A0085B
:1034C0000068401CDFF8981808602F20DFF890187B
:1034D00009680870DFF888080068401CDFF8801869
:1034E000086000F015BD2069002800F062812069A5
:1034F0000078012840F05D812069806861780129A9
:1035000006D0C0F05681032900F0DB806AD350E179
:103510002521DFF84C2812681170DFF8441809687B
:10352000491CDFF83C28116010F11401DFF8302845
:103530001268117010F11401090ADFF824281268CA
:10354000517010F11401090CDFF814281268917001
:103550001430000EDFF808180968C870DFF800089A
:103560000068001DDFF8F81708602220DFF8F01768
:1035700009680870DFF8E8070068401CDFF8E0170A
:1035800008600120DFF8D81709680870DFF8D00755
:103590000068401CDFF8C81708600420DFF8C01777
:1035A00009680870DFF8B8070068401CDFF8B0173A
:1035B00008602820DFF8A81709680870DFF8A0075E
:1035C0000068401CDFF8981708602F20DFF890177C
:1035D00009680870DFF888070068401CDFF880176A
:1035E0000860E6E02621DFF8782712681170DFF81E
:1035F00070170968491CDFF86827116010F1140181
:10360000DFF85C271268117010F11401090ADFF865
:1036100050271268517010F11401090CDFF840278F
:10362000126891701430000EDFF834170968C87002
:10363000DFF82C070068001DDFF82417086023203E
:10364000DFF81C1709680870DFF814070068401CD1
:10365000DFF80C1708600120DFF80417096808700C
:103660000020DFF8FC1609684870DFF8F4060068EF
:10367000801CDFF8EC1608600520DFF8E416096806
:103680000870DFF8DC060068401CDFF8D41608601C
:103690002920DFF8CC1609680870DFF8C406006836
:1036A000401CDFF8BC1608602F20DFF8B41609684C
:1036B0000870DFF8AC060068401CDFF8A41608604C
:1036C00077E02721DFF8982612681170DFF890164E
:1036D0000968491CDFF88826116010F11401DFF831
:1036E00080261268117010F11401090ADFF87026A3
:1036F0001268517010F11401090CDFF86426126889
:1037000091701430000EDFF858160968C870DFF8A1
:1037100050060068001DDFF8481608602420DFF816
:10372000401609680870DFF838060068401CDFF8AA
:10373000301608600120DFF828160968087000209C
:10374000DFF81C16096848700020DFF814160968B5
:1037500088700020DFF808160968C870DFF80006D6
:103760000068001DDFF8F81508600620DFF8F01586
:1037700009680870DFF8E8050068401CDFF8E0150C
:1037800008602A20DFF8D81509680870DFF8D0052E
:103790000068401CDFF8C81508602F20DFF8C0154E
:1037A00009680870DFF8B8050068401CDFF8B0153C
:1037B0000860ADE32069002800F0CA812069007824
:1037C000012840F0C581206980686178012907D00F
:1037D000C0F0BE81032900F03881C0F09980B7E1C4
:1037E0002421DFF87C2512681170DFF87415096850
:1037F000491CDFF86C25116010F11401DFF8602519
:103800001268117010F11401090ADFF854251268CA
:10381000517010F11401090CDFF844251268917001
:1038200010F11401090EDFF838251268D170DFF8A5
:1038300030150968091DDFF8282511602521DFF8FA
:10384000202512681170DFF818150968491CDFF887
:103850001025116010F11401DFF8042512681170B1
:1038600010F11401090ADFF8F8241268517010F100
:103870001401090CDFF8E824126891701430000E6E
:10388000DFF8DC140968C870DFF8D4040068001D94
:10389000DFF8CC1408602220DFF8C414096808702F
:1038A000DFF8BC040068401CDFF8B4140860012095
:1038B000DFF8AC1409680870DFF8A4040068401C45
:1038C000DFF89C1408600120DFF894140968087080
:1038D000DFF88C040068401CDFF88414086028209E
:1038E000DFF87C1409680870DFF874040068401C75
:1038F000DFF86C1408602B20DFF864140968087086
:10390000DFF85C040068401CDFF8541408601FE115
:103910002421DFF84C2412681170DFF84414096880
:10392000491CDFF83C24116010F11401DFF8302449
:103930001268117010F11401090ADFF824241268CA
:10394000517010F11401090CDFF814241268917001
:1039500010F11401090EDFF808241268D170DFF8A5
:1039600000140968091DDFF8F82311602621DFF82B
:10397000F02312681170DFF8E8130968491CDFF8BA
:10398000E023116010F11401DFF8D42312681170E4
:1039900010F11401090ADFF8C8231268517010F100
:1039A0001401090CDFF8B823126891701430000E6E
:1039B000DFF8AC130968C870DFF8A4030068001DC5
:1039C000DFF89C1308602320DFF89413096808705F
:1039D000DFF88C030068401CDFF8841308600120C6
:1039E000DFF87C13096808700020DFF87413096899
:1039F0004870DFF86C030068801CDFF8641308600F
:103A00000220DFF85C1309680870DFF854030068CF
:103A1000401CDFF84C1308602920DFF844130968C4
:103A20000870DFF83C030068401CDFF834130860BE
:103A30002B20DFF82C1309680870DFF824030068D6
:103A4000401CDFF81C13086082E02421DFF81023FB
:103A500012681170C2490968491CC14A116010F10D
:103A60001401BF4A1268117010F11401090ABC4A0E
:103A70001268517010F11401090CB94A1268917062
:103A800010F11401090EB64A1268D170B4490968E0
:103A9000091DB34A11602721B14A12681170B0495B
:103AA0000968491CAE4A116010F11401AC4A126851
:103AB000117010F11401090AA94A1268517010F12D
:103AC0001401090CA64A126891701430000EA44922
:103AD0000968C870A2480068001DA1490860242038
:103AE0009F49096808709E480068401C9C4908600E
:103AF00001209B49096808700020994909684870AD
:103B00000020974909688870002095490968C870A5
:103B100093480068001D9249086003209049096895
:103B200008708F480068401C8D4908602A208C4925
:103B3000096808708A480068401C894908602B2081
:103B400087490968087086480068401C84490860F5
:103B5000DEE12069002800F09681206900780128C4
:103B600040F09181206980686178012906D0C0F019
:103B70008A81032900F0F68077D384E12421784AF2
:103B80001268117076490968491C754A116010F174
:103B90001401734A1268117010F11401090A704A75
:103BA0001268517010F11401090C6D4A126891707D
:103BB00010F11401090E6A4A1268D1706849096847
:103BC000091D674A11602521654A12681170644910
:103BD0000968491C624A116010F11401604A1268B8
:103BE000117010F11401090A5D4A1268517010F148
:103BF0001401090C5A4A126891701430000E584989
:103C00000968C87056480068001D554908602220A0
:103C100053490968087052480068401C50490860C0
:103C200001204F49096808704D480068401C4C4904
:103C3000086004204A490968087049480068401C27
:103C400047490860282046490968087044480068C8
:103C5000401C434908602B204149096808704048CE
:103C60000068401C3E4908600DE124213C4A12686E
:103C700011703B490968491C394A116010F114015F
:103C8000374A1268117010F11401090A344A126897
:103C9000517010F11401090C314A1268917010F141
:103CA0001401090E2E4A1268D1702D490968091DA8
:103CB0002B4A116026212A4A126811702849096886
:103CC000491C274A116010F11401254A126811702D
:103CD00010F11401090A224A1268517010F11401FE
:103CE000090C1F4A126891701430000E1C490968B3
:103CF000C8701B480068001D194908602320184936
:103D00000968087016480068401C154908600120C1
:103D10001349096808700020114909684870104863
:103D20000068801C0E49086005200D49096808706C
:103D30000B480068401C0A490860292008490968A6
:103D4000087007480068401C054908602B2004499A
:103D50000968087002480068401C0149086092E048
:103D60000C1400202421DFF8802312681170DFF882
:103D700078130968491CDFF87023116010F11401F1
:103D8000DFF864231268117010F11401090ADFF8DA
:103D900058231268517010F11401090CDFF8482300
:103DA0001268917010F11401090EDFF83C231268BB
:103DB000D170DFF834130968091DDFF82C23116076
:103DC0002721DFF8242312681170DFF81C1309681B
:103DD000491CDFF81423116010F11401DFF80823E7
:103DE0001268117010F11401090ADFF8FC22126840
:103DF000517010F11401090CDFF8EC221268917077
:103E00001430000EB8490968C870B7480068001D32
:103E1000B54908602420B44909680870B2480068B0
:103E2000401CB14908600120AF49096808700020B2
:103E3000AD49096848700020AB49096888700020C6
:103E4000A9490968C870A8480068001DA64908600B
:103E50000620A54909680870A3480068401CA249CB
:103E600008602A20A049096808709F480068401C23
:103E70009D4908602B209C49096808709A48006891
:103E8000401C9949086043E0002097490968087080
:103E90000020954909684870002093490968887096
:103EA000002091490968C8708F480068001D8E493C
:103EB00008602DE0A078000725D46078012804D0A0
:103EC00021D3032815D00AD31DE02D208649096887
:103ED000087085480068401C8349086013E02E2064
:103EE00081490968087080480068401C7E49086064
:103EF00009E02F207C49096808707B480068401C55
:103F000079490860FFE703E002E0082000F0F9F8D3
:103F1000E068002802D0E068FEF73EFC002010BDFB
:103F200038B504000D00002C00F0AE802078132876
:103F300008D02078152805D02078162802D02078BF
:103F40001A2804D108212069FFF7EAFF0FE0207842
:103F5000192807D1EDB2002D04D000212069FFF708
:103F6000DFFF04E02900C9B22069FFF7D9FF002173
:103F7000E068FFF7D5FFA078042802D0A078284396
:103F8000A0702069002804D020694078607000206B
:103F90007BE02078012863D1A078C0072ED5A068E7
:103FA000002871D0407C012815D023D3032815D0D8
:103FB0001DD305281BD011D3072812D011D30928EF
:103FC00012D014D30B2812D00ED30D280CD00BD343
:103FD0000E280CD00EE00020607055E001206070CB
:103FE00052E0022060704FE0032060704CE003203C
:103FF000607049E0032000F084F845E0A078800775
:1040000042D5A06800283FD0007A012815D023D3DC
:10401000032815D01DD305281BD011D3072812D093
:1040200011D3092812D014D30B2812D00ED30D2887
:104030000CD00BD30E280CD00EE00020607023E0D3
:104040000120607020E0022060701DE0032060709D
:104050001AE00320607017E0032000F052F813E02C
:104060002078022802D1012060700DE0207803281A
:1040700008D02078042805D02078052802D02078A0
:10408000062801D103206070002032BD70B5040005
:1040900000212000FFF744FF80210022134D28005B
:1040A00000F040F804210022114E300000F03AF8F0
:1040B0000F48104908600D480B49086010E02000C7
:1040C000C4680021C160FEF767FB002C08D02B20DC
:1040D00005490968087004480068401C02490860E6
:1040E000002CECD1002070BD0C1400201C17002007
:1040F0001C16002008140020002008490870002029
:1041000070470649087000207047044800787047DF
:104110000349C0B251F820007047000056990020B2
:104120000000002062F30F2262F31F42401810F0DB
:10413000030308D0C91A1FD3DB0748BF00F8012DBD
:1041400028BF20F8022D130030B41446154610394C
:1041500028BF20E93C00FAD8490728BF20E90C0015
:1041600048BF40F8042D890028BF20F8022D48BF21
:1041700000F8012D30BC7047C91818BF00F8012D98
:10418000CB0728BF00F8012D704750F8041B61B120
:1041900050F8042BD30744BFA9F101039A18002358
:1041A00042F8043B091FFAD1EFE770470000000016
:1041B00000000000000000000000000000000000FF
:1041C000000000000000000038383838383838382F
:1041D00038101000383838000000000000000000DF
:1041E0000000000073807380738073807380000010
:1041F00000000000000000000000000000000000BF
:1042000000000000000000000000000000000000AE
:10421000000000000C600C600C6018C0FFF0FFF0A4
:1042200018C039C03180FFF0FFF031807380630027
:10423000630000000000000000000000000000001B
:10424000000006001F803FC076E076E076007E002A
:104250003F001FC007E006E006E076E076E03FC0E2
:104260001F800600060000000000000000000000A3
:1042700000000000000000003C18007E380066309E
:10428000006630006660006660007EC0003CC000D2
:10429000019E0001BF0003B3000333000333000697
:1042A0003300063F000C1E0000000000000000006C
:1042B00000000000000000000000000007800FC0A8
:1042C0001CE01CE01EE00FC00F801F803F9C71FCB3
:1042D00071F870F079FC3FFE1F8C000000000000B8
:1042E000000000000000000070707070700000009E
:1042F00000000000000000000000000000000000BE
:104300000C181838387070707070707070303838E1
:1043100018180C000000000060303038381C1C1CDD
:104320001C1C1C1C1C1838383030600000000000B9
:104330001818DBFF1C3C6624000000000000000091
:10434000000000000000000000000000000000006D
:1043500007000700070007007FF07FF07FF00700ED
:104360000700070007000000000000000000000038
:10437000000000000000000000000000000000003D
:10438000000000007070701030600000000000003D
:1043900000000000000000007E7E7E0000000000A3
:1043A000000000000000000000000000000000000D
:1043B00000000000707070000000000000000000AD
:1043C0000C0C1818183830303060606060C0C000C5
:1043D0000000000000000000000000000F003FC0CF
:1043E00039C070E070E070E070E070E070E070E0A4
:1043F00070E070E039C03FC00F0000000000000016
:1044000000000000000000000000000003800380A6
:1044100007801F803F803B802380038003800380D0
:1044200003800380038003800380000000000000FD
:104430000000000000000000000000001F803FC0DE
:1044400079E070E000E000E001C003C007800F00E9
:104450001E001C0038007FE07FE00000000000002C
:104460000000000000000000000000001F003F806E
:1044700071C071C001C003C00F800F8001C000E097
:1044800000E070E079C03FC01F00000000000000A5
:104490000000000000000000000000000380078012
:1044A00007800F800F801B80338033806380C38040
:1044B000FFE0FFE0038003800380000000000000B5
:1044C0000000000000000000000000001FC01FC02E
:1044D0003800380038003F807FC071E000E000E025
:1044E00000E070E079C03FC01F0000000000000045
:1044F0000000000000000000000000000F803FC02E
:1045000039E07080700077807FC079C070E070E023
:1045100070E070E039C03FC00F00000000000000F4
:104520000000000000000000000000007FE07FE0CD
:1045300000E001C003800380070007000E000E00AA
:104540000E001C001C001C001C00000000000000ED
:104550000000000000000000000000001F803FC0BD
:1045600079E070E070E039C01F801F8039C070E0D2
:1045700070E070E079E03FC01F80000000000000A4
:104580000000000000000000000000000F003FC01D
:1045900039C070E070E070E070E039E03FE01EE0AC
:1045A00000E030E079C03FC01F00000000000000C4
:1045B0000000000000000000000000003838380053
:1045C0000000000038383800000000000000000043
:1045D0000000000038383800000000003838380883
:1045E0001830000000000000000000000000000083
:1045F000002000E007E01F807C0070007E001FC0EC
:1046000007E000E0002000000000000000000000C3
:10461000000000000000000000000000000000009A
:10462000000000007FE07FE07FE0000000007FE00E
:104630007FE07FE0000000000000000000000000BC
:10464000000000000000000000000000000000006A
:10465000400070007E001F8003E000E007E03F8024
:104660007E0070004000000000000000000000001C
:104670000000000000000000000000000F803FE08C
:1046800078F07070007000F001E003C00780070050
:1046900007000000070007000700000000000000FE
:1046A000000000000000000000000000000000000A
:1046B00000FC0007FF000F03801C01C019DEC0339F
:1046C000FC6033FC6063BC60673C60673C606738DB
:1046D000C06778C067F98063FF0033BC00380070A2
:1046E0001C00E00F03C007FF8001FE000000000077
:1046F0000000000007C007C007C00EE00EE00EE09B
:104700001C701C7038383FF83FF87FFC701C701C20
:10471000E00E0000000000000000000000000000AB
:10472000000000003FE03FF03FF8383838383838B4
:104730003FF03FF03FF8381C381C381C3FFC3FF876
:104740003FF000000000000000000000000000003A
:104750000000000007C01FF03FF83C3C78187000D4
:10476000700070007000700078183C3C3FF81FF03B
:1047700007C0000000000000000000000000000072
:10478000000000003FE03FF03FF83838383C381C6C
:10479000381C381C381C381C381C38383FF83FF09F
:1047A0003FC000000000000000000000000000000A
:1047B000000000003FF83FF83FF8380038003800AC
:1047C0003FF03FF03FF03800380038003FF83FF846
:1047D0003FF80000000000000000000000000000A2
:1047E000000000003FF03FF03FF038003800380094
:1047F0003FE03FE03FE03800380038003800380044
:104800003800000000000000000000000000000070
:104810000000000003E00FF81FFC3C1E780C700045
:10482000700070FE70FE70FE380E3C1E1FFE0FFC06
:1048300003E0000000000000000000000000000095
:104840000000000070387038703870387038703878
:104850007FF87FF87FF870387038703870387038AB
:1048600070380000000000000000000000000000A0
:1048700070707070707070707070707070707000A8
:1048800000000000000000000000000001C001C0A6
:1048900001C001C001C001C001C001C001C0E1C030
:1048A000E1C0F1C07FC07F801E000000000000005A
:1048B000000000000000000000000000383C3878D4
:1048C00038F038E039C03B803FC03FC03EE03CE0BC
:1048D000387038383838381C381C000000000000A8
:1048E0000000000000000000000000003800380058
:1048F00038003800380038003800380038003800F8
:10490000380038003FF03FF03FF0000000000000AA
:104910000000000000000000000000000000000097
:104920007C1F007E3F007E3F0076370076370076A2
:10493000370077770077770073670073670073E756
:104940000073E70073E70071C70071C70000000043
:104950000000000000000000000000000000000057
:10496000000000007038783878387C387E38763827
:104970007738733873B871B871F870F870F8707868
:10498000703800000000000000000000000000007F
:104990000000000007E01FF83FFC3C3C781E700E52
:1049A000700E700E700E700E781E3C3C3FFC1FF8AF
:1049B00007E0000000000000000000000000000010
:1049C000000000003FE03FF03FF838783838387892
:1049D0003FF83FF03FE0380038003800380038003A
:1049E000380000000000000000000000000000008F
:1049F0000000000007E01FF83FFC3C3C781E700EF2
:104A0000700E700E700E708E79DE3CFC3FFC1FFE47
:104A100007EF00060000000000000000000000009A
:104A2000000000003FE03FF03FF8383838383838B1
:104A30003FF83FF03FC038E038F038703838383849
:104A4000381C000000000000000000000000000012
:104A50000000000007C01FF03FF0387838383C00F5
:104A60001F800FF003F00078703878783FF83FF03F
:104A70000FC0000000000000000000000000000067
:104A8000000000007FF07FF07FF0070007000700C4
:104A900007000700070007000700070007000700DE
:104AA00007000000000000000000000000000000FF
:104AB0000000000070387038703870387038703806
:104AC0007038703870387038703878783FF03FF050
:104AD0000FC0000000000000000000000000000007
:104AE00000000000E038E07870707070707038E09E
:104AF00038E038E01DC01DC01DC00F800F800F8042
:104B0000070000000000000000000000000000009E
:104B10000000000000000000E07038E0F83870F895
:104B20007070F87071DC7071DC7039DCE03B8EE025
:104B30003B8EE03B8EE01F07E01F07C01F07C01E33
:104B400003C01E03C00000000000000000000000C1
:104B50000000000000000000000000007038703805
:104B600038701CE01CE00FC00780078007800FC072
:104B70001CE01CE038707038703800000000000045
:104B8000000000000000000000000000E038E038F5
:104B9000707038E038E01DC00F800F8007000700FC
:104BA00007000700070007000700000000000000E2
:104BB0000000000000000000000000007FF07FF017
:104BC0007FF000F001E003C007800F001E003C00F2
:104BD0007800F000FFF0FFF0FFF0000000000000A0
:104BE00000000000000000003E3E3E3838383838F3
:104BF00038383838383838383E3E3E00000000003B
:104C0000C0C060606060303030381818180C0C007C
:104C10000000000000000000F8F8F8383838383894
:104C20003838383838383838F8F8F80000000000DC
:104C30000000000006000F000F001F80198039C01F
:104C400039C070E00000000000000000000000001B
:104C50000000000000000000000000000000000054
:104C60000000000000000000000000000000000044
:104C70000000000000000000000000000000000034
:104C8000000000000000FFF0FFF000000000000046
:104C9000E0603000000000000000000000000000A4
:104CA0000000000000000000000000000000000004
:104CB000000000001F803FC060E003E01FE03CE018
:104CC00070E070E071E03FE01E7000000000000046
:104CD00000000000000000000000000070007000F4
:104CE0007000700077807FE078E070707070707096
:104CF0007070707078E07FE0778000000000000046
:104D000000000000000000000000000000000000A3
:104D1000000000000F003FC039C070E0700070005C
:104D2000700070E039C03FC00F00000000000000BC
:104D30000000000000000000000000000070007093
:104D4000007000700F703FF038F07070707070700D
:104D50007070707038F03FF00F70000000000000BD
:104D60000000000000000000000000000000000043
:104D7000000000000F003FC039C070E07FE07FE01E
:104D8000700070E039C03FC00F000000000000005C
:104D900000000000000000001E3E3838FEFE3838DB
:104DA000383838383838380000000000000000007B
:104DB0000000000000000000000000000F703FF045
:104DC00038F07070707070707070707038F03FF004
:104DD0001F70007070F07FE01FC000000000000036
:104DE00000000000700070007000700073C07FE071
:104DF00078F070707070707070707070707070702B
:104E000070700000000000000000000000000000C2
:104E100070700000707070707070707070707000E2
:104E200000000000000000007070000070707070E2
:104E3000707070707070707070F0E00000000000B2
:104E400000000000700070007000700070E071C021
:104E500073807F007F007F007B80718071C070E075
:104E600070E00000000000000000000000000000F2
:104E700070707070707070707070707070707000A2
:104E80000000000000000000000000000000000022
:104E900000000000000000000000000077CF007F4D
:104EA000FF8078F1C070E1C070E1C070E1C070E1D6
:104EB000C070E1C070E1C070E1C070E1C0000000EE
:104EC00000000000000000000000000000000000E2
:104ED00000000000000000000000000073C07FE040
:104EE00078F070707070707070707070707070703A
:104EF00070700000000000000000000000000000D2
:104F00000000000000000000000000000F803FE0F3
:104F100038E07070707070707070707038E03FE0E2
:104F20000F800000000000000000000000000000F2
:104F300000000000000000000000000077807FE01B
:104F400078E07070707070707070707078E07FE0F2
:104F5000778070007000700070000000000000009A
:104F60000000000000000000000000000F703FF093
:104F700038F07070707070707070707038F03FF052
:104F80000F700070007000700070000000000000E2
:104F900000000000777F7870707070707070700023
:104FA0000000000000000000000000000000000001
:104FB000000000001F803FC070E070007E003FC016
:104FC00007E000E070E03FC01F800000000000002C
:104FD000000000000000000000103070FCFC707049
:104FE00070707070707C3C000000000000000000D9
:104FF00000000000000000000000000070707070F1
:1050000070707070707070707070707078F03FF0C9
:105010001F70000000000000000000000000000001
:1050200000000000000000000000000070707070C0
:1050300038E038E038E01DC01DC00F800F80070049
:105040000700000000000000000000000000000059
:10505000000000000000000000000000E38EE38E6E
:10506000638C77DC76DC36D836D83EF83C781C701A
:105070001C700000000000000000000000000000A4
:1050800000000000000000000000000070E039C0D7
:1050900039C01F800F000F000F001F8039C039C0BA
:1050A00070E00000000000000000000000000000B0
:1050B000000000000000000000000000E0E0E0E070
:1050C00071C071C071803B803B801B001F001F00BE
:1050D0000E000E001C007C007800000000000000A4
:1050E0000000000000000000000000007FC07FC042
:1050F00001C0038007000E001C00380070007FC054
:105100007FC0000000000000000000000000000060
:10511000070F1F1C1C1C1C1C3C78783C1C1C1C1CF6
:105120001F1F0F00000000003030303030303030B2
:10513000303030303030303030303030000000002F
:10514000E0F0F838383838383C1E1E3C38383838EB
:10515000F8F8F0000000000000000000000000006F
:1051600000000000000000007C20FFE0FFE087C09E
:10517000000000000000000000000000000000002F
:105180000000000006060100AC410008070701000E
:10519000C44100080A0A0200DC4100080C0C0200AD
:1051A0000C4200080C0C02003C42000811110300E4
:1051B0006C4200080F0F0200B44200080505010010
:1051C000E442000807070100FC420008070701004D
:1051D00014430008080801002C4300080C0C0200CE
:1051E0004443000806060100744300080707010055
:1051F0008C43000806060100A443000806060100CF
:10520000BC4300080C0C0200D44300080C0C020044
:10521000044400080C0C0200344400080C0C02008A
:10522000644400080C0C0200944400080C0C0200BA
:10523000C44400080C0C0200F44400080C0C0200EA
:10524000244500080C0C0200544500080C0C020018
:105250008445000807070100B4450008070701005E
:10526000CC4500080C0C0200E44500080C0C0200C0
:10527000144600080C0C0200444600080D0D020004
:105280007446000814140300A44600080F0F02001F
:10529000EC4600080F0F02001C4700080F0F020029
:1052A0004C4700080F0F02007C4700080E0E02005A
:1052B000AC4700080D0D0200DC470008101002008A
:1052C0000C4800080E0E02003C48000805050100CD
:1052D0006C4800080C0C0200844800080F0F020004
:1052E000B44800080D0D0200E44800081111030045
:1052F000144900080E0E02005C490008101002005C
:105300008C4900080E0E0200BC4900081010020073
:10531000EC4900080F0F02001C4A00080E0E0200A4
:105320004C4A00080D0D02007C4A00080E0E0200D7
:10533000AC4A00080D0D0200DC4A000815150300F8
:105340000C4B00080E0E0200544B00080D0D02001D
:10535000844B00080C0C0200B44B00080707010046
:10536000E44B000806060100FC4B0008070701009B
:10537000144C00080C0C02002C4C00080C0C020011
:105380005C4C0008070701008C4C00080C0C020064
:10539000A44C00080D0D0200D44C00080C0C0200B7
:1053A000044D00080D0D0200344D00080C0C0200E5
:1053B000644D000807070100944D00080D0D020020
:1053C000AC4D00080D0D0200DC4D00080505010084
:1053D0000C4E000805050100244E00080C0C0200CC
:1053E0003C4E0008050501006C4E00081313030035
:1053F000844E00080D0D0200CC4E00080D0D020079
:10540000FC4E00080D0D02002C4F00080D0D02008F
:105410005C4F0008080801008C4F00080C0C0200CB
:10542000A44F000807070100D44F00080D0D02002B
:10543000EC4F00080D0D02001C5000080F0F020079
:105440004C5000080C0C02007C5000080B0B0200B2
:10545000AC5000080B0B0200DC50000808080100EB
:105460000C5100080606010024510008080801003C
:105470003C5100080C0C02005451000820007E0032
:105480008451000800000000CD85020895860208BE
:10549000CD860208D386020800000000000000004C
:1054A000181801017C540008130B0F00F0B50568B3
:1054B000011DB0F90C30B0F90E60B0F91040B0F930
:1054C00012204769C7B9B5F90270BA42A4BFB5F94D
:1054D00000C064454ADBB5F906C0B445A4BFB5F9C0
:1054E00004C09C4542DBBE4203DA4E806A88521EED
:1054F00036E00127476101E0012F0BD1B5F90070BB
:10550000BB4204DA0B802B885B1E8B800CE00227E9
:10551000476101E0022F1BD1B5F90470A74214DAEC
:105520008C80AB885B1C0B80B5F902309E42B8BF03
:105530001E464E80B5F906309342B4BFCB80CA8078
:105540004169491C41610120F0BD0326466101E02B
:10555000032F0BD1B5F90650954205DA6D1C4D802D
:10556000CA800B808C80EBE7042141610020F0BDF4
:10557000F0B5059C069E079F0A9D6860A960EA60D9
:105580002B616F615B185B1E1018421E0998B0F901
:105590000270791A296001290DDBD5F810C0ACEB37
:1055A000010CC5F810C0BCF1010F69DBAF606F6979
:1055B00006FB01716961B0F90610591A29600129C9
:1055C00004DB2B69591A2961012959DBB0F9041050
:1055D000531A2B60EA68012BA8BFD21A089F3B46DA
:1055E0006E68B0F9000086423DDA831BB818C21A13
:1055F0009819012C0CD0022C14D0042C1CD0082C8F
:1056000024D0102C25D0182C18BF202C25D02AE00F
:10561000686900EBD300686123F00700861903F086
:10562000070320E0686900EB9300686123F0030042
:10563000861903F0030316E0686900EB5300686104
:1056400023F00100861903F001030CE06C691B19BB
:1056500006E06C6904EB430302E06C6904EB83032E
:105660006B61064600236E602B6068681C18141975
:10567000A14202DA081AC01A421CEA60012A01DAC1
:105680000120F0BD0020F0BD38B503465069B2F9E5
:105690000440A342A4BFB2F9062091420FDB1B1BBA
:1056A00004885D1CAC42A1BF8A1A4188541CA142E7
:1056B00005DB194600F0DDFF08B1012032BD0020F6
:1056C00032BD2DE9F04F97B004468B4690461D46FB
:1056D00011A800F077F9A06801F0A0FA0690B0F9DF
:1056E0000800069900F088FA401C0A900698406964
:1056F00009900698001D1190D4F800A0249E06EB96
:105700000B00ADF85000ADF852802818401EADF8DF
:105710005400209F07EB0800401EADF8560021986A
:105720002190229C23982390DDF89490119914A83D
:1057300001F0FCFA002831D1CDF81490049623989A
:10574000039002942198019000972B4642465946B7
:105750005046DAF80C40D4F80480C04706A801F09F
:1057600068FA17B0BDE8F08F0BA8059012A800F0FA
:10577000CBF898B9CDF814900B980490109803903A
:105780000294219801900F9800900E9B0D9A0C990D
:105790005046DAF80CC0DCF804C0E04711A8FFF767
:1057A00085FE0028E0D1119AD2E90001CDE9070178
:1057B00014A907A801F0BAFA0028CFD014A907A8A5
:1057C00001F0D0FA0BA8059007A800F09DF800287A
:1057D000C4D1DAF81000806880478046BDF91E60A9
:1057E00000E0761CBDF92200B042B7DBBDF91C70A9
:1057F00009E05B46324639465046DAF80C50D5F897
:1058000018C0E0477F1CBDF92000B842E9DB0D98C5
:10581000301A00900C983B1A109A2146219800F0FB
:10582000E5FE054688EA050B0698B0F90600321A2F
:105830000698B0F90400391A099800F01AFF0028F8
:1058400039D00A980699B1F90610711A01FB007057
:10585000069900F0D1F9069901EB80002030DFF8BD
:105860003C1A0968B9F1000F097C13D011F003014B
:1058700007D0022903D008D3032906D0C2E7002DA0
:10588000C0D059F825100160BCE759F8251088EA06
:105890000101F8E711F0030105D0022905D007D373
:1058A000032905D0AEE70560ACE7002DAAD0FAE7E2
:1058B000C0F800B0A6E7DFF8E4090168B9F1000F0D
:1058C000087C12D010F0030007D0022803D007D3C1
:1058D000032805D096E7002D94D059F8253089E7A4
:1058E00059F8250088EA000384E710F0030009D086
:1058F000022805D0FFF47DAF03283FF47AAF81E79B
:10590000002DFCD02B4675E7049003962398029057
:105910000194219800903B462A464146584627E686
:105920002DE9F04389B000F048F800F05FF900F08D
:10593000B6F8ADF81C60ADF81E50039906A801F04A
:10594000F5F958B900F04CF9A468A047BBE0BDF9DF
:10595000143000F07AF8FC68A468A04703A8FFF7A9
:10596000A5FD0028F3D100F081F80028EED006A9AB
:1059700001A801F0F7F9BDF9044002E000F06BF86E
:10598000641CBDF90800A042E0DB00F00BF8002821
:10599000F4D0BDF906000099B1F90610401A00F0E4
:1059A0006EF8EDE70098B0F906002A1A0098B0F9F1
:1059B0000400211A404600F05CBE07460C4615461E
:1059C0001E4603A8182101F0EDB92DE9F04389B076
:1059D000FFF7F3FF00F00AF900F061F8ADF81C40A2
:1059E000ADF81E60039906A801F0A0F958B900F0BF
:1059F000F7F8E468A04766E0BDF9163000F025F836
:105A0000FD68ED68A84703A8FFF750FD0028F3D113
:105A100000F02CF80028EED006A901A801F0A2F9A8
:105A2000BDF9065002E000F016F86D1CBDF90A0041
:105A3000A842E0DBFFF7B6FF0028F4D00098B0F9E9
:105A40000600281A00F01BF8EFE7BDF91220BDF997
:105A5000101038467047DFF844080068C06B0368D0
:105A60002A4621463846FE68B6693047039AD2E98D
:105A70000001CDE9010106A901A801F057B900FB19
:105A800009400099B1F90410401A009901EB800017
:105A9000DFF808180968C96B09680162704700904F
:105AA000B0F908000099B1F90410401A00F1010999
:105AB0000098D0F81480001D03903F68ADF818409E
:105AC000ADF81A50704700F002F909B0BDE8F08354
:105AD0002DE9F0478AB007460C4615461E4604A835
:105AE000FFF770FF00F082F8019000F082F800F1FB
:105AF00001090198D0F81480001D04903F68ADF8AA
:105B00001C40ADF81E50ADF82060DDF848A0ADF89F
:105B100022A0049907A801F009F9B8B9CDF800A0AE
:105B200000F05EF82469A04700F0AEFB0AB0BDE8C3
:105B3000F087BDF91A000090BDF91830BDF91620A4
:105B4000BDF914103846FC682469A04704A8FFF783
:105B5000ADFC0028EDD10498D0E90023CDE9022363
:105B600007A902A801F0E2F80028DDD007A902A8E1
:105B700001F0F8F8BDF90A4000E0641CBDF90E0020
:105B8000A042D1DBBDF908500BE0DFF81007006838
:105B9000C06B0368224629463846FE68B669B0479E
:105BA0006D1CBDF90C00A842E7DB00F018FA221AC0
:105BB00000F060FB291AFFF7FDFE0028E5D000F099
:105BC0000EFA201A00FB095000F015F8019901EBBC
:105BD0008000DFF8C8160968C96B09680162DFE751
:105BE00033462A4621463846FC687047B86801F0BB
:105BF00015B8B0F908000199B1F90410401A7047BE
:105C0000F8B500F067F800F06BF818B100F00DF887
:105C1000046A06E02A4621463046F3685B699847E5
:105C2000044600F054F82046F2BD0098B0F9060092
:105C3000281A00FB07400099B1F90410401A009996
:105C400001EB800070472DE9F04182B007460C4619
:105C500015461E46FFF7CAFF0090B0F908000099EC
:105C6000FFF7CAFF00F101083F68009A2946204665
:105C7000FFF70AFD48B10098B0F90600281A00FBAA
:105C80000840FFF7D8FF066203E0FFF7A9FFA46909
:105C9000A04700F01CF8BDE8F381F8B500F01AF851
:105CA00000F01EF850B1FFF7C0FF00F1200430698A
:105CB0008068804721684840206005E02A462146E8
:105CC0003046F368DB69984700F001F8F1BD00A8A1
:105CD00000F0AFBF06460C461546B06800F09EBF08
:105CE0000090B0F908000099B1F90410401A471C5F
:105CF0003668009A29462046C6E4002070470068AE
:105D000010B1C3681B6A18477047002070470068CD
:105D100010B1C268926A10477047006810B1C2683B
:105D2000126B104770472DE9F84304468846164623
:105D30001F46B7F904008442A4BFB7F90810A14276
:105D400010DBB7F906108845A4BFB7F90A20424511
:105D500008DB251AA8EB01094A462946786900F0B4
:105D600088FC60B9366846B1424621463046F36841
:105D70005B6901B0BDE8F043184700200AE0B7F9BD
:105D80000800B7F90410401A401C09FB005007EB4B
:105D90008000006ABDE8F283F0B587B00D46E9687F
:105DA00009B900202AE004680CB9012026E028681F
:105DB00095F93020012A02D10646AF6A06E06A68EA
:105DC000161DEA6900EB8200001F2F6A6860AA694D
:105DD000304600F0EAFF00200590049003966869C1
:105DE0000290A869019001200090EB68EA6A3946A8
:105DF0002046E4686468A0470020E86007B0F0BD72
:105E0000F8B504460D4616461846069F796A8D4237
:105E100001BF396A97F9302051188C421CBF3946AE
:105E2000FFF7BAFF7868066097F9301000EB810041
:105E30007860F86808B9BC62FD62401CF8603C629A
:105E40007D62F1BD2DE9F04105460C466869008888
:105E50008000343000F0D5FE804600F0DFFE0646BC
:105E60002868806901F0DBF80821C268926A9047CF
:105E700003280BDB052808DB092804DB1128B4BF45
:105E80001020202002E0082000E00420371D786167
:105E90000928B8BF012003DB1128B4BF0220042069
:105EA000F86068690088B861F9684843386100F0B3
:105EB000DCFE39698842C8BF08463861C7F80480EB
:105EC00006F1340030600020B86086F83040306859
:105ED000012C03D0B96900EB8100001F70603046CF
:105EE000BDE8F08113B50068FFF756FF019884689C
:105EF00000F0CAF9204600F0F5FE13BD1CB50C46B3
:105F000000A9C268126B904700A9204600F02AFF42
:105F100013BD2DE9F04F87B000F080FE01900468BA
:105F2000A56900F03FFA8D4218BF45740198466993
:105F3000203005900198D0E90123CDE9032303A97E
:105F40002046FFF7DBFF00F047F80746BDF90E805B
:105F50001FE000F08FF9A9EB000B5246594630467E
:105F600000F087FB68B100972346308800FB0AF0F9
:105F7000059901EB800050F82B2041464846FFF779
:105F80003FFF09F10109BDF910004845E1DA08F1C8
:105F90000108BDF91200404506DB00F020F8A8EB2F
:105FA000000ABDF90C90EEE7394600F067F9019858
:105FB0008269100003D001210198C069904700F068
:105FC00063F90298854204D0DFF8D0020068029994
:105FD000417407B0BDE8F08F0121019832E70198C4
:105FE000B0F9060070472DE9F64F9FB000F016FE9D
:105FF0000190006802901F980199B1F9041088423D
:1060000001BF20980199B1F90610884200F02D8156
:10601000002001F07FF91D90029880690E9000F039
:106020002FF90D910E990D9A914218BF417400F00D
:1060300021F90A90FFF7D3FF09900198B0F9080001
:106040000A99401A401C08900198B0F90A00099971
:10605000401A401C0C900198007C800740F1EC80B5
:10606000019840691B90019820301C901F980A9954
:10607000401A069020980999401A05900898411EE8
:106080004FF0FF30069A012A09DB01220792002215
:106090000B92089A1A9219910699189108E00790A4
:1060A0000B911A90002118910B99069A5118199189
:1060B0000C99491E059A012A08DB0120179000243B
:1060C0000C98169015910598149007E017900C46BF
:1060D00016900020149005980019159000F0E0F833
:1060E0000F9003A90298C268126B90470799FFF7B7
:1060F00074FF13900799FFF770FF129001E0179853
:1061000004191698844200F08E8014988442A3BF2C
:106110001598A042012000201190099805990818AF
:1061200004EB00080B9E601A10905BE0BDF90C00B8
:106130008245A4BFBDF90E0080450EDBBDF91000FD
:106140005045A4BFBDF91200404506DB019B029AF1
:1061500041465046FFF7E7FD07465FFA8BF050B126
:106160000698311A5CBF109800281ED402461B986E
:1061700000F07FFAC8B90A98801909990919BDF980
:106180000C209042A4BFBDF90E2091420DDBBDF959
:1061900010208242A4BFBDF912208A4205DB129A68
:1061A0000092029B2A68FFF72BFEBDF90C00824586
:1061B000A4BFBDF90E00804511DBBDF910005045AC
:1061C000A4BFBDF91200404509DB13980090029B63
:1061D0000F9850F8292041465046FFF711FE2F60D6
:1061E000079886191A98864289D000272246314698
:1061F0001B9800F03EFA5FEA0009F1D0089860436E
:106200001C9901EB800000EB86050A980699081896
:1062100006EB000A18988642A3BF1998B042DDF831
:1062200044B0BB4682E7139900F028F8129900F0B9
:1062300025F80FA800F0FDFC01981F9981800198B6
:106240002099C1801F9808990818401E019908815B
:1062500020980C990818401E019948810E980D99B4
:1062600000F015F81D9801F055F800F00DF821B078
:10627000BDE8F08F0198B0F904007047019831E64D
:1062800006480068417C704701A800F0D2BC8842F3
:1062900002D002480068417470470000A802002044
:1062A0000198C06800F0BABC2DE9F04F8BB000F047
:1062B000B5FC0190806907900198C0690990019828
:1062C0000468A069039000F06DF80399029A914266
:1062D00018BF41740198456920300890FFF77CFE93
